{
  "_format": "hh-sol-artifact-1",
  "contractName": "DataIntegrity",
  "sourceName": "contracts/ComfortageT33.sol",
  "abi": [
    {
      "inputs": [
        {
          "internalType": "address",
          "name": "admin",
          "type": "address"
        }
      ],
      "stateMutability": "nonpayable",
      "type": "constructor"
    },
    {
      "inputs": [],
      "name": "AccessControlBadConfirmation",
      "type": "error"
    },
    {
      "inputs": [
        {
          "internalType": "address",
          "name": "account",
          "type": "address"
        },
        {
          "internalType": "bytes32",
          "name": "neededRole",
          "type": "bytes32"
        }
      ],
      "name": "AccessControlUnauthorizedAccount",
      "type": "error"
    },
    {
      "inputs": [
        {
          "internalType": "string",
          "name": "datasetId",
          "type": "string"
        }
      ],
      "name": "DatasetAlreadyExists",
      "type": "error"
    },
    {
      "inputs": [
        {
          "internalType": "string",
          "name": "datasetId",
          "type": "string"
        }
      ],
      "name": "DatasetNotFound",
      "type": "error"
    },
    {
      "inputs": [],
      "name": "EnforcedPause",
      "type": "error"
    },
    {
      "inputs": [],
      "name": "ExpectedPause",
      "type": "error"
    },
    {
      "inputs": [],
      "name": "InvalidDatasetId",
      "type": "error"
    },
    {
      "inputs": [],
      "name": "InvalidHash",
      "type": "error"
    },
    {
      "inputs": [],
      "name": "ReentrancyGuardReentrantCall",
      "type": "error"
    },
    {
      "anonymous": false,
      "inputs": [
        {
          "indexed": true,
          "internalType": "string",
          "name": "datasetId",
          "type": "string"
        },
        {
          "indexed": false,
          "internalType": "bytes32",
          "name": "datasetHash",
          "type": "bytes32"
        },
        {
          "indexed": false,
          "internalType": "string",
          "name": "metadataCID",
          "type": "string"
        },
        {
          "indexed": true,
          "internalType": "address",
          "name": "submitter",
          "type": "address"
        },
        {
          "indexed": false,
          "internalType": "uint256",
          "name": "timestamp",
          "type": "uint256"
        }
      ],
      "name": "HashStored",
      "type": "event"
    },
    {
      "anonymous": false,
      "inputs": [
        {
          "indexed": true,
          "internalType": "string",
          "name": "datasetId",
          "type": "string"
        },
        {
          "indexed": false,
          "internalType": "bytes32",
          "name": "oldHash",
          "type": "bytes32"
        },
        {
          "indexed": false,
          "internalType": "bytes32",
          "name": "newHash",
          "type": "bytes32"
        },
        {
          "indexed": true,
          "internalType": "address",
          "name": "submitter",
          "type": "address"
        },
        {
          "indexed": false,
          "internalType": "uint256",
          "name": "timestamp",
          "type": "uint256"
        }
      ],
      "name": "HashUpdated",
      "type": "event"
    },
    {
      "anonymous": false,
      "inputs": [
        {
          "indexed": true,
          "internalType": "string",
          "name": "datasetId",
          "type": "string"
        },
        {
          "indexed": false,
          "internalType": "bytes32",
          "name": "providedHash",
          "type": "bytes32"
        },
        {
          "indexed": false,
          "internalType": "bytes32",
          "name": "storedHash",
          "type": "bytes32"
        },
        {
          "indexed": false,
          "internalType": "bool",
          "name": "isValid",
          "type": "bool"
        },
        {
          "indexed": true,
          "internalType": "address",
          "name": "checker",
          "type": "address"
        },
        {
          "indexed": false,
          "internalType": "uint256",
          "name": "timestamp",
          "type": "uint256"
        }
      ],
      "name": "IntegrityChecked",
      "type": "event"
    },
    {
      "anonymous": false,
      "inputs": [
        {
          "indexed": false,
          "internalType": "address",
          "name": "account",
          "type": "address"
        }
      ],
      "name": "Paused",
      "type": "event"
    },
    {
      "anonymous": false,
      "inputs": [
        {
          "indexed": true,
          "internalType": "bytes32",
          "name": "role",
          "type": "bytes32"
        },
        {
          "indexed": true,
          "internalType": "bytes32",
          "name": "previousAdminRole",
          "type": "bytes32"
        },
        {
          "indexed": true,
          "internalType": "bytes32",
          "name": "newAdminRole",
          "type": "bytes32"
        }
      ],
      "name": "RoleAdminChanged",
      "type": "event"
    },
    {
      "anonymous": false,
      "inputs": [
        {
          "indexed": true,
          "internalType": "bytes32",
          "name": "role",
          "type": "bytes32"
        },
        {
          "indexed": true,
          "internalType": "address",
          "name": "account",
          "type": "address"
        },
        {
          "indexed": true,
          "internalType": "address",
          "name": "sender",
          "type": "address"
        }
      ],
      "name": "RoleGranted",
      "type": "event"
    },
    {
      "anonymous": false,
      "inputs": [
        {
          "indexed": true,
          "internalType": "bytes32",
          "name": "role",
          "type": "bytes32"
        },
        {
          "indexed": true,
          "internalType": "address",
          "name": "account",
          "type": "address"
        },
        {
          "indexed": true,
          "internalType": "address",
          "name": "sender",
          "type": "address"
        }
      ],
      "name": "RoleRevoked",
      "type": "event"
    },
    {
      "anonymous": false,
      "inputs": [
        {
          "indexed": false,
          "internalType": "address",
          "name": "account",
          "type": "address"
        }
      ],
      "name": "Unpaused",
      "type": "event"
    },
    {
      "inputs": [],
      "name": "DEFAULT_ADMIN_ROLE",
      "outputs": [
        {
          "internalType": "bytes32",
          "name": "",
          "type": "bytes32"
        }
      ],
      "stateMutability": "view",
      "type": "function"
    },
    {
      "inputs": [],
      "name": "INGESTION_ROLE",
      "outputs": [
        {
          "internalType": "bytes32",
          "name": "",
          "type": "bytes32"
        }
      ],
      "stateMutability": "view",
      "type": "function"
    },
    {
      "inputs": [],
      "name": "VALIDATOR_ROLE",
      "outputs": [
        {
          "internalType": "bytes32",
          "name": "",
          "type": "bytes32"
        }
      ],
      "stateMutability": "view",
      "type": "function"
    },
    {
      "inputs": [
        {
          "internalType": "string",
          "name": "datasetId",
          "type": "string"
        }
      ],
      "name": "datasetExists",
      "outputs": [
        {
          "internalType": "bool",
          "name": "",
          "type": "bool"
        }
      ],
      "stateMutability": "view",
      "type": "function"
    },
    {
      "inputs": [
        {
          "internalType": "string",
          "name": "datasetId",
          "type": "string"
        }
      ],
      "name": "getHash",
      "outputs": [
        {
          "internalType": "bytes32",
          "name": "datasetHash",
          "type": "bytes32"
        },
        {
          "internalType": "uint256",
          "name": "timestamp",
          "type": "uint256"
        },
        {
          "internalType": "address",
          "name": "submitter",
          "type": "address"
        },
        {
          "internalType": "string",
          "name": "metadataCID",
          "type": "string"
        }
      ],
      "stateMutability": "view",
      "type": "function"
    },
    {
      "inputs": [
        {
          "internalType": "string",
          "name": "datasetId",
          "type": "string"
        }
      ],
      "name": "getHashHistory",
      "outputs": [
        {
          "internalType": "bytes32[]",
          "name": "",
          "type": "bytes32[]"
        }
      ],
      "stateMutability": "view",
      "type": "function"
    },
    {
      "inputs": [
        {
          "internalType": "bytes32",
          "name": "role",
          "type": "bytes32"
        }
      ],
      "name": "getRoleAdmin",
      "outputs": [
        {
          "internalType": "bytes32",
          "name": "",
          "type": "bytes32"
        }
      ],
      "stateMutability": "view",
      "type": "function"
    },
    {
      "inputs": [
        {
          "internalType": "bytes32",
          "name": "role",
          "type": "bytes32"
        },
        {
          "internalType": "address",
          "name": "account",
          "type": "address"
        }
      ],
      "name": "grantRole",
      "outputs": [],
      "stateMutability": "nonpayable",
      "type": "function"
    },
    {
      "inputs": [
        {
          "internalType": "bytes32",
          "name": "role",
          "type": "bytes32"
        },
        {
          "internalType": "address",
          "name": "account",
          "type": "address"
        }
      ],
      "name": "hasRole",
      "outputs": [
        {
          "internalType": "bool",
          "name": "",
          "type": "bool"
        }
      ],
      "stateMutability": "view",
      "type": "function"
    },
    {
      "inputs": [],
      "name": "pause",
      "outputs": [],
      "stateMutability": "nonpayable",
      "type": "function"
    },
    {
      "inputs": [],
      "name": "paused",
      "outputs": [
        {
          "internalType": "bool",
          "name": "",
          "type": "bool"
        }
      ],
      "stateMutability": "view",
      "type": "function"
    },
    {
      "inputs": [
        {
          "internalType": "bytes32",
          "name": "role",
          "type": "bytes32"
        },
        {
          "internalType": "address",
          "name": "callerConfirmation",
          "type": "address"
        }
      ],
      "name": "renounceRole",
      "outputs": [],
      "stateMutability": "nonpayable",
      "type": "function"
    },
    {
      "inputs": [
        {
          "internalType": "bytes32",
          "name": "role",
          "type": "bytes32"
        },
        {
          "internalType": "address",
          "name": "account",
          "type": "address"
        }
      ],
      "name": "revokeRole",
      "outputs": [],
      "stateMutability": "nonpayable",
      "type": "function"
    },
    {
      "inputs": [
        {
          "internalType": "string",
          "name": "datasetId",
          "type": "string"
        },
        {
          "internalType": "bytes32",
          "name": "datasetHash",
          "type": "bytes32"
        },
        {
          "internalType": "string",
          "name": "metadataCID",
          "type": "string"
        }
      ],
      "name": "storeHash",
      "outputs": [],
      "stateMutability": "nonpayable",
      "type": "function"
    },
    {
      "inputs": [
        {
          "internalType": "bytes4",
          "name": "interfaceId",
          "type": "bytes4"
        }
      ],
      "name": "supportsInterface",
      "outputs": [
        {
          "internalType": "bool",
          "name": "",
          "type": "bool"
        }
      ],
      "stateMutability": "view",
      "type": "function"
    },
    {
      "inputs": [],
      "name": "totalRecords",
      "outputs": [
        {
          "internalType": "uint256",
          "name": "",
          "type": "uint256"
        }
      ],
      "stateMutability": "view",
      "type": "function"
    },
    {
      "inputs": [],
      "name": "unpause",
      "outputs": [],
      "stateMutability": "nonpayable",
      "type": "function"
    },
    {
      "inputs": [
        {
          "internalType": "string",
          "name": "datasetId",
          "type": "string"
        },
        {
          "internalType": "bytes32",
          "name": "newHash",
          "type": "bytes32"
        },
        {
          "internalType": "string",
          "name": "metadataCID",
          "type": "string"
        }
      ],
      "name": "updateHash",
      "outputs": [],
      "stateMutability": "nonpayable",
      "type": "function"
    },
    {
      "inputs": [
        {
          "internalType": "string",
          "name": "datasetId",
          "type": "string"
        },
        {
          "internalType": "bytes32",
          "name": "hashToValidate",
          "type": "bytes32"
        }
      ],
      "name": "validateHash",
      "outputs": [
        {
          "internalType": "bool",
          "name": "isValid",
          "type": "bool"
        }
      ],
      "stateMutability": "nonpayable",
      "type": "function"
    }
  ],
  "bytecode": "0x60806040523480156200001157600080fd5b506040516200156b3803806200156b833981016040819052620000349162000157565b600160025562000046600082620000a8565b50620000737f961d55c77c3196ddb4c0461ff143b345fb217a0e9690c1fd33bd1f2102c4faa782620000a8565b50620000a07f21702c8af46127c7fa207f89d0b0a8441bb32959a0ac7df790e9ab1a25c9892682620000a8565b505062000189565b6000828152602081815260408083206001600160a01b038516845290915281205460ff166200014d576000838152602081815260408083206001600160a01b03861684529091529020805460ff19166001179055620001043390565b6001600160a01b0316826001600160a01b0316847f2f8788117e7eff1d82e926ec794901d17c78024a50270940304540a733656f0d60405160405180910390a450600162000151565b5060005b92915050565b6000602082840312156200016a57600080fd5b81516001600160a01b03811681146200018257600080fd5b9392505050565b6113d280620001996000396000f3fe608060405234801561001057600080fd5b50600436106101215760003560e01c80635c975abb116100ad578063c129ede111610071578063c129ede11461024f578063c49baebe14610262578063c80d583714610289578063d547741f146102b0578063dc5fc832146102c357600080fd5b80635c975abb1461020e5780638456cb591461021957806391d148541461022157806396794ed714610234578063a217fddf1461024757600080fd5b80632f2ff15d116100f45780632f2ff15d146101a857806336568abe146101bd5780633f4ba83a146101d05780634420f0e5146101d85780635b6beeb9146101eb57600080fd5b806301ffc9a714610126578063125f89741461014e578063248a9ca31461016557806329d4b37d14610188575b600080fd5b610139610134366004610e54565b6102d6565b60405190151581526020015b60405180910390f35b61015760065481565b604051908152602001610145565b610157610173366004610e85565b60009081526020819052604090206001015490565b61019b610196366004610ee7565b61030d565b6040516101459190610f29565b6101bb6101b6366004610f6d565b6103d2565b005b6101bb6101cb366004610f6d565b6103fd565b6101bb610435565b6101396101e6366004610ee7565b61044b565b6101fe6101f9366004610ee7565b61047d565b6040516101459493929190610fa9565b60015460ff16610139565b6101bb6105e8565b61013961022f366004610f6d565b6105fb565b6101bb610242366004611016565b610624565b610157600081565b6101bb61025d366004611016565b6108bf565b6101577f21702c8af46127c7fa207f89d0b0a8441bb32959a0ac7df790e9ab1a25c9892681565b6101577f961d55c77c3196ddb4c0461ff143b345fb217a0e9690c1fd33bd1f2102c4faa781565b6101bb6102be366004610f6d565b610ae5565b6101396102d1366004611090565b610b0a565b60006001600160e01b03198216637965db0b60e01b148061030757506301ffc9a760e01b6001600160e01b03198316145b92915050565b6060600383836040516103219291906110dc565b9081526040519081900360200190206004015460ff16610361578282604051637e8d8bb360e01b8152600401610358929190611115565b60405180910390fd5b600483836040516103739291906110dc565b90815260408051918290036020908101832080548083028501830190935282845291908301828280156103c557602002820191906000526020600020905b8154815260200190600101908083116103b1575b5050505050905092915050565b6000828152602081905260409020600101546103ed81610c12565b6103f78383610c1c565b50505050565b6001600160a01b03811633146104265760405163334bd91960e11b815260040160405180910390fd5b6104308282610cae565b505050565b600061044081610c12565b610448610d19565b50565b60006003838360405161045f9291906110dc565b9081526040519081900360200190206004015460ff16905092915050565b60008060006060600386866040516104969291906110dc565b9081526040519081900360200190206004015460ff166104cd578585604051637e8d8bb360e01b8152600401610358929190611115565b6000600387876040516104e19291906110dc565b90815260408051918290036020908101832060a0840183528054845260018101549184019190915260028101546001600160a01b03169183019190915260038101805460608401919061053390611131565b80601f016020809104026020016040519081016040528092919081815260200182805461055f90611131565b80156105ac5780601f10610581576101008083540402835291602001916105ac565b820191906000526020600020905b81548152906001019060200180831161058f57829003601f168201915b50505091835250506004919091015460ff1615156020918201528151908201516040830151606090930151919a90995091975095509350505050565b60006105f381610c12565b610448610d6b565b6000918252602082815260408084206001600160a01b0393909316845291905290205460ff1690565b7f961d55c77c3196ddb4c0461ff143b345fb217a0e9690c1fd33bd1f2102c4faa761064e81610c12565b610656610da6565b61065e610dcc565b6000859003610680576040516374919e8560e11b815260040160405180910390fd5b8361069d576040516257c03760e51b815260040160405180910390fd5b600386866040516106af9291906110dc565b9081526040519081900360200190206004015460ff16156106e75785856040516325c8f8a960e01b8152600401610358929190611115565b6040518060a00160405280858152602001428152602001336001600160a01b0316815260200184848080601f016020809104026020016040519081016040528093929190818152602001838380828437600092019190915250505090825250600160209091015260405160039061076190899089906110dc565b9081526040805160209281900383019020835181559183015160018301558201516002820180546001600160a01b0319166001600160a01b03909216919091179055606082015160038201906107b790826111c9565b50608091909101516004918201805460ff19169115159190911790556040516107e390889088906110dc565b9081526040516020918190038201902080546001808201835560009283529282200186905560058054928301815590527f036b6384b5eca791c62761152d0c79bb0604c104a5fb6f4eb0703f3154bb3db001610840868883611289565b50600680549060006108518361134a565b9091555050604051339061086890889088906110dc565b60405180910390207fb5ca14a3892b6e4b44499513f5114eda61c7052ad00f62591109afbfdf02a4dd868686426040516108a59493929190611371565b60405180910390a36108b76001600255565b505050505050565b7f961d55c77c3196ddb4c0461ff143b345fb217a0e9690c1fd33bd1f2102c4faa76108e981610c12565b6108f1610da6565b6108f9610dcc565b6003868660405161090b9291906110dc565b9081526040519081900360200190206004015460ff16610942578585604051637e8d8bb360e01b8152600401610358929190611115565b8361095f576040516257c03760e51b815260040160405180910390fd5b6000600387876040516109739291906110dc565b9081526040519081900360200181205491508590600390610997908a908a906110dc565b9081526040519081900360200181209190915542906003906109bc908a908a906110dc565b90815260200160405180910390206001018190555033600388886040516109e49291906110dc565b908152602001604051809103902060020160006101000a8154816001600160a01b0302191690836001600160a01b03160217905550838360038989604051610a2d9291906110dc565b90815260200160405180910390206003019182610a4b929190611289565b5060048787604051610a5e9291906110dc565b908152604051908190036020908101822080546001810182556000918252919020018690553390610a9290899089906110dc565b60408051918290038220848352602083018990524283830152905190917f490bc6a1051157cd6577fec5431eb8480a449170ac8d3e24b09b4ce68332584d919081900360600190a3506108b76001600255565b600082815260208190526040902060010154610b0081610c12565b6103f78383610cae565b60007f21702c8af46127c7fa207f89d0b0a8441bb32959a0ac7df790e9ab1a25c98926610b3681610c12565b60038585604051610b489291906110dc565b9081526040519081900360200190206004015460ff16610b7f578484604051637e8d8bb360e01b8152600401610358929190611115565b600060038686604051610b939291906110dc565b90815260405190819003602001812054858114945091503390610bb990889088906110dc565b604080519182900382208783526020830185905286151583830152426060840152905190917fd68860bb4950a771f09310bce6acda69c2cfaa0bddbc29d36a5b7dd2ba63baaa919081900360800190a350509392505050565b6104488133610df4565b6000610c2883836105fb565b610ca6576000838152602081815260408083206001600160a01b03861684529091529020805460ff19166001179055610c5e3390565b6001600160a01b0316826001600160a01b0316847f2f8788117e7eff1d82e926ec794901d17c78024a50270940304540a733656f0d60405160405180910390a4506001610307565b506000610307565b6000610cba83836105fb565b15610ca6576000838152602081815260408083206001600160a01b0386168085529252808320805460ff1916905551339286917ff6391f5c32d9c69d2a47ea670b442974b53935d1edc7fd64eb21e047a839171b9190a4506001610307565b610d21610e31565b6001805460ff191690557f5db9ee0a495bf2e6ff9c91a7834c1ba4fdd244a5e8aa4e537bd38aeae4b073aa335b6040516001600160a01b03909116815260200160405180910390a1565b610d73610da6565b6001805460ff1916811790557f62e78cea01bee320cd4e420270b5ea74000d11b0c9f74754ebdbfc544b05a25833610d4e565b60015460ff1615610dca5760405163d93c066560e01b815260040160405180910390fd5b565b6002805403610dee57604051633ee5aeb560e01b815260040160405180910390fd5b60028055565b610dfe82826105fb565b610e2d5760405163e2517d3f60e01b81526001600160a01b038216600482015260248101839052604401610358565b5050565b60015460ff16610dca57604051638dfc202b60e01b815260040160405180910390fd5b600060208284031215610e6657600080fd5b81356001600160e01b031981168114610e7e57600080fd5b9392505050565b600060208284031215610e9757600080fd5b5035919050565b60008083601f840112610eb057600080fd5b50813567ffffffffffffffff811115610ec857600080fd5b602083019150836020828501011115610ee057600080fd5b9250929050565b60008060208385031215610efa57600080fd5b823567ffffffffffffffff811115610f1157600080fd5b610f1d85828601610e9e565b90969095509350505050565b6020808252825182820181905260009190848201906040850190845b81811015610f6157835183529284019291840191600101610f45565b50909695505050505050565b60008060408385031215610f8057600080fd5b8235915060208301356001600160a01b0381168114610f9e57600080fd5b809150509250929050565b8481526000602085602084015260018060a01b038516604084015260806060840152835180608085015260005b81811015610ff25785810183015185820160a001528201610fd6565b50600060a0828601015260a0601f19601f8301168501019250505095945050505050565b60008060008060006060868803121561102e57600080fd5b853567ffffffffffffffff8082111561104657600080fd5b61105289838a01610e9e565b909750955060208801359450604088013591508082111561107257600080fd5b5061107f88828901610e9e565b969995985093965092949392505050565b6000806000604084860312156110a557600080fd5b833567ffffffffffffffff8111156110bc57600080fd5b6110c886828701610e9e565b909790965060209590950135949350505050565b8183823760009101908152919050565b81835281816020850137506000828201602090810191909152601f909101601f19169091010190565b6020815260006111296020830184866110ec565b949350505050565b600181811c9082168061114557607f821691505b60208210810361116557634e487b7160e01b600052602260045260246000fd5b50919050565b634e487b7160e01b600052604160045260246000fd5b601f821115610430576000816000526020600020601f850160051c810160208610156111aa5750805b601f850160051c820191505b818110156108b7578281556001016111b6565b815167ffffffffffffffff8111156111e3576111e361116b565b6111f7816111f18454611131565b84611181565b602080601f83116001811461122c57600084156112145750858301515b600019600386901b1c1916600185901b1785556108b7565b600085815260208120601f198616915b8281101561125b5788860151825594840194600190910190840161123c565b50858210156112795787850151600019600388901b60f8161c191681555b5050505050600190811b01905550565b67ffffffffffffffff8311156112a1576112a161116b565b6112b5836112af8354611131565b83611181565b6000601f8411600181146112e957600085156112d15750838201355b600019600387901b1c1916600186901b178355611343565b600083815260209020601f19861690835b8281101561131a57868501358255602094850194600190920191016112fa565b50868210156113375760001960f88860031b161c19848701351681555b505060018560011b0183555b5050505050565b60006001820161136a57634e487b7160e01b600052601160045260246000fd5b5060010190565b84815260606020820152600061138b6060830185876110ec565b90508260408301529594505050505056fea264697066735822122075e60881c838b93c500a5394fada389afe26bba6c0b9f65319b6af1e5d44523e64736f6c63430008180033",
  "linkReferences": {},
  "deployedLinkReferences": {}
}