{"contracts/ComfortageT33.sol":{"DataIntegrity":{"abi":[{"inputs":[{"internalType":"address","name":"admin","type":"address"}],"stateMutability":"nonpayable","type":"constructor"},{"inputs":[],"name":"AccessControlBadConfirmation","type":"error"},{"inputs":[{"internalType":"address","name":"account","type":"address"},{"internalType":"bytes32","name":"neededRole","type":"bytes32"}],"name":"AccessControlUnauthorizedAccount","type":"error"},{"inputs":[{"internalType":"string","name":"datasetId","type":"string"}],"name":"DatasetAlreadyExists","type":"error"},{"inputs":[{"internalType":"string","name":"datasetId","type":"string"}],"name":"DatasetNotFound","type":"error"},{"inputs":[],"name":"EnforcedPause","type":"error"},{"inputs":[],"name":"ExpectedPause","type":"error"},{"inputs":[],"name":"InvalidDatasetId","type":"error"},{"inputs":[],"name":"InvalidHash","type":"error"},{"inputs":[],"name":"ReentrancyGuardReentrantCall","type":"error"},{"anonymous":false,"inputs":[{"indexed":true,"internalType":"string","name":"datasetId","type":"string"},{"indexed":false,"internalType":"bytes32","name":"datasetHash","type":"bytes32"},{"indexed":false,"internalType":"string","name":"metadataCID","type":"string"},{"indexed":true,"internalType":"address","name":"submitter","type":"address"},{"indexed":false,"internalType":"uint256","name":"timestamp","type":"uint256"}],"name":"HashStored","type":"event"},{"anonymous":false,"inputs":[{"indexed":true,"internalType":"string","name":"datasetId","type":"string"},{"indexed":false,"internalType":"bytes32","name":"oldHash","type":"bytes32"},{"indexed":false,"internalType":"bytes32","name":"newHash","type":"bytes32"},{"indexed":true,"internalType":"address","name":"submitter","type":"address"},{"indexed":false,"internalType":"uint256","name":"timestamp","type":"uint256"}],"name":"HashUpdated","type":"event"},{"anonymous":false,"inputs":[{"indexed":true,"internalType":"string","name":"datasetId","type":"string"},{"indexed":false,"internalType":"bytes32","name":"providedHash","type":"bytes32"},{"indexed":false,"internalType":"bytes32","name":"storedHash","type":"bytes32"},{"indexed":false,"internalType":"bool","name":"isValid","type":"bool"},{"indexed":true,"internalType":"address","name":"checker","type":"address"},{"indexed":false,"internalType":"uint256","name":"timestamp","type":"uint256"}],"name":"IntegrityChecked","type":"event"},{"anonymous":false,"inputs":[{"indexed":false,"internalType":"address","name":"account","type":"address"}],"name":"Paused","type":"event"},{"anonymous":false,"inputs":[{"indexed":true,"internalType":"bytes32","name":"role","type":"bytes32"},{"indexed":true,"internalType":"bytes32","name":"previousAdminRole","type":"bytes32"},{"indexed":true,"internalType":"bytes32","name":"newAdminRole","type":"bytes32"}],"name":"RoleAdminChanged","type":"event"},{"anonymous":false,"inputs":[{"indexed":true,"internalType":"bytes32","name":"role","type":"bytes32"},{"indexed":true,"internalType":"address","name":"account","type":"address"},{"indexed":true,"internalType":"address","name":"sender","type":"address"}],"name":"RoleGranted","type":"event"},{"anonymous":false,"inputs":[{"indexed":true,"internalType":"bytes32","name":"role","type":"bytes32"},{"indexed":true,"internalType":"address","name":"account","type":"address"},{"indexed":true,"internalType":"address","name":"sender","type":"address"}],"name":"RoleRevoked","type":"event"},{"anonymous":false,"inputs":[{"indexed":false,"internalType":"address","name":"account","type":"address"}],"name":"Unpaused","type":"event"},{"inputs":[],"name":"DEFAULT_ADMIN_ROLE","outputs":[{"internalType":"bytes32","name":"","type":"bytes32"}],"stateMutability":"view","type":"function"},{"inputs":[],"name":"INGESTION_ROLE","outputs":[{"internalType":"bytes32","name":"","type":"bytes32"}],"stateMutability":"view","type":"function"},{"inputs":[],"name":"VALIDATOR_ROLE","outputs":[{"internalType":"bytes32","name":"","type":"bytes32"}],"stateMutability":"view","type":"function"},{"inputs":[{"internalType":"string","name":"datasetId","type":"string"}],"name":"datasetExists","outputs":[{"internalType":"bool","name":"","type":"bool"}],"stateMutability":"view","type":"function"},{"inputs":[{"internalType":"string","name":"datasetId","type":"string"}],"name":"getHash","outputs":[{"internalType":"bytes32","name":"datasetHash","type":"bytes32"},{"internalType":"uint256","name":"timestamp","type":"uint256"},{"internalType":"address","name":"submitter","type":"address"},{"internalType":"string","name":"metadataCID","type":"string"}],"stateMutability":"view","type":"function"},{"inputs":[{"internalType":"string","name":"datasetId","type":"string"}],"name":"getHashHistory","outputs":[{"internalType":"bytes32[]","name":"","type":"bytes32[]"}],"stateMutability":"view","type":"function"},{"inputs":[{"internalType":"bytes32","name":"role","type":"bytes32"}],"name":"getRoleAdmin","outputs":[{"internalType":"bytes32","name":"","type":"bytes32"}],"stateMutability":"view","type":"function"},{"inputs":[{"internalType":"bytes32","name":"role","type":"bytes32"},{"internalType":"address","name":"account","type":"address"}],"name":"grantRole","outputs":[],"stateMutability":"nonpayable","type":"function"},{"inputs":[{"internalType":"bytes32","name":"role","type":"bytes32"},{"internalType":"address","name":"account","type":"address"}],"name":"hasRole","outputs":[{"internalType":"bool","name":"","type":"bool"}],"stateMutability":"view","type":"function"},{"inputs":[],"name":"pause","outputs":[],"stateMutability":"nonpayable","type":"function"},{"inputs":[],"name":"paused","outputs":[{"internalType":"bool","name":"","type":"bool"}],"stateMutability":"view","type":"function"},{"inputs":[{"internalType":"bytes32","name":"role","type":"bytes32"},{"internalType":"address","name":"callerConfirmation","type":"address"}],"name":"renounceRole","outputs":[],"stateMutability":"nonpayable","type":"function"},{"inputs":[{"internalType":"bytes32","name":"role","type":"bytes32"},{"internalType":"address","name":"account","type":"address"}],"name":"revokeRole","outputs":[],"stateMutability":"nonpayable","type":"function"},{"inputs":[{"internalType":"string","name":"datasetId","type":"string"},{"internalType":"bytes32","name":"datasetHash","type":"bytes32"},{"internalType":"string","name":"metadataCID","type":"string"}],"name":"storeHash","outputs":[],"stateMutability":"nonpayable","type":"function"},{"inputs":[{"internalType":"bytes4","name":"interfaceId","type":"bytes4"}],"name":"supportsInterface","outputs":[{"internalType":"bool","name":"","type":"bool"}],"stateMutability":"view","type":"function"},{"inputs":[],"name":"totalRecords","outputs":[{"internalType":"uint256","name":"","type":"uint256"}],"stateMutability":"view","type":"function"},{"inputs":[],"name":"unpause","outputs":[],"stateMutability":"nonpayable","type":"function"},{"inputs":[{"internalType":"string","name":"datasetId","type":"string"},{"internalType":"bytes32","name":"newHash","type":"bytes32"},{"internalType":"string","name":"metadataCID","type":"string"}],"name":"updateHash","outputs":[],"stateMutability":"nonpayable","type":"function"},{"inputs":[{"internalType":"string","name":"datasetId","type":"string"},{"internalType":"bytes32","name":"hashToValidate","type":"bytes32"}],"name":"validateHash","outputs":[{"internalType":"bool","name":"isValid","type":"bool"}],"stateMutability":"nonpayable","type":"function"}],"evm":{"bytecode":{"linkReferences":{},"object":"60806040523480156200001157600080fd5b506040516200156b3803806200156b833981016040819052620000349162000157565b600160025562000046600082620000a8565b50620000737f961d55c77c3196ddb4c0461ff143b345fb217a0e9690c1fd33bd1f2102c4faa782620000a8565b50620000a07f21702c8af46127c7fa207f89d0b0a8441bb32959a0ac7df790e9ab1a25c9892682620000a8565b505062000189565b6000828152602081815260408083206001600160a01b038516845290915281205460ff166200014d576000838152602081815260408083206001600160a01b03861684529091529020805460ff19166001179055620001043390565b6001600160a01b0316826001600160a01b0316847f2f8788117e7eff1d82e926ec794901d17c78024a50270940304540a733656f0d60405160405180910390a450600162000151565b5060005b92915050565b6000602082840312156200016a57600080fd5b81516001600160a01b03811681146200018257600080fd5b9392505050565b6113d280620001996000396000f3fe608060405234801561001057600080fd5b50600436106101215760003560e01c80635c975abb116100ad578063c129ede111610071578063c129ede11461024f578063c49baebe14610262578063c80d583714610289578063d547741f146102b0578063dc5fc832146102c357600080fd5b80635c975abb1461020e5780638456cb591461021957806391d148541461022157806396794ed714610234578063a217fddf1461024757600080fd5b80632f2ff15d116100f45780632f2ff15d146101a857806336568abe146101bd5780633f4ba83a146101d05780634420f0e5146101d85780635b6beeb9146101eb57600080fd5b806301ffc9a714610126578063125f89741461014e578063248a9ca31461016557806329d4b37d14610188575b600080fd5b610139610134366004610e54565b6102d6565b60405190151581526020015b60405180910390f35b61015760065481565b604051908152602001610145565b610157610173366004610e85565b60009081526020819052604090206001015490565b61019b610196366004610ee7565b61030d565b6040516101459190610f29565b6101bb6101b6366004610f6d565b6103d2565b005b6101bb6101cb366004610f6d565b6103fd565b6101bb610435565b6101396101e6366004610ee7565b61044b565b6101fe6101f9366004610ee7565b61047d565b6040516101459493929190610fa9565b60015460ff16610139565b6101bb6105e8565b61013961022f366004610f6d565b6105fb565b6101bb610242366004611016565b610624565b610157600081565b6101bb61025d366004611016565b6108bf565b6101577f21702c8af46127c7fa207f89d0b0a8441bb32959a0ac7df790e9ab1a25c9892681565b6101577f961d55c77c3196ddb4c0461ff143b345fb217a0e9690c1fd33bd1f2102c4faa781565b6101bb6102be366004610f6d565b610ae5565b6101396102d1366004611090565b610b0a565b60006001600160e01b03198216637965db0b60e01b148061030757506301ffc9a760e01b6001600160e01b03198316145b92915050565b6060600383836040516103219291906110dc565b9081526040519081900360200190206004015460ff16610361578282604051637e8d8bb360e01b8152600401610358929190611115565b60405180910390fd5b600483836040516103739291906110dc565b90815260408051918290036020908101832080548083028501830190935282845291908301828280156103c557602002820191906000526020600020905b8154815260200190600101908083116103b1575b5050505050905092915050565b6000828152602081905260409020600101546103ed81610c12565b6103f78383610c1c565b50505050565b6001600160a01b03811633146104265760405163334bd91960e11b815260040160405180910390fd5b6104308282610cae565b505050565b600061044081610c12565b610448610d19565b50565b60006003838360405161045f9291906110dc565b9081526040519081900360200190206004015460ff16905092915050565b60008060006060600386866040516104969291906110dc565b9081526040519081900360200190206004015460ff166104cd578585604051637e8d8bb360e01b8152600401610358929190611115565b6000600387876040516104e19291906110dc565b90815260408051918290036020908101832060a0840183528054845260018101549184019190915260028101546001600160a01b03169183019190915260038101805460608401919061053390611131565b80601f016020809104026020016040519081016040528092919081815260200182805461055f90611131565b80156105ac5780601f10610581576101008083540402835291602001916105ac565b820191906000526020600020905b81548152906001019060200180831161058f57829003601f168201915b50505091835250506004919091015460ff1615156020918201528151908201516040830151606090930151919a90995091975095509350505050565b60006105f381610c12565b610448610d6b565b6000918252602082815260408084206001600160a01b0393909316845291905290205460ff1690565b7f961d55c77c3196ddb4c0461ff143b345fb217a0e9690c1fd33bd1f2102c4faa761064e81610c12565b610656610da6565b61065e610dcc565b6000859003610680576040516374919e8560e11b815260040160405180910390fd5b8361069d576040516257c03760e51b815260040160405180910390fd5b600386866040516106af9291906110dc565b9081526040519081900360200190206004015460ff16156106e75785856040516325c8f8a960e01b8152600401610358929190611115565b6040518060a00160405280858152602001428152602001336001600160a01b0316815260200184848080601f016020809104026020016040519081016040528093929190818152602001838380828437600092019190915250505090825250600160209091015260405160039061076190899089906110dc565b9081526040805160209281900383019020835181559183015160018301558201516002820180546001600160a01b0319166001600160a01b03909216919091179055606082015160038201906107b790826111c9565b50608091909101516004918201805460ff19169115159190911790556040516107e390889088906110dc565b9081526040516020918190038201902080546001808201835560009283529282200186905560058054928301815590527f036b6384b5eca791c62761152d0c79bb0604c104a5fb6f4eb0703f3154bb3db001610840868883611289565b50600680549060006108518361134a565b9091555050604051339061086890889088906110dc565b60405180910390207fb5ca14a3892b6e4b44499513f5114eda61c7052ad00f62591109afbfdf02a4dd868686426040516108a59493929190611371565b60405180910390a36108b76001600255565b505050505050565b7f961d55c77c3196ddb4c0461ff143b345fb217a0e9690c1fd33bd1f2102c4faa76108e981610c12565b6108f1610da6565b6108f9610dcc565b6003868660405161090b9291906110dc565b9081526040519081900360200190206004015460ff16610942578585604051637e8d8bb360e01b8152600401610358929190611115565b8361095f576040516257c03760e51b815260040160405180910390fd5b6000600387876040516109739291906110dc565b9081526040519081900360200181205491508590600390610997908a908a906110dc565b9081526040519081900360200181209190915542906003906109bc908a908a906110dc565b90815260200160405180910390206001018190555033600388886040516109e49291906110dc565b908152602001604051809103902060020160006101000a8154816001600160a01b0302191690836001600160a01b03160217905550838360038989604051610a2d9291906110dc565b90815260200160405180910390206003019182610a4b929190611289565b5060048787604051610a5e9291906110dc565b908152604051908190036020908101822080546001810182556000918252919020018690553390610a9290899089906110dc565b60408051918290038220848352602083018990524283830152905190917f490bc6a1051157cd6577fec5431eb8480a449170ac8d3e24b09b4ce68332584d919081900360600190a3506108b76001600255565b600082815260208190526040902060010154610b0081610c12565b6103f78383610cae565b60007f21702c8af46127c7fa207f89d0b0a8441bb32959a0ac7df790e9ab1a25c98926610b3681610c12565b60038585604051610b489291906110dc565b9081526040519081900360200190206004015460ff16610b7f578484604051637e8d8bb360e01b8152600401610358929190611115565b600060038686604051610b939291906110dc565b90815260405190819003602001812054858114945091503390610bb990889088906110dc565b604080519182900382208783526020830185905286151583830152426060840152905190917fd68860bb4950a771f09310bce6acda69c2cfaa0bddbc29d36a5b7dd2ba63baaa919081900360800190a350509392505050565b6104488133610df4565b6000610c2883836105fb565b610ca6576000838152602081815260408083206001600160a01b03861684529091529020805460ff19166001179055610c5e3390565b6001600160a01b0316826001600160a01b0316847f2f8788117e7eff1d82e926ec794901d17c78024a50270940304540a733656f0d60405160405180910390a4506001610307565b506000610307565b6000610cba83836105fb565b15610ca6576000838152602081815260408083206001600160a01b0386168085529252808320805460ff1916905551339286917ff6391f5c32d9c69d2a47ea670b442974b53935d1edc7fd64eb21e047a839171b9190a4506001610307565b610d21610e31565b6001805460ff191690557f5db9ee0a495bf2e6ff9c91a7834c1ba4fdd244a5e8aa4e537bd38aeae4b073aa335b6040516001600160a01b03909116815260200160405180910390a1565b610d73610da6565b6001805460ff1916811790557f62e78cea01bee320cd4e420270b5ea74000d11b0c9f74754ebdbfc544b05a25833610d4e565b60015460ff1615610dca5760405163d93c066560e01b815260040160405180910390fd5b565b6002805403610dee57604051633ee5aeb560e01b815260040160405180910390fd5b60028055565b610dfe82826105fb565b610e2d5760405163e2517d3f60e01b81526001600160a01b038216600482015260248101839052604401610358565b5050565b60015460ff16610dca57604051638dfc202b60e01b815260040160405180910390fd5b600060208284031215610e6657600080fd5b81356001600160e01b031981168114610e7e57600080fd5b9392505050565b600060208284031215610e9757600080fd5b5035919050565b60008083601f840112610eb057600080fd5b50813567ffffffffffffffff811115610ec857600080fd5b602083019150836020828501011115610ee057600080fd5b9250929050565b60008060208385031215610efa57600080fd5b823567ffffffffffffffff811115610f1157600080fd5b610f1d85828601610e9e565b90969095509350505050565b6020808252825182820181905260009190848201906040850190845b81811015610f6157835183529284019291840191600101610f45565b50909695505050505050565b60008060408385031215610f8057600080fd5b8235915060208301356001600160a01b0381168114610f9e57600080fd5b809150509250929050565b8481526000602085602084015260018060a01b038516604084015260806060840152835180608085015260005b81811015610ff25785810183015185820160a001528201610fd6565b50600060a0828601015260a0601f19601f8301168501019250505095945050505050565b60008060008060006060868803121561102e57600080fd5b853567ffffffffffffffff8082111561104657600080fd5b61105289838a01610e9e565b909750955060208801359450604088013591508082111561107257600080fd5b5061107f88828901610e9e565b969995985093965092949392505050565b6000806000604084860312156110a557600080fd5b833567ffffffffffffffff8111156110bc57600080fd5b6110c886828701610e9e565b909790965060209590950135949350505050565b8183823760009101908152919050565b81835281816020850137506000828201602090810191909152601f909101601f19169091010190565b6020815260006111296020830184866110ec565b949350505050565b600181811c9082168061114557607f821691505b60208210810361116557634e487b7160e01b600052602260045260246000fd5b50919050565b634e487b7160e01b600052604160045260246000fd5b601f821115610430576000816000526020600020601f850160051c810160208610156111aa5750805b601f850160051c820191505b818110156108b7578281556001016111b6565b815167ffffffffffffffff8111156111e3576111e361116b565b6111f7816111f18454611131565b84611181565b602080601f83116001811461122c57600084156112145750858301515b600019600386901b1c1916600185901b1785556108b7565b600085815260208120601f198616915b8281101561125b5788860151825594840194600190910190840161123c565b50858210156112795787850151600019600388901b60f8161c191681555b5050505050600190811b01905550565b67ffffffffffffffff8311156112a1576112a161116b565b6112b5836112af8354611131565b83611181565b6000601f8411600181146112e957600085156112d15750838201355b600019600387901b1c1916600186901b178355611343565b600083815260209020601f19861690835b8281101561131a57868501358255602094850194600190920191016112fa565b50868210156113375760001960f88860031b161c19848701351681555b505060018560011b0183555b5050505050565b60006001820161136a57634e487b7160e01b600052601160045260246000fd5b5060010190565b84815260606020820152600061138b6060830185876110ec565b90508260408301529594505050505056fea264697066735822122075e60881c838b93c500a5394fada389afe26bba6c0b9f65319b6af1e5d44523e64736f6c63430008180033","opcodes":"PUSH1 0x80 PUSH1 0x40 MSTORE CALLVALUE DUP1 ISZERO PUSH3 0x11 JUMPI PUSH1 0x0 DUP1 REVERT JUMPDEST POP PUSH1 0x40 MLOAD PUSH3 0x156B CODESIZE SUB DUP1 PUSH3 0x156B DUP4 CODECOPY DUP2 ADD PUSH1 0x40 DUP2 SWAP1 MSTORE PUSH3 0x34 SWAP2 PUSH3 0x157 JUMP JUMPDEST PUSH1 0x1 PUSH1 0x2 SSTORE PUSH3 0x46 PUSH1 0x0 DUP3 PUSH3 0xA8 JUMP JUMPDEST POP PUSH3 0x73 PUSH32 0x961D55C77C3196DDB4C0461FF143B345FB217A0E9690C1FD33BD1F2102C4FAA7 DUP3 PUSH3 0xA8 JUMP JUMPDEST POP PUSH3 0xA0 PUSH32 0x21702C8AF46127C7FA207F89D0B0A8441BB32959A0AC7DF790E9AB1A25C98926 DUP3 PUSH3 0xA8 JUMP JUMPDEST POP POP PUSH3 0x189 JUMP JUMPDEST PUSH1 0x0 DUP3 DUP2 MSTORE PUSH1 0x20 DUP2 DUP2 MSTORE PUSH1 0x40 DUP1 DUP4 KECCAK256 PUSH1 0x1 PUSH1 0x1 PUSH1 0xA0 SHL SUB DUP6 AND DUP5 MSTORE SWAP1 SWAP2 MSTORE DUP2 KECCAK256 SLOAD PUSH1 0xFF AND PUSH3 0x14D JUMPI PUSH1 0x0 DUP4 DUP2 MSTORE PUSH1 0x20 DUP2 DUP2 MSTORE PUSH1 0x40 DUP1 DUP4 KECCAK256 PUSH1 0x1 PUSH1 0x1 PUSH1 0xA0 SHL SUB DUP7 AND DUP5 MSTORE SWAP1 SWAP2 MSTORE SWAP1 KECCAK256 DUP1 SLOAD PUSH1 0xFF NOT AND PUSH1 0x1 OR SWAP1 SSTORE PUSH3 0x104 CALLER SWAP1 JUMP JUMPDEST PUSH1 0x1 PUSH1 0x1 PUSH1 0xA0 SHL SUB AND DUP3 PUSH1 0x1 PUSH1 0x1 PUSH1 0xA0 SHL SUB AND DUP5 PUSH32 0x2F8788117E7EFF1D82E926EC794901D17C78024A50270940304540A733656F0D PUSH1 0x40 MLOAD PUSH1 0x40 MLOAD DUP1 SWAP2 SUB SWAP1 LOG4 POP PUSH1 0x1 PUSH3 0x151 JUMP JUMPDEST POP PUSH1 0x0 JUMPDEST SWAP3 SWAP2 POP POP JUMP JUMPDEST PUSH1 0x0 PUSH1 0x20 DUP3 DUP5 SUB SLT ISZERO PUSH3 0x16A JUMPI PUSH1 0x0 DUP1 REVERT JUMPDEST DUP2 MLOAD PUSH1 0x1 PUSH1 0x1 PUSH1 0xA0 SHL SUB DUP2 AND DUP2 EQ PUSH3 0x182 JUMPI PUSH1 0x0 DUP1 REVERT JUMPDEST SWAP4 SWAP3 POP POP POP JUMP JUMPDEST PUSH2 0x13D2 DUP1 PUSH3 0x199 PUSH1 0x0 CODECOPY PUSH1 0x0 RETURN INVALID PUSH1 0x80 PUSH1 0x40 MSTORE CALLVALUE DUP1 ISZERO PUSH2 0x10 JUMPI PUSH1 0x0 DUP1 REVERT JUMPDEST POP PUSH1 0x4 CALLDATASIZE LT PUSH2 0x121 JUMPI PUSH1 0x0 CALLDATALOAD PUSH1 0xE0 SHR DUP1 PUSH4 0x5C975ABB GT PUSH2 0xAD JUMPI DUP1 PUSH4 0xC129EDE1 GT PUSH2 0x71 JUMPI DUP1 PUSH4 0xC129EDE1 EQ PUSH2 0x24F JUMPI DUP1 PUSH4 0xC49BAEBE EQ PUSH2 0x262 JUMPI DUP1 PUSH4 0xC80D5837 EQ PUSH2 0x289 JUMPI DUP1 PUSH4 0xD547741F EQ PUSH2 0x2B0 JUMPI DUP1 PUSH4 0xDC5FC832 EQ PUSH2 0x2C3 JUMPI PUSH1 0x0 DUP1 REVERT JUMPDEST DUP1 PUSH4 0x5C975ABB EQ PUSH2 0x20E JUMPI DUP1 PUSH4 0x8456CB59 EQ PUSH2 0x219 JUMPI DUP1 PUSH4 0x91D14854 EQ PUSH2 0x221 JUMPI DUP1 PUSH4 0x96794ED7 EQ PUSH2 0x234 JUMPI DUP1 PUSH4 0xA217FDDF EQ PUSH2 0x247 JUMPI PUSH1 0x0 DUP1 REVERT JUMPDEST DUP1 PUSH4 0x2F2FF15D GT PUSH2 0xF4 JUMPI DUP1 PUSH4 0x2F2FF15D EQ PUSH2 0x1A8 JUMPI DUP1 PUSH4 0x36568ABE EQ PUSH2 0x1BD JUMPI DUP1 PUSH4 0x3F4BA83A EQ PUSH2 0x1D0 JUMPI DUP1 PUSH4 0x4420F0E5 EQ PUSH2 0x1D8 JUMPI DUP1 PUSH4 0x5B6BEEB9 EQ PUSH2 0x1EB JUMPI PUSH1 0x0 DUP1 REVERT JUMPDEST DUP1 PUSH4 0x1FFC9A7 EQ PUSH2 0x126 JUMPI DUP1 PUSH4 0x125F8974 EQ PUSH2 0x14E JUMPI DUP1 PUSH4 0x248A9CA3 EQ PUSH2 0x165 JUMPI DUP1 PUSH4 0x29D4B37D EQ PUSH2 0x188 JUMPI JUMPDEST PUSH1 0x0 DUP1 REVERT JUMPDEST PUSH2 0x139 PUSH2 0x134 CALLDATASIZE PUSH1 0x4 PUSH2 0xE54 JUMP JUMPDEST PUSH2 0x2D6 JUMP JUMPDEST PUSH1 0x40 MLOAD SWAP1 ISZERO ISZERO DUP2 MSTORE PUSH1 0x20 ADD JUMPDEST PUSH1 0x40 MLOAD DUP1 SWAP2 SUB SWAP1 RETURN JUMPDEST PUSH2 0x157 PUSH1 0x6 SLOAD DUP2 JUMP JUMPDEST PUSH1 0x40 MLOAD SWAP1 DUP2 MSTORE PUSH1 0x20 ADD PUSH2 0x145 JUMP JUMPDEST PUSH2 0x157 PUSH2 0x173 CALLDATASIZE PUSH1 0x4 PUSH2 0xE85 JUMP JUMPDEST PUSH1 0x0 SWAP1 DUP2 MSTORE PUSH1 0x20 DUP2 SWAP1 MSTORE PUSH1 0x40 SWAP1 KECCAK256 PUSH1 0x1 ADD SLOAD SWAP1 JUMP JUMPDEST PUSH2 0x19B PUSH2 0x196 CALLDATASIZE PUSH1 0x4 PUSH2 0xEE7 JUMP JUMPDEST PUSH2 0x30D JUMP JUMPDEST PUSH1 0x40 MLOAD PUSH2 0x145 SWAP2 SWAP1 PUSH2 0xF29 JUMP JUMPDEST PUSH2 0x1BB PUSH2 0x1B6 CALLDATASIZE PUSH1 0x4 PUSH2 0xF6D JUMP JUMPDEST PUSH2 0x3D2 JUMP JUMPDEST STOP JUMPDEST PUSH2 0x1BB PUSH2 0x1CB CALLDATASIZE PUSH1 0x4 PUSH2 0xF6D JUMP JUMPDEST PUSH2 0x3FD JUMP JUMPDEST PUSH2 0x1BB PUSH2 0x435 JUMP JUMPDEST PUSH2 0x139 PUSH2 0x1E6 CALLDATASIZE PUSH1 0x4 PUSH2 0xEE7 JUMP JUMPDEST PUSH2 0x44B JUMP JUMPDEST PUSH2 0x1FE PUSH2 0x1F9 CALLDATASIZE PUSH1 0x4 PUSH2 0xEE7 JUMP JUMPDEST PUSH2 0x47D JUMP JUMPDEST PUSH1 0x40 MLOAD PUSH2 0x145 SWAP5 SWAP4 SWAP3 SWAP2 SWAP1 PUSH2 0xFA9 JUMP JUMPDEST PUSH1 0x1 SLOAD PUSH1 0xFF AND PUSH2 0x139 JUMP JUMPDEST PUSH2 0x1BB PUSH2 0x5E8 JUMP JUMPDEST PUSH2 0x139 PUSH2 0x22F CALLDATASIZE PUSH1 0x4 PUSH2 0xF6D JUMP JUMPDEST PUSH2 0x5FB JUMP JUMPDEST PUSH2 0x1BB PUSH2 0x242 CALLDATASIZE PUSH1 0x4 PUSH2 0x1016 JUMP JUMPDEST PUSH2 0x624 JUMP JUMPDEST PUSH2 0x157 PUSH1 0x0 DUP2 JUMP JUMPDEST PUSH2 0x1BB PUSH2 0x25D CALLDATASIZE PUSH1 0x4 PUSH2 0x1016 JUMP JUMPDEST PUSH2 0x8BF JUMP JUMPDEST PUSH2 0x157 PUSH32 0x21702C8AF46127C7FA207F89D0B0A8441BB32959A0AC7DF790E9AB1A25C98926 DUP2 JUMP JUMPDEST PUSH2 0x157 PUSH32 0x961D55C77C3196DDB4C0461FF143B345FB217A0E9690C1FD33BD1F2102C4FAA7 DUP2 JUMP JUMPDEST PUSH2 0x1BB PUSH2 0x2BE CALLDATASIZE PUSH1 0x4 PUSH2 0xF6D JUMP JUMPDEST PUSH2 0xAE5 JUMP JUMPDEST PUSH2 0x139 PUSH2 0x2D1 CALLDATASIZE PUSH1 0x4 PUSH2 0x1090 JUMP JUMPDEST PUSH2 0xB0A JUMP JUMPDEST PUSH1 0x0 PUSH1 0x1 PUSH1 0x1 PUSH1 0xE0 SHL SUB NOT DUP3 AND PUSH4 0x7965DB0B PUSH1 0xE0 SHL EQ DUP1 PUSH2 0x307 JUMPI POP PUSH4 0x1FFC9A7 PUSH1 0xE0 SHL PUSH1 0x1 PUSH1 0x1 PUSH1 0xE0 SHL SUB NOT DUP4 AND EQ JUMPDEST SWAP3 SWAP2 POP POP JUMP JUMPDEST PUSH1 0x60 PUSH1 0x3 DUP4 DUP4 PUSH1 0x40 MLOAD PUSH2 0x321 SWAP3 SWAP2 SWAP1 PUSH2 0x10DC JUMP JUMPDEST SWAP1 DUP2 MSTORE PUSH1 0x40 MLOAD SWAP1 DUP2 SWAP1 SUB PUSH1 0x20 ADD SWAP1 KECCAK256 PUSH1 0x4 ADD SLOAD PUSH1 0xFF AND PUSH2 0x361 JUMPI DUP3 DUP3 PUSH1 0x40 MLOAD PUSH4 0x7E8D8BB3 PUSH1 0xE0 SHL DUP2 MSTORE PUSH1 0x4 ADD PUSH2 0x358 SWAP3 SWAP2 SWAP1 PUSH2 0x1115 JUMP JUMPDEST PUSH1 0x40 MLOAD DUP1 SWAP2 SUB SWAP1 REVERT JUMPDEST PUSH1 0x4 DUP4 DUP4 PUSH1 0x40 MLOAD PUSH2 0x373 SWAP3 SWAP2 SWAP1 PUSH2 0x10DC JUMP JUMPDEST SWAP1 DUP2 MSTORE PUSH1 0x40 DUP1 MLOAD SWAP2 DUP3 SWAP1 SUB PUSH1 0x20 SWAP1 DUP2 ADD DUP4 KECCAK256 DUP1 SLOAD DUP1 DUP4 MUL DUP6 ADD DUP4 ADD SWAP1 SWAP4 MSTORE DUP3 DUP5 MSTORE SWAP2 SWAP1 DUP4 ADD DUP3 DUP3 DUP1 ISZERO PUSH2 0x3C5 JUMPI PUSH1 0x20 MUL DUP3 ADD SWAP2 SWAP1 PUSH1 0x0 MSTORE PUSH1 0x20 PUSH1 0x0 KECCAK256 SWAP1 JUMPDEST DUP2 SLOAD DUP2 MSTORE PUSH1 0x20 ADD SWAP1 PUSH1 0x1 ADD SWAP1 DUP1 DUP4 GT PUSH2 0x3B1 JUMPI JUMPDEST POP POP POP POP POP SWAP1 POP SWAP3 SWAP2 POP POP JUMP JUMPDEST PUSH1 0x0 DUP3 DUP2 MSTORE PUSH1 0x20 DUP2 SWAP1 MSTORE PUSH1 0x40 SWAP1 KECCAK256 PUSH1 0x1 ADD SLOAD PUSH2 0x3ED DUP2 PUSH2 0xC12 JUMP JUMPDEST PUSH2 0x3F7 DUP4 DUP4 PUSH2 0xC1C JUMP JUMPDEST POP POP POP POP JUMP JUMPDEST PUSH1 0x1 PUSH1 0x1 PUSH1 0xA0 SHL SUB DUP2 AND CALLER EQ PUSH2 0x426 JUMPI PUSH1 0x40 MLOAD PUSH4 0x334BD919 PUSH1 0xE1 SHL DUP2 MSTORE PUSH1 0x4 ADD PUSH1 0x40 MLOAD DUP1 SWAP2 SUB SWAP1 REVERT JUMPDEST PUSH2 0x430 DUP3 DUP3 PUSH2 0xCAE JUMP JUMPDEST POP POP POP JUMP JUMPDEST PUSH1 0x0 PUSH2 0x440 DUP2 PUSH2 0xC12 JUMP JUMPDEST PUSH2 0x448 PUSH2 0xD19 JUMP JUMPDEST POP JUMP JUMPDEST PUSH1 0x0 PUSH1 0x3 DUP4 DUP4 PUSH1 0x40 MLOAD PUSH2 0x45F SWAP3 SWAP2 SWAP1 PUSH2 0x10DC JUMP JUMPDEST SWAP1 DUP2 MSTORE PUSH1 0x40 MLOAD SWAP1 DUP2 SWAP1 SUB PUSH1 0x20 ADD SWAP1 KECCAK256 PUSH1 0x4 ADD SLOAD PUSH1 0xFF AND SWAP1 POP SWAP3 SWAP2 POP POP JUMP JUMPDEST PUSH1 0x0 DUP1 PUSH1 0x0 PUSH1 0x60 PUSH1 0x3 DUP7 DUP7 PUSH1 0x40 MLOAD PUSH2 0x496 SWAP3 SWAP2 SWAP1 PUSH2 0x10DC JUMP JUMPDEST SWAP1 DUP2 MSTORE PUSH1 0x40 MLOAD SWAP1 DUP2 SWAP1 SUB PUSH1 0x20 ADD SWAP1 KECCAK256 PUSH1 0x4 ADD SLOAD PUSH1 0xFF AND PUSH2 0x4CD JUMPI DUP6 DUP6 PUSH1 0x40 MLOAD PUSH4 0x7E8D8BB3 PUSH1 0xE0 SHL DUP2 MSTORE PUSH1 0x4 ADD PUSH2 0x358 SWAP3 SWAP2 SWAP1 PUSH2 0x1115 JUMP JUMPDEST PUSH1 0x0 PUSH1 0x3 DUP8 DUP8 PUSH1 0x40 MLOAD PUSH2 0x4E1 SWAP3 SWAP2 SWAP1 PUSH2 0x10DC JUMP JUMPDEST SWAP1 DUP2 MSTORE PUSH1 0x40 DUP1 MLOAD SWAP2 DUP3 SWAP1 SUB PUSH1 0x20 SWAP1 DUP2 ADD DUP4 KECCAK256 PUSH1 0xA0 DUP5 ADD DUP4 MSTORE DUP1 SLOAD DUP5 MSTORE PUSH1 0x1 DUP2 ADD SLOAD SWAP2 DUP5 ADD SWAP2 SWAP1 SWAP2 MSTORE PUSH1 0x2 DUP2 ADD SLOAD PUSH1 0x1 PUSH1 0x1 PUSH1 0xA0 SHL SUB AND SWAP2 DUP4 ADD SWAP2 SWAP1 SWAP2 MSTORE PUSH1 0x3 DUP2 ADD DUP1 SLOAD PUSH1 0x60 DUP5 ADD SWAP2 SWAP1 PUSH2 0x533 SWAP1 PUSH2 0x1131 JUMP JUMPDEST DUP1 PUSH1 0x1F ADD PUSH1 0x20 DUP1 SWAP2 DIV MUL PUSH1 0x20 ADD PUSH1 0x40 MLOAD SWAP1 DUP2 ADD PUSH1 0x40 MSTORE DUP1 SWAP3 SWAP2 SWAP1 DUP2 DUP2 MSTORE PUSH1 0x20 ADD DUP3 DUP1 SLOAD PUSH2 0x55F SWAP1 PUSH2 0x1131 JUMP JUMPDEST DUP1 ISZERO PUSH2 0x5AC JUMPI DUP1 PUSH1 0x1F LT PUSH2 0x581 JUMPI PUSH2 0x100 DUP1 DUP4 SLOAD DIV MUL DUP4 MSTORE SWAP2 PUSH1 0x20 ADD SWAP2 PUSH2 0x5AC JUMP JUMPDEST DUP3 ADD SWAP2 SWAP1 PUSH1 0x0 MSTORE PUSH1 0x20 PUSH1 0x0 KECCAK256 SWAP1 JUMPDEST DUP2 SLOAD DUP2 MSTORE SWAP1 PUSH1 0x1 ADD SWAP1 PUSH1 0x20 ADD DUP1 DUP4 GT PUSH2 0x58F JUMPI DUP3 SWAP1 SUB PUSH1 0x1F AND DUP3 ADD SWAP2 JUMPDEST POP POP POP SWAP2 DUP4 MSTORE POP POP PUSH1 0x4 SWAP2 SWAP1 SWAP2 ADD SLOAD PUSH1 0xFF AND ISZERO ISZERO PUSH1 0x20 SWAP2 DUP3 ADD MSTORE DUP2 MLOAD SWAP1 DUP3 ADD MLOAD PUSH1 0x40 DUP4 ADD MLOAD PUSH1 0x60 SWAP1 SWAP4 ADD MLOAD SWAP2 SWAP11 SWAP1 SWAP10 POP SWAP2 SWAP8 POP SWAP6 POP SWAP4 POP POP POP POP JUMP JUMPDEST PUSH1 0x0 PUSH2 0x5F3 DUP2 PUSH2 0xC12 JUMP JUMPDEST PUSH2 0x448 PUSH2 0xD6B JUMP JUMPDEST PUSH1 0x0 SWAP2 DUP3 MSTORE PUSH1 0x20 DUP3 DUP2 MSTORE PUSH1 0x40 DUP1 DUP5 KECCAK256 PUSH1 0x1 PUSH1 0x1 PUSH1 0xA0 SHL SUB SWAP4 SWAP1 SWAP4 AND DUP5 MSTORE SWAP2 SWAP1 MSTORE SWAP1 KECCAK256 SLOAD PUSH1 0xFF AND SWAP1 JUMP JUMPDEST PUSH32 0x961D55C77C3196DDB4C0461FF143B345FB217A0E9690C1FD33BD1F2102C4FAA7 PUSH2 0x64E DUP2 PUSH2 0xC12 JUMP JUMPDEST PUSH2 0x656 PUSH2 0xDA6 JUMP JUMPDEST PUSH2 0x65E PUSH2 0xDCC JUMP JUMPDEST PUSH1 0x0 DUP6 SWAP1 SUB PUSH2 0x680 JUMPI PUSH1 0x40 MLOAD PUSH4 0x74919E85 PUSH1 0xE1 SHL DUP2 MSTORE PUSH1 0x4 ADD PUSH1 0x40 MLOAD DUP1 SWAP2 SUB SWAP1 REVERT JUMPDEST DUP4 PUSH2 0x69D JUMPI PUSH1 0x40 MLOAD PUSH3 0x57C037 PUSH1 0xE5 SHL DUP2 MSTORE PUSH1 0x4 ADD PUSH1 0x40 MLOAD DUP1 SWAP2 SUB SWAP1 REVERT JUMPDEST PUSH1 0x3 DUP7 DUP7 PUSH1 0x40 MLOAD PUSH2 0x6AF SWAP3 SWAP2 SWAP1 PUSH2 0x10DC JUMP JUMPDEST SWAP1 DUP2 MSTORE PUSH1 0x40 MLOAD SWAP1 DUP2 SWAP1 SUB PUSH1 0x20 ADD SWAP1 KECCAK256 PUSH1 0x4 ADD SLOAD PUSH1 0xFF AND ISZERO PUSH2 0x6E7 JUMPI DUP6 DUP6 PUSH1 0x40 MLOAD PUSH4 0x25C8F8A9 PUSH1 0xE0 SHL DUP2 MSTORE PUSH1 0x4 ADD PUSH2 0x358 SWAP3 SWAP2 SWAP1 PUSH2 0x1115 JUMP JUMPDEST PUSH1 0x40 MLOAD DUP1 PUSH1 0xA0 ADD PUSH1 0x40 MSTORE DUP1 DUP6 DUP2 MSTORE PUSH1 0x20 ADD TIMESTAMP DUP2 MSTORE PUSH1 0x20 ADD CALLER PUSH1 0x1 PUSH1 0x1 PUSH1 0xA0 SHL SUB AND DUP2 MSTORE PUSH1 0x20 ADD DUP5 DUP5 DUP1 DUP1 PUSH1 0x1F ADD PUSH1 0x20 DUP1 SWAP2 DIV MUL PUSH1 0x20 ADD PUSH1 0x40 MLOAD SWAP1 DUP2 ADD PUSH1 0x40 MSTORE DUP1 SWAP4 SWAP3 SWAP2 SWAP1 DUP2 DUP2 MSTORE PUSH1 0x20 ADD DUP4 DUP4 DUP1 DUP3 DUP5 CALLDATACOPY PUSH1 0x0 SWAP3 ADD SWAP2 SWAP1 SWAP2 MSTORE POP POP POP SWAP1 DUP3 MSTORE POP PUSH1 0x1 PUSH1 0x20 SWAP1 SWAP2 ADD MSTORE PUSH1 0x40 MLOAD PUSH1 0x3 SWAP1 PUSH2 0x761 SWAP1 DUP10 SWAP1 DUP10 SWAP1 PUSH2 0x10DC JUMP JUMPDEST SWAP1 DUP2 MSTORE PUSH1 0x40 DUP1 MLOAD PUSH1 0x20 SWAP3 DUP2 SWAP1 SUB DUP4 ADD SWAP1 KECCAK256 DUP4 MLOAD DUP2 SSTORE SWAP2 DUP4 ADD MLOAD PUSH1 0x1 DUP4 ADD SSTORE DUP3 ADD MLOAD PUSH1 0x2 DUP3 ADD DUP1 SLOAD PUSH1 0x1 PUSH1 0x1 PUSH1 0xA0 SHL SUB NOT AND PUSH1 0x1 PUSH1 0x1 PUSH1 0xA0 SHL SUB SWAP1 SWAP3 AND SWAP2 SWAP1 SWAP2 OR SWAP1 SSTORE PUSH1 0x60 DUP3 ADD MLOAD PUSH1 0x3 DUP3 ADD SWAP1 PUSH2 0x7B7 SWAP1 DUP3 PUSH2 0x11C9 JUMP JUMPDEST POP PUSH1 0x80 SWAP2 SWAP1 SWAP2 ADD MLOAD PUSH1 0x4 SWAP2 DUP3 ADD DUP1 SLOAD PUSH1 0xFF NOT AND SWAP2 ISZERO ISZERO SWAP2 SWAP1 SWAP2 OR SWAP1 SSTORE PUSH1 0x40 MLOAD PUSH2 0x7E3 SWAP1 DUP9 SWAP1 DUP9 SWAP1 PUSH2 0x10DC JUMP JUMPDEST SWAP1 DUP2 MSTORE PUSH1 0x40 MLOAD PUSH1 0x20 SWAP2 DUP2 SWAP1 SUB DUP3 ADD SWAP1 KECCAK256 DUP1 SLOAD PUSH1 0x1 DUP1 DUP3 ADD DUP4 SSTORE PUSH1 0x0 SWAP3 DUP4 MSTORE SWAP3 DUP3 KECCAK256 ADD DUP7 SWAP1 SSTORE PUSH1 0x5 DUP1 SLOAD SWAP3 DUP4 ADD DUP2 SSTORE SWAP1 MSTORE PUSH32 0x36B6384B5ECA791C62761152D0C79BB0604C104A5FB6F4EB0703F3154BB3DB0 ADD PUSH2 0x840 DUP7 DUP9 DUP4 PUSH2 0x1289 JUMP JUMPDEST POP PUSH1 0x6 DUP1 SLOAD SWAP1 PUSH1 0x0 PUSH2 0x851 DUP4 PUSH2 0x134A JUMP JUMPDEST SWAP1 SWAP2 SSTORE POP POP PUSH1 0x40 MLOAD CALLER SWAP1 PUSH2 0x868 SWAP1 DUP9 SWAP1 DUP9 SWAP1 PUSH2 0x10DC JUMP JUMPDEST PUSH1 0x40 MLOAD DUP1 SWAP2 SUB SWAP1 KECCAK256 PUSH32 0xB5CA14A3892B6E4B44499513F5114EDA61C7052AD00F62591109AFBFDF02A4DD DUP7 DUP7 DUP7 TIMESTAMP PUSH1 0x40 MLOAD PUSH2 0x8A5 SWAP5 SWAP4 SWAP3 SWAP2 SWAP1 PUSH2 0x1371 JUMP JUMPDEST PUSH1 0x40 MLOAD DUP1 SWAP2 SUB SWAP1 LOG3 PUSH2 0x8B7 PUSH1 0x1 PUSH1 0x2 SSTORE JUMP JUMPDEST POP POP POP POP POP POP JUMP JUMPDEST PUSH32 0x961D55C77C3196DDB4C0461FF143B345FB217A0E9690C1FD33BD1F2102C4FAA7 PUSH2 0x8E9 DUP2 PUSH2 0xC12 JUMP JUMPDEST PUSH2 0x8F1 PUSH2 0xDA6 JUMP JUMPDEST PUSH2 0x8F9 PUSH2 0xDCC JUMP JUMPDEST PUSH1 0x3 DUP7 DUP7 PUSH1 0x40 MLOAD PUSH2 0x90B SWAP3 SWAP2 SWAP1 PUSH2 0x10DC JUMP JUMPDEST SWAP1 DUP2 MSTORE PUSH1 0x40 MLOAD SWAP1 DUP2 SWAP1 SUB PUSH1 0x20 ADD SWAP1 KECCAK256 PUSH1 0x4 ADD SLOAD PUSH1 0xFF AND PUSH2 0x942 JUMPI DUP6 DUP6 PUSH1 0x40 MLOAD PUSH4 0x7E8D8BB3 PUSH1 0xE0 SHL DUP2 MSTORE PUSH1 0x4 ADD PUSH2 0x358 SWAP3 SWAP2 SWAP1 PUSH2 0x1115 JUMP JUMPDEST DUP4 PUSH2 0x95F JUMPI PUSH1 0x40 MLOAD PUSH3 0x57C037 PUSH1 0xE5 SHL DUP2 MSTORE PUSH1 0x4 ADD PUSH1 0x40 MLOAD DUP1 SWAP2 SUB SWAP1 REVERT JUMPDEST PUSH1 0x0 PUSH1 0x3 DUP8 DUP8 PUSH1 0x40 MLOAD PUSH2 0x973 SWAP3 SWAP2 SWAP1 PUSH2 0x10DC JUMP JUMPDEST SWAP1 DUP2 MSTORE PUSH1 0x40 MLOAD SWAP1 DUP2 SWAP1 SUB PUSH1 0x20 ADD DUP2 KECCAK256 SLOAD SWAP2 POP DUP6 SWAP1 PUSH1 0x3 SWAP1 PUSH2 0x997 SWAP1 DUP11 SWAP1 DUP11 SWAP1 PUSH2 0x10DC JUMP JUMPDEST SWAP1 DUP2 MSTORE PUSH1 0x40 MLOAD SWAP1 DUP2 SWAP1 SUB PUSH1 0x20 ADD DUP2 KECCAK256 SWAP2 SWAP1 SWAP2 SSTORE TIMESTAMP SWAP1 PUSH1 0x3 SWAP1 PUSH2 0x9BC SWAP1 DUP11 SWAP1 DUP11 SWAP1 PUSH2 0x10DC JUMP JUMPDEST SWAP1 DUP2 MSTORE PUSH1 0x20 ADD PUSH1 0x40 MLOAD DUP1 SWAP2 SUB SWAP1 KECCAK256 PUSH1 0x1 ADD DUP2 SWAP1 SSTORE POP CALLER PUSH1 0x3 DUP9 DUP9 PUSH1 0x40 MLOAD PUSH2 0x9E4 SWAP3 SWAP2 SWAP1 PUSH2 0x10DC JUMP JUMPDEST SWAP1 DUP2 MSTORE PUSH1 0x20 ADD PUSH1 0x40 MLOAD DUP1 SWAP2 SUB SWAP1 KECCAK256 PUSH1 0x2 ADD PUSH1 0x0 PUSH2 0x100 EXP DUP2 SLOAD DUP2 PUSH1 0x1 PUSH1 0x1 PUSH1 0xA0 SHL SUB MUL NOT AND SWAP1 DUP4 PUSH1 0x1 PUSH1 0x1 PUSH1 0xA0 SHL SUB AND MUL OR SWAP1 SSTORE POP DUP4 DUP4 PUSH1 0x3 DUP10 DUP10 PUSH1 0x40 MLOAD PUSH2 0xA2D SWAP3 SWAP2 SWAP1 PUSH2 0x10DC JUMP JUMPDEST SWAP1 DUP2 MSTORE PUSH1 0x20 ADD PUSH1 0x40 MLOAD DUP1 SWAP2 SUB SWAP1 KECCAK256 PUSH1 0x3 ADD SWAP2 DUP3 PUSH2 0xA4B SWAP3 SWAP2 SWAP1 PUSH2 0x1289 JUMP JUMPDEST POP PUSH1 0x4 DUP8 DUP8 PUSH1 0x40 MLOAD PUSH2 0xA5E SWAP3 SWAP2 SWAP1 PUSH2 0x10DC JUMP JUMPDEST SWAP1 DUP2 MSTORE PUSH1 0x40 MLOAD SWAP1 DUP2 SWAP1 SUB PUSH1 0x20 SWAP1 DUP2 ADD DUP3 KECCAK256 DUP1 SLOAD PUSH1 0x1 DUP2 ADD DUP3 SSTORE PUSH1 0x0 SWAP2 DUP3 MSTORE SWAP2 SWAP1 KECCAK256 ADD DUP7 SWAP1 SSTORE CALLER SWAP1 PUSH2 0xA92 SWAP1 DUP10 SWAP1 DUP10 SWAP1 PUSH2 0x10DC JUMP JUMPDEST PUSH1 0x40 DUP1 MLOAD SWAP2 DUP3 SWAP1 SUB DUP3 KECCAK256 DUP5 DUP4 MSTORE PUSH1 0x20 DUP4 ADD DUP10 SWAP1 MSTORE TIMESTAMP DUP4 DUP4 ADD MSTORE SWAP1 MLOAD SWAP1 SWAP2 PUSH32 0x490BC6A1051157CD6577FEC5431EB8480A449170AC8D3E24B09B4CE68332584D SWAP2 SWAP1 DUP2 SWAP1 SUB PUSH1 0x60 ADD SWAP1 LOG3 POP PUSH2 0x8B7 PUSH1 0x1 PUSH1 0x2 SSTORE JUMP JUMPDEST PUSH1 0x0 DUP3 DUP2 MSTORE PUSH1 0x20 DUP2 SWAP1 MSTORE PUSH1 0x40 SWAP1 KECCAK256 PUSH1 0x1 ADD SLOAD PUSH2 0xB00 DUP2 PUSH2 0xC12 JUMP JUMPDEST PUSH2 0x3F7 DUP4 DUP4 PUSH2 0xCAE JUMP JUMPDEST PUSH1 0x0 PUSH32 0x21702C8AF46127C7FA207F89D0B0A8441BB32959A0AC7DF790E9AB1A25C98926 PUSH2 0xB36 DUP2 PUSH2 0xC12 JUMP JUMPDEST PUSH1 0x3 DUP6 DUP6 PUSH1 0x40 MLOAD PUSH2 0xB48 SWAP3 SWAP2 SWAP1 PUSH2 0x10DC JUMP JUMPDEST SWAP1 DUP2 MSTORE PUSH1 0x40 MLOAD SWAP1 DUP2 SWAP1 SUB PUSH1 0x20 ADD SWAP1 KECCAK256 PUSH1 0x4 ADD SLOAD PUSH1 0xFF AND PUSH2 0xB7F JUMPI DUP5 DUP5 PUSH1 0x40 MLOAD PUSH4 0x7E8D8BB3 PUSH1 0xE0 SHL DUP2 MSTORE PUSH1 0x4 ADD PUSH2 0x358 SWAP3 SWAP2 SWAP1 PUSH2 0x1115 JUMP JUMPDEST PUSH1 0x0 PUSH1 0x3 DUP7 DUP7 PUSH1 0x40 MLOAD PUSH2 0xB93 SWAP3 SWAP2 SWAP1 PUSH2 0x10DC JUMP JUMPDEST SWAP1 DUP2 MSTORE PUSH1 0x40 MLOAD SWAP1 DUP2 SWAP1 SUB PUSH1 0x20 ADD DUP2 KECCAK256 SLOAD DUP6 DUP2 EQ SWAP5 POP SWAP2 POP CALLER SWAP1 PUSH2 0xBB9 SWAP1 DUP9 SWAP1 DUP9 SWAP1 PUSH2 0x10DC JUMP JUMPDEST PUSH1 0x40 DUP1 MLOAD SWAP2 DUP3 SWAP1 SUB DUP3 KECCAK256 DUP8 DUP4 MSTORE PUSH1 0x20 DUP4 ADD DUP6 SWAP1 MSTORE DUP7 ISZERO ISZERO DUP4 DUP4 ADD MSTORE TIMESTAMP PUSH1 0x60 DUP5 ADD MSTORE SWAP1 MLOAD SWAP1 SWAP2 PUSH32 0xD68860BB4950A771F09310BCE6ACDA69C2CFAA0BDDBC29D36A5B7DD2BA63BAAA SWAP2 SWAP1 DUP2 SWAP1 SUB PUSH1 0x80 ADD SWAP1 LOG3 POP POP SWAP4 SWAP3 POP POP POP JUMP JUMPDEST PUSH2 0x448 DUP2 CALLER PUSH2 0xDF4 JUMP JUMPDEST PUSH1 0x0 PUSH2 0xC28 DUP4 DUP4 PUSH2 0x5FB JUMP JUMPDEST PUSH2 0xCA6 JUMPI PUSH1 0x0 DUP4 DUP2 MSTORE PUSH1 0x20 DUP2 DUP2 MSTORE PUSH1 0x40 DUP1 DUP4 KECCAK256 PUSH1 0x1 PUSH1 0x1 PUSH1 0xA0 SHL SUB DUP7 AND DUP5 MSTORE SWAP1 SWAP2 MSTORE SWAP1 KECCAK256 DUP1 SLOAD PUSH1 0xFF NOT AND PUSH1 0x1 OR SWAP1 SSTORE PUSH2 0xC5E CALLER SWAP1 JUMP JUMPDEST PUSH1 0x1 PUSH1 0x1 PUSH1 0xA0 SHL SUB AND DUP3 PUSH1 0x1 PUSH1 0x1 PUSH1 0xA0 SHL SUB AND DUP5 PUSH32 0x2F8788117E7EFF1D82E926EC794901D17C78024A50270940304540A733656F0D PUSH1 0x40 MLOAD PUSH1 0x40 MLOAD DUP1 SWAP2 SUB SWAP1 LOG4 POP PUSH1 0x1 PUSH2 0x307 JUMP JUMPDEST POP PUSH1 0x0 PUSH2 0x307 JUMP JUMPDEST PUSH1 0x0 PUSH2 0xCBA DUP4 DUP4 PUSH2 0x5FB JUMP JUMPDEST ISZERO PUSH2 0xCA6 JUMPI PUSH1 0x0 DUP4 DUP2 MSTORE PUSH1 0x20 DUP2 DUP2 MSTORE PUSH1 0x40 DUP1 DUP4 KECCAK256 PUSH1 0x1 PUSH1 0x1 PUSH1 0xA0 SHL SUB DUP7 AND DUP1 DUP6 MSTORE SWAP3 MSTORE DUP1 DUP4 KECCAK256 DUP1 SLOAD PUSH1 0xFF NOT AND SWAP1 SSTORE MLOAD CALLER SWAP3 DUP7 SWAP2 PUSH32 0xF6391F5C32D9C69D2A47EA670B442974B53935D1EDC7FD64EB21E047A839171B SWAP2 SWAP1 LOG4 POP PUSH1 0x1 PUSH2 0x307 JUMP JUMPDEST PUSH2 0xD21 PUSH2 0xE31 JUMP JUMPDEST PUSH1 0x1 DUP1 SLOAD PUSH1 0xFF NOT AND SWAP1 SSTORE PUSH32 0x5DB9EE0A495BF2E6FF9C91A7834C1BA4FDD244A5E8AA4E537BD38AEAE4B073AA CALLER JUMPDEST PUSH1 0x40 MLOAD PUSH1 0x1 PUSH1 0x1 PUSH1 0xA0 SHL SUB SWAP1 SWAP2 AND DUP2 MSTORE PUSH1 0x20 ADD PUSH1 0x40 MLOAD DUP1 SWAP2 SUB SWAP1 LOG1 JUMP JUMPDEST PUSH2 0xD73 PUSH2 0xDA6 JUMP JUMPDEST PUSH1 0x1 DUP1 SLOAD PUSH1 0xFF NOT AND DUP2 OR SWAP1 SSTORE PUSH32 0x62E78CEA01BEE320CD4E420270B5EA74000D11B0C9F74754EBDBFC544B05A258 CALLER PUSH2 0xD4E JUMP JUMPDEST PUSH1 0x1 SLOAD PUSH1 0xFF AND ISZERO PUSH2 0xDCA JUMPI PUSH1 0x40 MLOAD PUSH4 0xD93C0665 PUSH1 0xE0 SHL DUP2 MSTORE PUSH1 0x4 ADD PUSH1 0x40 MLOAD DUP1 SWAP2 SUB SWAP1 REVERT JUMPDEST JUMP JUMPDEST PUSH1 0x2 DUP1 SLOAD SUB PUSH2 0xDEE JUMPI PUSH1 0x40 MLOAD PUSH4 0x3EE5AEB5 PUSH1 0xE0 SHL DUP2 MSTORE PUSH1 0x4 ADD PUSH1 0x40 MLOAD DUP1 SWAP2 SUB SWAP1 REVERT JUMPDEST PUSH1 0x2 DUP1 SSTORE JUMP JUMPDEST PUSH2 0xDFE DUP3 DUP3 PUSH2 0x5FB JUMP JUMPDEST PUSH2 0xE2D JUMPI PUSH1 0x40 MLOAD PUSH4 0xE2517D3F PUSH1 0xE0 SHL DUP2 MSTORE PUSH1 0x1 PUSH1 0x1 PUSH1 0xA0 SHL SUB DUP3 AND PUSH1 0x4 DUP3 ADD MSTORE PUSH1 0x24 DUP2 ADD DUP4 SWAP1 MSTORE PUSH1 0x44 ADD PUSH2 0x358 JUMP JUMPDEST POP POP JUMP JUMPDEST PUSH1 0x1 SLOAD PUSH1 0xFF AND PUSH2 0xDCA JUMPI PUSH1 0x40 MLOAD PUSH4 0x8DFC202B PUSH1 0xE0 SHL DUP2 MSTORE PUSH1 0x4 ADD PUSH1 0x40 MLOAD DUP1 SWAP2 SUB SWAP1 REVERT JUMPDEST PUSH1 0x0 PUSH1 0x20 DUP3 DUP5 SUB SLT ISZERO PUSH2 0xE66 JUMPI PUSH1 0x0 DUP1 REVERT JUMPDEST DUP2 CALLDATALOAD PUSH1 0x1 PUSH1 0x1 PUSH1 0xE0 SHL SUB NOT DUP2 AND DUP2 EQ PUSH2 0xE7E JUMPI PUSH1 0x0 DUP1 REVERT JUMPDEST SWAP4 SWAP3 POP POP POP JUMP JUMPDEST PUSH1 0x0 PUSH1 0x20 DUP3 DUP5 SUB SLT ISZERO PUSH2 0xE97 JUMPI PUSH1 0x0 DUP1 REVERT JUMPDEST POP CALLDATALOAD SWAP2 SWAP1 POP JUMP JUMPDEST PUSH1 0x0 DUP1 DUP4 PUSH1 0x1F DUP5 ADD SLT PUSH2 0xEB0 JUMPI PUSH1 0x0 DUP1 REVERT JUMPDEST POP DUP2 CALLDATALOAD PUSH8 0xFFFFFFFFFFFFFFFF DUP2 GT ISZERO PUSH2 0xEC8 JUMPI PUSH1 0x0 DUP1 REVERT JUMPDEST PUSH1 0x20 DUP4 ADD SWAP2 POP DUP4 PUSH1 0x20 DUP3 DUP6 ADD ADD GT ISZERO PUSH2 0xEE0 JUMPI PUSH1 0x0 DUP1 REVERT JUMPDEST SWAP3 POP SWAP3 SWAP1 POP JUMP JUMPDEST PUSH1 0x0 DUP1 PUSH1 0x20 DUP4 DUP6 SUB SLT ISZERO PUSH2 0xEFA JUMPI PUSH1 0x0 DUP1 REVERT JUMPDEST DUP3 CALLDATALOAD PUSH8 0xFFFFFFFFFFFFFFFF DUP2 GT ISZERO PUSH2 0xF11 JUMPI PUSH1 0x0 DUP1 REVERT JUMPDEST PUSH2 0xF1D DUP6 DUP3 DUP7 ADD PUSH2 0xE9E JUMP JUMPDEST SWAP1 SWAP7 SWAP1 SWAP6 POP SWAP4 POP POP POP POP JUMP JUMPDEST PUSH1 0x20 DUP1 DUP3 MSTORE DUP3 MLOAD DUP3 DUP3 ADD DUP2 SWAP1 MSTORE PUSH1 0x0 SWAP2 SWAP1 DUP5 DUP3 ADD SWAP1 PUSH1 0x40 DUP6 ADD SWAP1 DUP5 JUMPDEST DUP2 DUP2 LT ISZERO PUSH2 0xF61 JUMPI DUP4 MLOAD DUP4 MSTORE SWAP3 DUP5 ADD SWAP3 SWAP2 DUP5 ADD SWAP2 PUSH1 0x1 ADD PUSH2 0xF45 JUMP JUMPDEST POP SWAP1 SWAP7 SWAP6 POP POP POP POP POP POP JUMP JUMPDEST PUSH1 0x0 DUP1 PUSH1 0x40 DUP4 DUP6 SUB SLT ISZERO PUSH2 0xF80 JUMPI PUSH1 0x0 DUP1 REVERT JUMPDEST DUP3 CALLDATALOAD SWAP2 POP PUSH1 0x20 DUP4 ADD CALLDATALOAD PUSH1 0x1 PUSH1 0x1 PUSH1 0xA0 SHL SUB DUP2 AND DUP2 EQ PUSH2 0xF9E JUMPI PUSH1 0x0 DUP1 REVERT JUMPDEST DUP1 SWAP2 POP POP SWAP3 POP SWAP3 SWAP1 POP JUMP JUMPDEST DUP5 DUP2 MSTORE PUSH1 0x0 PUSH1 0x20 DUP6 PUSH1 0x20 DUP5 ADD MSTORE PUSH1 0x1 DUP1 PUSH1 0xA0 SHL SUB DUP6 AND PUSH1 0x40 DUP5 ADD MSTORE PUSH1 0x80 PUSH1 0x60 DUP5 ADD MSTORE DUP4 MLOAD DUP1 PUSH1 0x80 DUP6 ADD MSTORE PUSH1 0x0 JUMPDEST DUP2 DUP2 LT ISZERO PUSH2 0xFF2 JUMPI DUP6 DUP2 ADD DUP4 ADD MLOAD DUP6 DUP3 ADD PUSH1 0xA0 ADD MSTORE DUP3 ADD PUSH2 0xFD6 JUMP JUMPDEST POP PUSH1 0x0 PUSH1 0xA0 DUP3 DUP7 ADD ADD MSTORE PUSH1 0xA0 PUSH1 0x1F NOT PUSH1 0x1F DUP4 ADD AND DUP6 ADD ADD SWAP3 POP POP POP SWAP6 SWAP5 POP POP POP POP POP JUMP JUMPDEST PUSH1 0x0 DUP1 PUSH1 0x0 DUP1 PUSH1 0x0 PUSH1 0x60 DUP7 DUP9 SUB SLT ISZERO PUSH2 0x102E JUMPI PUSH1 0x0 DUP1 REVERT JUMPDEST DUP6 CALLDATALOAD PUSH8 0xFFFFFFFFFFFFFFFF DUP1 DUP3 GT ISZERO PUSH2 0x1046 JUMPI PUSH1 0x0 DUP1 REVERT JUMPDEST PUSH2 0x1052 DUP10 DUP4 DUP11 ADD PUSH2 0xE9E JUMP JUMPDEST SWAP1 SWAP8 POP SWAP6 POP PUSH1 0x20 DUP9 ADD CALLDATALOAD SWAP5 POP PUSH1 0x40 DUP9 ADD CALLDATALOAD SWAP2 POP DUP1 DUP3 GT ISZERO PUSH2 0x1072 JUMPI PUSH1 0x0 DUP1 REVERT JUMPDEST POP PUSH2 0x107F DUP9 DUP3 DUP10 ADD PUSH2 0xE9E JUMP JUMPDEST SWAP7 SWAP10 SWAP6 SWAP9 POP SWAP4 SWAP7 POP SWAP3 SWAP5 SWAP4 SWAP3 POP POP POP JUMP JUMPDEST PUSH1 0x0 DUP1 PUSH1 0x0 PUSH1 0x40 DUP5 DUP7 SUB SLT ISZERO PUSH2 0x10A5 JUMPI PUSH1 0x0 DUP1 REVERT JUMPDEST DUP4 CALLDATALOAD PUSH8 0xFFFFFFFFFFFFFFFF DUP2 GT ISZERO PUSH2 0x10BC JUMPI PUSH1 0x0 DUP1 REVERT JUMPDEST PUSH2 0x10C8 DUP7 DUP3 DUP8 ADD PUSH2 0xE9E JUMP JUMPDEST SWAP1 SWAP8 SWAP1 SWAP7 POP PUSH1 0x20 SWAP6 SWAP1 SWAP6 ADD CALLDATALOAD SWAP5 SWAP4 POP POP POP POP JUMP JUMPDEST DUP2 DUP4 DUP3 CALLDATACOPY PUSH1 0x0 SWAP2 ADD SWAP1 DUP2 MSTORE SWAP2 SWAP1 POP JUMP JUMPDEST DUP2 DUP4 MSTORE DUP2 DUP2 PUSH1 0x20 DUP6 ADD CALLDATACOPY POP PUSH1 0x0 DUP3 DUP3 ADD PUSH1 0x20 SWAP1 DUP2 ADD SWAP2 SWAP1 SWAP2 MSTORE PUSH1 0x1F SWAP1 SWAP2 ADD PUSH1 0x1F NOT AND SWAP1 SWAP2 ADD ADD SWAP1 JUMP JUMPDEST PUSH1 0x20 DUP2 MSTORE PUSH1 0x0 PUSH2 0x1129 PUSH1 0x20 DUP4 ADD DUP5 DUP7 PUSH2 0x10EC JUMP JUMPDEST SWAP5 SWAP4 POP POP POP POP JUMP JUMPDEST PUSH1 0x1 DUP2 DUP2 SHR SWAP1 DUP3 AND DUP1 PUSH2 0x1145 JUMPI PUSH1 0x7F DUP3 AND SWAP2 POP JUMPDEST PUSH1 0x20 DUP3 LT DUP2 SUB PUSH2 0x1165 JUMPI PUSH4 0x4E487B71 PUSH1 0xE0 SHL PUSH1 0x0 MSTORE PUSH1 0x22 PUSH1 0x4 MSTORE PUSH1 0x24 PUSH1 0x0 REVERT JUMPDEST POP SWAP2 SWAP1 POP JUMP JUMPDEST PUSH4 0x4E487B71 PUSH1 0xE0 SHL PUSH1 0x0 MSTORE PUSH1 0x41 PUSH1 0x4 MSTORE PUSH1 0x24 PUSH1 0x0 REVERT JUMPDEST PUSH1 0x1F DUP3 GT ISZERO PUSH2 0x430 JUMPI PUSH1 0x0 DUP2 PUSH1 0x0 MSTORE PUSH1 0x20 PUSH1 0x0 KECCAK256 PUSH1 0x1F DUP6 ADD PUSH1 0x5 SHR DUP2 ADD PUSH1 0x20 DUP7 LT ISZERO PUSH2 0x11AA JUMPI POP DUP1 JUMPDEST PUSH1 0x1F DUP6 ADD PUSH1 0x5 SHR DUP3 ADD SWAP2 POP JUMPDEST DUP2 DUP2 LT ISZERO PUSH2 0x8B7 JUMPI DUP3 DUP2 SSTORE PUSH1 0x1 ADD PUSH2 0x11B6 JUMP JUMPDEST DUP2 MLOAD PUSH8 0xFFFFFFFFFFFFFFFF DUP2 GT ISZERO PUSH2 0x11E3 JUMPI PUSH2 0x11E3 PUSH2 0x116B JUMP JUMPDEST PUSH2 0x11F7 DUP2 PUSH2 0x11F1 DUP5 SLOAD PUSH2 0x1131 JUMP JUMPDEST DUP5 PUSH2 0x1181 JUMP JUMPDEST PUSH1 0x20 DUP1 PUSH1 0x1F DUP4 GT PUSH1 0x1 DUP2 EQ PUSH2 0x122C JUMPI PUSH1 0x0 DUP5 ISZERO PUSH2 0x1214 JUMPI POP DUP6 DUP4 ADD MLOAD JUMPDEST PUSH1 0x0 NOT PUSH1 0x3 DUP7 SWAP1 SHL SHR NOT AND PUSH1 0x1 DUP6 SWAP1 SHL OR DUP6 SSTORE PUSH2 0x8B7 JUMP JUMPDEST PUSH1 0x0 DUP6 DUP2 MSTORE PUSH1 0x20 DUP2 KECCAK256 PUSH1 0x1F NOT DUP7 AND SWAP2 JUMPDEST DUP3 DUP2 LT ISZERO PUSH2 0x125B JUMPI DUP9 DUP7 ADD MLOAD DUP3 SSTORE SWAP5 DUP5 ADD SWAP5 PUSH1 0x1 SWAP1 SWAP2 ADD SWAP1 DUP5 ADD PUSH2 0x123C JUMP JUMPDEST POP DUP6 DUP3 LT ISZERO PUSH2 0x1279 JUMPI DUP8 DUP6 ADD MLOAD PUSH1 0x0 NOT PUSH1 0x3 DUP9 SWAP1 SHL PUSH1 0xF8 AND SHR NOT AND DUP2 SSTORE JUMPDEST POP POP POP POP POP PUSH1 0x1 SWAP1 DUP2 SHL ADD SWAP1 SSTORE POP JUMP JUMPDEST PUSH8 0xFFFFFFFFFFFFFFFF DUP4 GT ISZERO PUSH2 0x12A1 JUMPI PUSH2 0x12A1 PUSH2 0x116B JUMP JUMPDEST PUSH2 0x12B5 DUP4 PUSH2 0x12AF DUP4 SLOAD PUSH2 0x1131 JUMP JUMPDEST DUP4 PUSH2 0x1181 JUMP JUMPDEST PUSH1 0x0 PUSH1 0x1F DUP5 GT PUSH1 0x1 DUP2 EQ PUSH2 0x12E9 JUMPI PUSH1 0x0 DUP6 ISZERO PUSH2 0x12D1 JUMPI POP DUP4 DUP3 ADD CALLDATALOAD JUMPDEST PUSH1 0x0 NOT PUSH1 0x3 DUP8 SWAP1 SHL SHR NOT AND PUSH1 0x1 DUP7 SWAP1 SHL OR DUP4 SSTORE PUSH2 0x1343 JUMP JUMPDEST PUSH1 0x0 DUP4 DUP2 MSTORE PUSH1 0x20 SWAP1 KECCAK256 PUSH1 0x1F NOT DUP7 AND SWAP1 DUP4 JUMPDEST DUP3 DUP2 LT ISZERO PUSH2 0x131A JUMPI DUP7 DUP6 ADD CALLDATALOAD DUP3 SSTORE PUSH1 0x20 SWAP5 DUP6 ADD SWAP5 PUSH1 0x1 SWAP1 SWAP3 ADD SWAP2 ADD PUSH2 0x12FA JUMP JUMPDEST POP DUP7 DUP3 LT ISZERO PUSH2 0x1337 JUMPI PUSH1 0x0 NOT PUSH1 0xF8 DUP9 PUSH1 0x3 SHL AND SHR NOT DUP5 DUP8 ADD CALLDATALOAD AND DUP2 SSTORE JUMPDEST POP POP PUSH1 0x1 DUP6 PUSH1 0x1 SHL ADD DUP4 SSTORE JUMPDEST POP POP POP POP POP JUMP JUMPDEST PUSH1 0x0 PUSH1 0x1 DUP3 ADD PUSH2 0x136A JUMPI PUSH4 0x4E487B71 PUSH1 0xE0 SHL PUSH1 0x0 MSTORE PUSH1 0x11 PUSH1 0x4 MSTORE PUSH1 0x24 PUSH1 0x0 REVERT JUMPDEST POP PUSH1 0x1 ADD SWAP1 JUMP JUMPDEST DUP5 DUP2 MSTORE PUSH1 0x60 PUSH1 0x20 DUP3 ADD MSTORE PUSH1 0x0 PUSH2 0x138B PUSH1 0x60 DUP4 ADD DUP6 DUP8 PUSH2 0x10EC JUMP JUMPDEST SWAP1 POP DUP3 PUSH1 0x40 DUP4 ADD MSTORE SWAP6 SWAP5 POP POP POP POP POP JUMP INVALID LOG2 PUSH5 0x6970667358 0x22 SLT KECCAK256 PUSH22 0xE60881C838B93C500A5394FADA389AFE26BBA6C0B9F6 MSTORE8 NOT 0xB6 0xAF 0x1E TSTORE PREVRANDAO MSTORE RETURNDATACOPY PUSH5 0x736F6C6343 STOP ADDMOD XOR STOP CALLER "},"methodIdentifiers":{"DEFAULT_ADMIN_ROLE()":"a217fddf","INGESTION_ROLE()":"c80d5837","VALIDATOR_ROLE()":"c49baebe","datasetExists(string)":"4420f0e5","getHash(string)":"5b6beeb9","getHashHistory(string)":"29d4b37d","getRoleAdmin(bytes32)":"248a9ca3","grantRole(bytes32,address)":"2f2ff15d","hasRole(bytes32,address)":"91d14854","pause()":"8456cb59","paused()":"5c975abb","renounceRole(bytes32,address)":"36568abe","revokeRole(bytes32,address)":"d547741f","storeHash(string,bytes32,string)":"96794ed7","supportsInterface(bytes4)":"01ffc9a7","totalRecords()":"125f8974","unpause()":"3f4ba83a","updateHash(string,bytes32,string)":"c129ede1","validateHash(string,bytes32)":"dc5fc832"}}}}}