{"contracts/DataIntegrity.sol":{"DataIntegrity":{"abi":[{"inputs":[{"internalType":"address","name":"admin","type":"address"}],"stateMutability":"nonpayable","type":"constructor"},{"inputs":[],"name":"AccessControlBadConfirmation","type":"error"},{"inputs":[{"internalType":"address","name":"account","type":"address"},{"internalType":"bytes32","name":"neededRole","type":"bytes32"}],"name":"AccessControlUnauthorizedAccount","type":"error"},{"inputs":[{"internalType":"string","name":"datasetId","type":"string"}],"name":"DatasetAlreadyExists","type":"error"},{"inputs":[{"internalType":"string","name":"datasetId","type":"string"}],"name":"DatasetNotFound","type":"error"},{"inputs":[],"name":"EnforcedPause","type":"error"},{"inputs":[],"name":"ExpectedPause","type":"error"},{"inputs":[],"name":"InvalidDatasetId","type":"error"},{"inputs":[],"name":"InvalidHash","type":"error"},{"inputs":[],"name":"ReentrancyGuardReentrantCall","type":"error"},{"inputs":[{"internalType":"enum DataIntegrity.RecordType","name":"recordType","type":"uint8"},{"internalType":"address","name":"caller","type":"address"}],"name":"UnauthorizedRecordType","type":"error"},{"anonymous":false,"inputs":[{"indexed":true,"internalType":"string","name":"datasetId","type":"string"},{"indexed":false,"internalType":"bytes32","name":"datasetHash","type":"bytes32"},{"indexed":false,"internalType":"enum DataIntegrity.RecordType","name":"recordType","type":"uint8"},{"indexed":false,"internalType":"string","name":"metadataCID","type":"string"},{"indexed":true,"internalType":"address","name":"submitter","type":"address"},{"indexed":false,"internalType":"uint256","name":"timestamp","type":"uint256"}],"name":"HashStored","type":"event"},{"anonymous":false,"inputs":[{"indexed":true,"internalType":"string","name":"datasetId","type":"string"},{"indexed":false,"internalType":"bytes32","name":"oldHash","type":"bytes32"},{"indexed":false,"internalType":"bytes32","name":"newHash","type":"bytes32"},{"indexed":false,"internalType":"enum DataIntegrity.RecordType","name":"recordType","type":"uint8"},{"indexed":true,"internalType":"address","name":"submitter","type":"address"},{"indexed":false,"internalType":"uint256","name":"timestamp","type":"uint256"}],"name":"HashUpdated","type":"event"},{"anonymous":false,"inputs":[{"indexed":true,"internalType":"string","name":"datasetId","type":"string"},{"indexed":false,"internalType":"bytes32","name":"providedHash","type":"bytes32"},{"indexed":false,"internalType":"bytes32","name":"storedHash","type":"bytes32"},{"indexed":false,"internalType":"enum DataIntegrity.RecordType","name":"recordType","type":"uint8"},{"indexed":false,"internalType":"bool","name":"isValid","type":"bool"},{"indexed":true,"internalType":"address","name":"checker","type":"address"},{"indexed":false,"internalType":"uint256","name":"timestamp","type":"uint256"}],"name":"IntegrityChecked","type":"event"},{"anonymous":false,"inputs":[{"indexed":false,"internalType":"address","name":"account","type":"address"}],"name":"Paused","type":"event"},{"anonymous":false,"inputs":[{"indexed":true,"internalType":"bytes32","name":"role","type":"bytes32"},{"indexed":true,"internalType":"bytes32","name":"previousAdminRole","type":"bytes32"},{"indexed":true,"internalType":"bytes32","name":"newAdminRole","type":"bytes32"}],"name":"RoleAdminChanged","type":"event"},{"anonymous":false,"inputs":[{"indexed":true,"internalType":"bytes32","name":"role","type":"bytes32"},{"indexed":true,"internalType":"address","name":"account","type":"address"},{"indexed":true,"internalType":"address","name":"sender","type":"address"}],"name":"RoleGranted","type":"event"},{"anonymous":false,"inputs":[{"indexed":true,"internalType":"bytes32","name":"role","type":"bytes32"},{"indexed":true,"internalType":"address","name":"account","type":"address"},{"indexed":true,"internalType":"address","name":"sender","type":"address"}],"name":"RoleRevoked","type":"event"},{"anonymous":false,"inputs":[{"indexed":false,"internalType":"address","name":"account","type":"address"}],"name":"Unpaused","type":"event"},{"inputs":[],"name":"AUDITOR_ROLE","outputs":[{"internalType":"bytes32","name":"","type":"bytes32"}],"stateMutability":"view","type":"function"},{"inputs":[],"name":"CONSENT_MANAGER_ROLE","outputs":[{"internalType":"bytes32","name":"","type":"bytes32"}],"stateMutability":"view","type":"function"},{"inputs":[],"name":"DEFAULT_ADMIN_ROLE","outputs":[{"internalType":"bytes32","name":"","type":"bytes32"}],"stateMutability":"view","type":"function"},{"inputs":[],"name":"INGESTION_ROLE","outputs":[{"internalType":"bytes32","name":"","type":"bytes32"}],"stateMutability":"view","type":"function"},{"inputs":[],"name":"PHARMACIST_ROLE","outputs":[{"internalType":"bytes32","name":"","type":"bytes32"}],"stateMutability":"view","type":"function"},{"inputs":[],"name":"VALIDATOR_ROLE","outputs":[{"internalType":"bytes32","name":"","type":"bytes32"}],"stateMutability":"view","type":"function"},{"inputs":[{"internalType":"enum DataIntegrity.RecordType","name":"","type":"uint8"}],"name":"countByType","outputs":[{"internalType":"uint256","name":"","type":"uint256"}],"stateMutability":"view","type":"function"},{"inputs":[{"internalType":"string","name":"datasetId","type":"string"}],"name":"datasetExists","outputs":[{"internalType":"bool","name":"","type":"bool"}],"stateMutability":"view","type":"function"},{"inputs":[],"name":"getAuditSummary","outputs":[{"internalType":"uint256","name":"labResults","type":"uint256"},{"internalType":"uint256","name":"diagnoses","type":"uint256"},{"internalType":"uint256","name":"prescriptions","type":"uint256"},{"internalType":"uint256","name":"consentForms","type":"uint256"},{"internalType":"uint256","name":"imagingRecords","type":"uint256"},{"internalType":"uint256","name":"total","type":"uint256"}],"stateMutability":"view","type":"function"},{"inputs":[{"internalType":"string","name":"datasetId","type":"string"}],"name":"getHash","outputs":[{"internalType":"bytes32","name":"datasetHash","type":"bytes32"},{"internalType":"uint256","name":"timestamp","type":"uint256"},{"internalType":"address","name":"submitter","type":"address"},{"internalType":"string","name":"metadataCID","type":"string"},{"internalType":"enum DataIntegrity.RecordType","name":"recordType","type":"uint8"}],"stateMutability":"view","type":"function"},{"inputs":[{"internalType":"string","name":"datasetId","type":"string"}],"name":"getHashHistory","outputs":[{"internalType":"bytes32[]","name":"","type":"bytes32[]"}],"stateMutability":"view","type":"function"},{"inputs":[{"internalType":"bytes32","name":"role","type":"bytes32"}],"name":"getRoleAdmin","outputs":[{"internalType":"bytes32","name":"","type":"bytes32"}],"stateMutability":"view","type":"function"},{"inputs":[{"internalType":"bytes32","name":"role","type":"bytes32"},{"internalType":"address","name":"account","type":"address"}],"name":"grantRole","outputs":[],"stateMutability":"nonpayable","type":"function"},{"inputs":[{"internalType":"bytes32","name":"role","type":"bytes32"},{"internalType":"address","name":"account","type":"address"}],"name":"hasRole","outputs":[{"internalType":"bool","name":"","type":"bool"}],"stateMutability":"view","type":"function"},{"inputs":[],"name":"pause","outputs":[],"stateMutability":"nonpayable","type":"function"},{"inputs":[],"name":"paused","outputs":[{"internalType":"bool","name":"","type":"bool"}],"stateMutability":"view","type":"function"},{"inputs":[{"internalType":"bytes32","name":"role","type":"bytes32"},{"internalType":"address","name":"callerConfirmation","type":"address"}],"name":"renounceRole","outputs":[],"stateMutability":"nonpayable","type":"function"},{"inputs":[{"internalType":"bytes32","name":"role","type":"bytes32"},{"internalType":"address","name":"account","type":"address"}],"name":"revokeRole","outputs":[],"stateMutability":"nonpayable","type":"function"},{"inputs":[{"internalType":"string","name":"datasetId","type":"string"},{"internalType":"bytes32","name":"datasetHash","type":"bytes32"},{"internalType":"string","name":"metadataCID","type":"string"},{"internalType":"enum DataIntegrity.RecordType","name":"recordType","type":"uint8"}],"name":"storeHash","outputs":[],"stateMutability":"nonpayable","type":"function"},{"inputs":[{"internalType":"bytes4","name":"interfaceId","type":"bytes4"}],"name":"supportsInterface","outputs":[{"internalType":"bool","name":"","type":"bool"}],"stateMutability":"view","type":"function"},{"inputs":[],"name":"totalRecords","outputs":[{"internalType":"uint256","name":"","type":"uint256"}],"stateMutability":"view","type":"function"},{"inputs":[],"name":"unpause","outputs":[],"stateMutability":"nonpayable","type":"function"},{"inputs":[{"internalType":"string","name":"datasetId","type":"string"},{"internalType":"bytes32","name":"newHash","type":"bytes32"},{"internalType":"string","name":"metadataCID","type":"string"}],"name":"updateHash","outputs":[],"stateMutability":"nonpayable","type":"function"},{"inputs":[{"internalType":"string","name":"datasetId","type":"string"},{"internalType":"bytes32","name":"hashToValidate","type":"bytes32"}],"name":"validateHash","outputs":[{"internalType":"bool","name":"isValid","type":"bool"}],"stateMutability":"nonpayable","type":"function"}],"evm":{"bytecode":{"linkReferences":{},"object":"60806040523480156200001157600080fd5b5060405162001b6d38038062001b6d8339810160408190526200003491620001de565b6001600255620000466000826200012f565b50620000737f961d55c77c3196ddb4c0461ff143b345fb217a0e9690c1fd33bd1f2102c4faa7826200012f565b50620000a07f21702c8af46127c7fa207f89d0b0a8441bb32959a0ac7df790e9ab1a25c98926826200012f565b50620000cd7fc2d498fa6734073871a6dde33c56174c52423804118e0d5b66171fad3494de68826200012f565b50620000fa7fc7b520d83ee7a61ea89b49f68cb90c31178aa99dd689d663d9c8fa388a862bc2826200012f565b50620001277f59a1c48e5837ad7a7f3dcedcbe129bf3249ec4fbf651fd4f5e2600ead39fe2f5826200012f565b505062000210565b6000828152602081815260408083206001600160a01b038516845290915281205460ff16620001d4576000838152602081815260408083206001600160a01b03861684529091529020805460ff191660011790556200018b3390565b6001600160a01b0316826001600160a01b0316847f2f8788117e7eff1d82e926ec794901d17c78024a50270940304540a733656f0d60405160405180910390a4506001620001d8565b5060005b92915050565b600060208284031215620001f157600080fd5b81516001600160a01b03811681146200020957600080fd5b9392505050565b61194d80620002206000396000f3fe608060405234801561001057600080fd5b50600436106101585760003560e01c80636e1d616e116100c3578063c49baebe1161007c578063c49baebe14610316578063c532d9fa1461033d578063c80d583714610364578063cc0ebd981461038b578063d547741f146103b2578063dc5fc832146103c557600080fd5b80636e1d616e146102995780638456cb59146102c057806391d14854146102c8578063a217fddf146102db578063b3eadb2d146102e3578063c129ede11461030357600080fd5b80632f2ff15d116101155780632f2ff15d1461022957806336568abe1461023c5780633f4ba83a1461024f5780634420f0e5146102575780635b6beeb91461026a5780635c975abb1461028e57600080fd5b806301ffc9a71461015d57806306ff74ec1461018557806307f5aa99146101ba578063125f8974146101cf578063248a9ca3146101e657806329d4b37d14610209575b600080fd5b61017061016b366004611246565b6103d8565b60405190151581526020015b60405180910390f35b61018d61040f565b604080519687526020870195909552938501929092526060840152608083015260a082015260c00161017c565b6101cd6101c83660046112d4565b61050b565b005b6101d860075481565b60405190815260200161017c565b6101d86101f436600461135d565b60009081526020819052604090206001015490565b61021c610217366004611376565b61082e565b60405161017c91906113b8565b6101cd6102373660046113fc565b6108f0565b6101cd61024a3660046113fc565b61091b565b6101cd610953565b610170610265366004611376565b610969565b61027d610278366004611376565b6109a1565b60405161017c959493929190611470565b60015460ff16610170565b6101d87f59a1c48e5837ad7a7f3dcedcbe129bf3249ec4fbf651fd4f5e2600ead39fe2f581565b6101cd610b52565b6101706102d63660046113fc565b610b65565b6101d8600081565b6101d86102f13660046114eb565b60056020526000908152604090205481565b6101cd610311366004611506565b610b8e565b6101d87f21702c8af46127c7fa207f89d0b0a8441bb32959a0ac7df790e9ab1a25c9892681565b6101d87fc2d498fa6734073871a6dde33c56174c52423804118e0d5b66171fad3494de6881565b6101d87f961d55c77c3196ddb4c0461ff143b345fb217a0e9690c1fd33bd1f2102c4faa781565b6101d87fc7b520d83ee7a61ea89b49f68cb90c31178aa99dd689d663d9c8fa388a862bc281565b6101cd6103c03660046113fc565b610dca565b6101706103d3366004611580565b610def565b60006001600160e01b03198216637965db0b60e01b148061040957506301ffc9a760e01b6001600160e01b03198316145b92915050565b6000806000806000807f59a1c48e5837ad7a7f3dcedcbe129bf3249ec4fbf651fd4f5e2600ead39fe2f561044281610f20565b5050600560205250507f05b8ccbb9d4d8fb16ea74ce3c29a41f1b461fbdaff4714a0d9a8eb05499746bc547f1471eb6eb2c5e789fc3de43f8ce62938c7d1836ec861730447e2ada8fd81017b547f89832631fb3c3307a103ba2c84ab569c64d6182a18893dcd163f0f1c2090733a547fa9bc9a3a348c357ba16b37005d7e6b3236198c0e939f4af8c5f19b8deeb8ebc05460046000527f3eec716f11ba9e820c81ca75eb978ffb45831ef8b7a53e5e422c26008e1ca6d554600754949893975091955093509190565b610513610f2a565b61051b610f50565b600085900361053d576040516374919e8560e11b815260040160405180910390fd5b8361055a576040516257c03760e51b815260040160405180910390fd5b6003868660405161056c9291906115cc565b9081526040519081900360200190206004015460ff61010090910416156105b35785856040516325c8f8a960e01b81526004016105aa929190611605565b60405180910390fd5b6105bc81610f78565b6040518060c00160405280858152602001428152602001336001600160a01b0316815260200184848080601f01602080910402602001604051908101604052809392919081815260200183838082843760009201919091525050509082525060200182600481111561063057610630611438565b8152600160209091015260405160039061064d90899089906115cc565b9081526040805160209281900383019020835181559183015160018301558201516002820180546001600160a01b0319166001600160a01b03909216919091179055606082015160038201906106a390826116b9565b5060808201518160040160006101000a81548160ff021916908360048111156106ce576106ce611438565b021790555060a09190910151600491820180549115156101000261ff001990921691909117905560405161070590889088906115cc565b9081526040516020918190038201902080546001808201835560009283529282200186905560068054928301815590527ff652222313e28459528d920b65115c16c04f3efc82aaedc97be59f3f377c0d3f01610762868883611779565b506005600082600481111561077957610779611438565b600481111561078a5761078a611438565b815260200190815260200160002060008154809291906107a990611839565b9091555050600780549060006107be83611839565b909155505060405133906107d590889088906115cc565b60405180910390207fc28198440681fdc04a517125a59af1bf43b0ce70eaf796a67536746f325669028684878742604051610814959493929190611860565b60405180910390a36108266001600255565b505050505050565b6060600383836040516108429291906115cc565b9081526040519081900360200190206004015460ff6101009091041661087f578282604051637e8d8bb360e01b81526004016105aa929190611605565b600483836040516108919291906115cc565b90815260408051918290036020908101832080548083028501830190935282845291908301828280156108e357602002820191906000526020600020905b8154815260200190600101908083116108cf575b5050505050905092915050565b60008281526020819052604090206001015461090b81610f20565b610915838361105c565b50505050565b6001600160a01b03811633146109445760405163334bd91960e11b815260040160405180910390fd5b61094e82826110ee565b505050565b600061095e81610f20565b610966611159565b50565b60006003838360405161097d9291906115cc565b9081526040519081900360200190206004015460ff61010090910416905092915050565b600080600060606000600387876040516109bc9291906115cc565b9081526040519081900360200190206004015460ff610100909104166109f9578686604051637e8d8bb360e01b81526004016105aa929190611605565b600060038888604051610a0d9291906115cc565b90815260408051918290036020908101832060c0840183528054845260018101549184019190915260028101546001600160a01b031691830191909152600381018054606084019190610a5f90611637565b80601f0160208091040260200160405190810160405280929190818152602001828054610a8b90611637565b8015610ad85780601f10610aad57610100808354040283529160200191610ad8565b820191906000526020600020905b815481529060010190602001808311610abb57829003601f168201915b505050918352505060048281015460209092019160ff1690811115610aff57610aff611438565b6004811115610b1057610b10611438565b815260049190910154610100900460ff16151560209182015281519082015160408301516060840151608090940151929c919b50995091975095509350505050565b6000610b5d81610f20565b6109666111ab565b6000918252602082815260408084206001600160a01b0393909316845291905290205460ff1690565b610b96610f2a565b610b9e610f50565b60038585604051610bb09291906115cc565b9081526040519081900360200190206004015460ff61010090910416610bed578484604051637e8d8bb360e01b81526004016105aa929190611605565b82610c0a576040516257c03760e51b815260040160405180910390fd5b600060038686604051610c1e9291906115cc565b9081526040519081900360200190206004015460ff169050610c3f81610f78565b600060038787604051610c539291906115cc565b9081526040519081900360200181205491508590600390610c77908a908a906115cc565b908152604051908190036020018120919091554290600390610c9c908a908a906115cc565b9081526020016040518091039020600101819055503360038888604051610cc49291906115cc565b908152602001604051809103902060020160006101000a8154816001600160a01b0302191690836001600160a01b03160217905550838360038989604051610d0d9291906115cc565b90815260200160405180910390206003019182610d2b929190611779565b5060048787604051610d3e9291906115cc565b908152604051908190036020908101822080546001810182556000918252919020018690553390610d7290899089906115cc565b60405180910390207fd18fdaa72bfab2ee0ff5ac52fba4d4811522f88ef81a78910468c242d0b329fd83888642604051610daf9493929190611899565b60405180910390a35050610dc36001600255565b5050505050565b600082815260208190526040902060010154610de581610f20565b61091583836110ee565b60007f21702c8af46127c7fa207f89d0b0a8441bb32959a0ac7df790e9ab1a25c98926610e1b81610f20565b60038585604051610e2d9291906115cc565b9081526040519081900360200190206004015460ff61010090910416610e6a578484604051637e8d8bb360e01b81526004016105aa929190611605565b600060038686604051610e7e9291906115cc565b908152604051908190036020018120549150600090600390610ea390899089906115cc565b90815260405190819003602001812060040154838714955060ff1691503390610ecf90899089906115cc565b60405180910390207f1c3a0af2a2e78f808ef89e05939e3c25c11ea86835622bb6f93f17f289f358e68785858942604051610f0e9594939291906118c3565b60405180910390a35050509392505050565b61096681336111e6565b60015460ff1615610f4e5760405163d93c066560e01b815260040160405180910390fd5b565b6002805403610f7257604051633ee5aeb560e01b815260040160405180910390fd5b60028055565b610f83600033610b65565b15610f8b5750565b6002816004811115610f9f57610f9f611438565b03610fef57610fce7fc2d498fa6734073871a6dde33c56174c52423804118e0d5b66171fad3494de6833610b65565b6109665780336040516326558c4560e21b81526004016105aa9291906118f1565b600381600481111561100357611003611438565b0361103257610fce7fc7b520d83ee7a61ea89b49f68cb90c31178aa99dd689d663d9c8fa388a862bc233610b65565b610fce7f961d55c77c3196ddb4c0461ff143b345fb217a0e9690c1fd33bd1f2102c4faa733610b65565b60006110688383610b65565b6110e6576000838152602081815260408083206001600160a01b03861684529091529020805460ff1916600117905561109e3390565b6001600160a01b0316826001600160a01b0316847f2f8788117e7eff1d82e926ec794901d17c78024a50270940304540a733656f0d60405160405180910390a4506001610409565b506000610409565b60006110fa8383610b65565b156110e6576000838152602081815260408083206001600160a01b0386168085529252808320805460ff1916905551339286917ff6391f5c32d9c69d2a47ea670b442974b53935d1edc7fd64eb21e047a839171b9190a4506001610409565b611161611223565b6001805460ff191690557f5db9ee0a495bf2e6ff9c91a7834c1ba4fdd244a5e8aa4e537bd38aeae4b073aa335b6040516001600160a01b03909116815260200160405180910390a1565b6111b3610f2a565b6001805460ff1916811790557f62e78cea01bee320cd4e420270b5ea74000d11b0c9f74754ebdbfc544b05a2583361118e565b6111f08282610b65565b61121f5760405163e2517d3f60e01b81526001600160a01b0382166004820152602481018390526044016105aa565b5050565b60015460ff16610f4e57604051638dfc202b60e01b815260040160405180910390fd5b60006020828403121561125857600080fd5b81356001600160e01b03198116811461127057600080fd5b9392505050565b60008083601f84011261128957600080fd5b50813567ffffffffffffffff8111156112a157600080fd5b6020830191508360208285010111156112b957600080fd5b9250929050565b8035600581106112cf57600080fd5b919050565b600080600080600080608087890312156112ed57600080fd5b863567ffffffffffffffff8082111561130557600080fd5b6113118a838b01611277565b909850965060208901359550604089013591508082111561133157600080fd5b5061133e89828a01611277565b90945092506113519050606088016112c0565b90509295509295509295565b60006020828403121561136f57600080fd5b5035919050565b6000806020838503121561138957600080fd5b823567ffffffffffffffff8111156113a057600080fd5b6113ac85828601611277565b90969095509350505050565b6020808252825182820181905260009190848201906040850190845b818110156113f0578351835292840192918401916001016113d4565b50909695505050505050565b6000806040838503121561140f57600080fd5b8235915060208301356001600160a01b038116811461142d57600080fd5b809150509250929050565b634e487b7160e01b600052602160045260246000fd5b6005811061146c57634e487b7160e01b600052602160045260246000fd5b9052565b8581526000602086602084015260018060a01b038616604084015260a0606084015284518060a085015260005b818110156114b95786810183015185820160c00152820161149d565b50600060c0828601015260c0601f19601f830116850101925050506114e1608083018461144e565b9695505050505050565b6000602082840312156114fd57600080fd5b611270826112c0565b60008060008060006060868803121561151e57600080fd5b853567ffffffffffffffff8082111561153657600080fd5b61154289838a01611277565b909750955060208801359450604088013591508082111561156257600080fd5b5061156f88828901611277565b969995985093965092949392505050565b60008060006040848603121561159557600080fd5b833567ffffffffffffffff8111156115ac57600080fd5b6115b886828701611277565b909790965060209590950135949350505050565b8183823760009101908152919050565b81835281816020850137506000828201602090810191909152601f909101601f19169091010190565b6020815260006116196020830184866115dc565b949350505050565b634e487b7160e01b600052604160045260246000fd5b600181811c9082168061164b57607f821691505b60208210810361166b57634e487b7160e01b600052602260045260246000fd5b50919050565b601f82111561094e576000816000526020600020601f850160051c8101602086101561169a5750805b601f850160051c820191505b81811015610826578281556001016116a6565b815167ffffffffffffffff8111156116d3576116d3611621565b6116e7816116e18454611637565b84611671565b602080601f83116001811461171c57600084156117045750858301515b600019600386901b1c1916600185901b178555610826565b600085815260208120601f198616915b8281101561174b5788860151825594840194600190910190840161172c565b50858210156117695787850151600019600388901b60f8161c191681555b5050505050600190811b01905550565b67ffffffffffffffff83111561179157611791611621565b6117a58361179f8354611637565b83611671565b6000601f8411600181146117d957600085156117c15750838201355b600019600387901b1c1916600186901b178355610dc3565b600083815260209020601f19861690835b8281101561180a57868501358255602094850194600190920191016117ea565b50868210156118275760001960f88860031b161c19848701351681555b505060018560011b0183555050505050565b60006001820161185957634e487b7160e01b600052601160045260246000fd5b5060010190565b858152611870602082018661144e565b6080604082015260006118876080830185876115dc565b90508260608301529695505050505050565b84815260208101849052608081016118b4604083018561144e565b82606083015295945050505050565b8581526020810185905260a081016118de604083018661144e565b9215156060820152608001529392505050565b604081016118ff828561144e565b6001600160a01b03929092166020919091015291905056fea2646970667358221220a951f267cdd32ade442fc74460d0bb06cbc11f895d1833a9e36560cd0958d17264736f6c63430008180033","opcodes":"PUSH1 0x80 PUSH1 0x40 MSTORE CALLVALUE DUP1 ISZERO PUSH3 0x11 JUMPI PUSH1 0x0 DUP1 REVERT JUMPDEST POP PUSH1 0x40 MLOAD PUSH3 0x1B6D CODESIZE SUB DUP1 PUSH3 0x1B6D DUP4 CODECOPY DUP2 ADD PUSH1 0x40 DUP2 SWAP1 MSTORE PUSH3 0x34 SWAP2 PUSH3 0x1DE JUMP JUMPDEST PUSH1 0x1 PUSH1 0x2 SSTORE PUSH3 0x46 PUSH1 0x0 DUP3 PUSH3 0x12F JUMP JUMPDEST POP PUSH3 0x73 PUSH32 0x961D55C77C3196DDB4C0461FF143B345FB217A0E9690C1FD33BD1F2102C4FAA7 DUP3 PUSH3 0x12F JUMP JUMPDEST POP PUSH3 0xA0 PUSH32 0x21702C8AF46127C7FA207F89D0B0A8441BB32959A0AC7DF790E9AB1A25C98926 DUP3 PUSH3 0x12F JUMP JUMPDEST POP PUSH3 0xCD PUSH32 0xC2D498FA6734073871A6DDE33C56174C52423804118E0D5B66171FAD3494DE68 DUP3 PUSH3 0x12F JUMP JUMPDEST POP PUSH3 0xFA PUSH32 0xC7B520D83EE7A61EA89B49F68CB90C31178AA99DD689D663D9C8FA388A862BC2 DUP3 PUSH3 0x12F JUMP JUMPDEST POP PUSH3 0x127 PUSH32 0x59A1C48E5837AD7A7F3DCEDCBE129BF3249EC4FBF651FD4F5E2600EAD39FE2F5 DUP3 PUSH3 0x12F JUMP JUMPDEST POP POP PUSH3 0x210 JUMP JUMPDEST PUSH1 0x0 DUP3 DUP2 MSTORE PUSH1 0x20 DUP2 DUP2 MSTORE PUSH1 0x40 DUP1 DUP4 KECCAK256 PUSH1 0x1 PUSH1 0x1 PUSH1 0xA0 SHL SUB DUP6 AND DUP5 MSTORE SWAP1 SWAP2 MSTORE DUP2 KECCAK256 SLOAD PUSH1 0xFF AND PUSH3 0x1D4 JUMPI PUSH1 0x0 DUP4 DUP2 MSTORE PUSH1 0x20 DUP2 DUP2 MSTORE PUSH1 0x40 DUP1 DUP4 KECCAK256 PUSH1 0x1 PUSH1 0x1 PUSH1 0xA0 SHL SUB DUP7 AND DUP5 MSTORE SWAP1 SWAP2 MSTORE SWAP1 KECCAK256 DUP1 SLOAD PUSH1 0xFF NOT AND PUSH1 0x1 OR SWAP1 SSTORE PUSH3 0x18B CALLER SWAP1 JUMP JUMPDEST PUSH1 0x1 PUSH1 0x1 PUSH1 0xA0 SHL SUB AND DUP3 PUSH1 0x1 PUSH1 0x1 PUSH1 0xA0 SHL SUB AND DUP5 PUSH32 0x2F8788117E7EFF1D82E926EC794901D17C78024A50270940304540A733656F0D PUSH1 0x40 MLOAD PUSH1 0x40 MLOAD DUP1 SWAP2 SUB SWAP1 LOG4 POP PUSH1 0x1 PUSH3 0x1D8 JUMP JUMPDEST POP PUSH1 0x0 JUMPDEST SWAP3 SWAP2 POP POP JUMP JUMPDEST PUSH1 0x0 PUSH1 0x20 DUP3 DUP5 SUB SLT ISZERO PUSH3 0x1F1 JUMPI PUSH1 0x0 DUP1 REVERT JUMPDEST DUP2 MLOAD PUSH1 0x1 PUSH1 0x1 PUSH1 0xA0 SHL SUB DUP2 AND DUP2 EQ PUSH3 0x209 JUMPI PUSH1 0x0 DUP1 REVERT JUMPDEST SWAP4 SWAP3 POP POP POP JUMP JUMPDEST PUSH2 0x194D DUP1 PUSH3 0x220 PUSH1 0x0 CODECOPY PUSH1 0x0 RETURN INVALID PUSH1 0x80 PUSH1 0x40 MSTORE CALLVALUE DUP1 ISZERO PUSH2 0x10 JUMPI PUSH1 0x0 DUP1 REVERT JUMPDEST POP PUSH1 0x4 CALLDATASIZE LT PUSH2 0x158 JUMPI PUSH1 0x0 CALLDATALOAD PUSH1 0xE0 SHR DUP1 PUSH4 0x6E1D616E GT PUSH2 0xC3 JUMPI DUP1 PUSH4 0xC49BAEBE GT PUSH2 0x7C JUMPI DUP1 PUSH4 0xC49BAEBE EQ PUSH2 0x316 JUMPI DUP1 PUSH4 0xC532D9FA EQ PUSH2 0x33D JUMPI DUP1 PUSH4 0xC80D5837 EQ PUSH2 0x364 JUMPI DUP1 PUSH4 0xCC0EBD98 EQ PUSH2 0x38B JUMPI DUP1 PUSH4 0xD547741F EQ PUSH2 0x3B2 JUMPI DUP1 PUSH4 0xDC5FC832 EQ PUSH2 0x3C5 JUMPI PUSH1 0x0 DUP1 REVERT JUMPDEST DUP1 PUSH4 0x6E1D616E EQ PUSH2 0x299 JUMPI DUP1 PUSH4 0x8456CB59 EQ PUSH2 0x2C0 JUMPI DUP1 PUSH4 0x91D14854 EQ PUSH2 0x2C8 JUMPI DUP1 PUSH4 0xA217FDDF EQ PUSH2 0x2DB JUMPI DUP1 PUSH4 0xB3EADB2D EQ PUSH2 0x2E3 JUMPI DUP1 PUSH4 0xC129EDE1 EQ PUSH2 0x303 JUMPI PUSH1 0x0 DUP1 REVERT JUMPDEST DUP1 PUSH4 0x2F2FF15D GT PUSH2 0x115 JUMPI DUP1 PUSH4 0x2F2FF15D EQ PUSH2 0x229 JUMPI DUP1 PUSH4 0x36568ABE EQ PUSH2 0x23C JUMPI DUP1 PUSH4 0x3F4BA83A EQ PUSH2 0x24F JUMPI DUP1 PUSH4 0x4420F0E5 EQ PUSH2 0x257 JUMPI DUP1 PUSH4 0x5B6BEEB9 EQ PUSH2 0x26A JUMPI DUP1 PUSH4 0x5C975ABB EQ PUSH2 0x28E JUMPI PUSH1 0x0 DUP1 REVERT JUMPDEST DUP1 PUSH4 0x1FFC9A7 EQ PUSH2 0x15D JUMPI DUP1 PUSH4 0x6FF74EC EQ PUSH2 0x185 JUMPI DUP1 PUSH4 0x7F5AA99 EQ PUSH2 0x1BA JUMPI DUP1 PUSH4 0x125F8974 EQ PUSH2 0x1CF JUMPI DUP1 PUSH4 0x248A9CA3 EQ PUSH2 0x1E6 JUMPI DUP1 PUSH4 0x29D4B37D EQ PUSH2 0x209 JUMPI JUMPDEST PUSH1 0x0 DUP1 REVERT JUMPDEST PUSH2 0x170 PUSH2 0x16B CALLDATASIZE PUSH1 0x4 PUSH2 0x1246 JUMP JUMPDEST PUSH2 0x3D8 JUMP JUMPDEST PUSH1 0x40 MLOAD SWAP1 ISZERO ISZERO DUP2 MSTORE PUSH1 0x20 ADD JUMPDEST PUSH1 0x40 MLOAD DUP1 SWAP2 SUB SWAP1 RETURN JUMPDEST PUSH2 0x18D PUSH2 0x40F JUMP JUMPDEST PUSH1 0x40 DUP1 MLOAD SWAP7 DUP8 MSTORE PUSH1 0x20 DUP8 ADD SWAP6 SWAP1 SWAP6 MSTORE SWAP4 DUP6 ADD SWAP3 SWAP1 SWAP3 MSTORE PUSH1 0x60 DUP5 ADD MSTORE PUSH1 0x80 DUP4 ADD MSTORE PUSH1 0xA0 DUP3 ADD MSTORE PUSH1 0xC0 ADD PUSH2 0x17C JUMP JUMPDEST PUSH2 0x1CD PUSH2 0x1C8 CALLDATASIZE PUSH1 0x4 PUSH2 0x12D4 JUMP JUMPDEST PUSH2 0x50B JUMP JUMPDEST STOP JUMPDEST PUSH2 0x1D8 PUSH1 0x7 SLOAD DUP2 JUMP JUMPDEST PUSH1 0x40 MLOAD SWAP1 DUP2 MSTORE PUSH1 0x20 ADD PUSH2 0x17C JUMP JUMPDEST PUSH2 0x1D8 PUSH2 0x1F4 CALLDATASIZE PUSH1 0x4 PUSH2 0x135D JUMP JUMPDEST PUSH1 0x0 SWAP1 DUP2 MSTORE PUSH1 0x20 DUP2 SWAP1 MSTORE PUSH1 0x40 SWAP1 KECCAK256 PUSH1 0x1 ADD SLOAD SWAP1 JUMP JUMPDEST PUSH2 0x21C PUSH2 0x217 CALLDATASIZE PUSH1 0x4 PUSH2 0x1376 JUMP JUMPDEST PUSH2 0x82E JUMP JUMPDEST PUSH1 0x40 MLOAD PUSH2 0x17C SWAP2 SWAP1 PUSH2 0x13B8 JUMP JUMPDEST PUSH2 0x1CD PUSH2 0x237 CALLDATASIZE PUSH1 0x4 PUSH2 0x13FC JUMP JUMPDEST PUSH2 0x8F0 JUMP JUMPDEST PUSH2 0x1CD PUSH2 0x24A CALLDATASIZE PUSH1 0x4 PUSH2 0x13FC JUMP JUMPDEST PUSH2 0x91B JUMP JUMPDEST PUSH2 0x1CD PUSH2 0x953 JUMP JUMPDEST PUSH2 0x170 PUSH2 0x265 CALLDATASIZE PUSH1 0x4 PUSH2 0x1376 JUMP JUMPDEST PUSH2 0x969 JUMP JUMPDEST PUSH2 0x27D PUSH2 0x278 CALLDATASIZE PUSH1 0x4 PUSH2 0x1376 JUMP JUMPDEST PUSH2 0x9A1 JUMP JUMPDEST PUSH1 0x40 MLOAD PUSH2 0x17C SWAP6 SWAP5 SWAP4 SWAP3 SWAP2 SWAP1 PUSH2 0x1470 JUMP JUMPDEST PUSH1 0x1 SLOAD PUSH1 0xFF AND PUSH2 0x170 JUMP JUMPDEST PUSH2 0x1D8 PUSH32 0x59A1C48E5837AD7A7F3DCEDCBE129BF3249EC4FBF651FD4F5E2600EAD39FE2F5 DUP2 JUMP JUMPDEST PUSH2 0x1CD PUSH2 0xB52 JUMP JUMPDEST PUSH2 0x170 PUSH2 0x2D6 CALLDATASIZE PUSH1 0x4 PUSH2 0x13FC JUMP JUMPDEST PUSH2 0xB65 JUMP JUMPDEST PUSH2 0x1D8 PUSH1 0x0 DUP2 JUMP JUMPDEST PUSH2 0x1D8 PUSH2 0x2F1 CALLDATASIZE PUSH1 0x4 PUSH2 0x14EB JUMP JUMPDEST PUSH1 0x5 PUSH1 0x20 MSTORE PUSH1 0x0 SWAP1 DUP2 MSTORE PUSH1 0x40 SWAP1 KECCAK256 SLOAD DUP2 JUMP JUMPDEST PUSH2 0x1CD PUSH2 0x311 CALLDATASIZE PUSH1 0x4 PUSH2 0x1506 JUMP JUMPDEST PUSH2 0xB8E JUMP JUMPDEST PUSH2 0x1D8 PUSH32 0x21702C8AF46127C7FA207F89D0B0A8441BB32959A0AC7DF790E9AB1A25C98926 DUP2 JUMP JUMPDEST PUSH2 0x1D8 PUSH32 0xC2D498FA6734073871A6DDE33C56174C52423804118E0D5B66171FAD3494DE68 DUP2 JUMP JUMPDEST PUSH2 0x1D8 PUSH32 0x961D55C77C3196DDB4C0461FF143B345FB217A0E9690C1FD33BD1F2102C4FAA7 DUP2 JUMP JUMPDEST PUSH2 0x1D8 PUSH32 0xC7B520D83EE7A61EA89B49F68CB90C31178AA99DD689D663D9C8FA388A862BC2 DUP2 JUMP JUMPDEST PUSH2 0x1CD PUSH2 0x3C0 CALLDATASIZE PUSH1 0x4 PUSH2 0x13FC JUMP JUMPDEST PUSH2 0xDCA JUMP JUMPDEST PUSH2 0x170 PUSH2 0x3D3 CALLDATASIZE PUSH1 0x4 PUSH2 0x1580 JUMP JUMPDEST PUSH2 0xDEF JUMP JUMPDEST PUSH1 0x0 PUSH1 0x1 PUSH1 0x1 PUSH1 0xE0 SHL SUB NOT DUP3 AND PUSH4 0x7965DB0B PUSH1 0xE0 SHL EQ DUP1 PUSH2 0x409 JUMPI POP PUSH4 0x1FFC9A7 PUSH1 0xE0 SHL PUSH1 0x1 PUSH1 0x1 PUSH1 0xE0 SHL SUB NOT DUP4 AND EQ JUMPDEST SWAP3 SWAP2 POP POP JUMP JUMPDEST PUSH1 0x0 DUP1 PUSH1 0x0 DUP1 PUSH1 0x0 DUP1 PUSH32 0x59A1C48E5837AD7A7F3DCEDCBE129BF3249EC4FBF651FD4F5E2600EAD39FE2F5 PUSH2 0x442 DUP2 PUSH2 0xF20 JUMP JUMPDEST POP POP PUSH1 0x5 PUSH1 0x20 MSTORE POP POP PUSH32 0x5B8CCBB9D4D8FB16EA74CE3C29A41F1B461FBDAFF4714A0D9A8EB05499746BC SLOAD PUSH32 0x1471EB6EB2C5E789FC3DE43F8CE62938C7D1836EC861730447E2ADA8FD81017B SLOAD PUSH32 0x89832631FB3C3307A103BA2C84AB569C64D6182A18893DCD163F0F1C2090733A SLOAD PUSH32 0xA9BC9A3A348C357BA16B37005D7E6B3236198C0E939F4AF8C5F19B8DEEB8EBC0 SLOAD PUSH1 0x4 PUSH1 0x0 MSTORE PUSH32 0x3EEC716F11BA9E820C81CA75EB978FFB45831EF8B7A53E5E422C26008E1CA6D5 SLOAD PUSH1 0x7 SLOAD SWAP5 SWAP9 SWAP4 SWAP8 POP SWAP2 SWAP6 POP SWAP4 POP SWAP2 SWAP1 JUMP JUMPDEST PUSH2 0x513 PUSH2 0xF2A JUMP JUMPDEST PUSH2 0x51B PUSH2 0xF50 JUMP JUMPDEST PUSH1 0x0 DUP6 SWAP1 SUB PUSH2 0x53D JUMPI PUSH1 0x40 MLOAD PUSH4 0x74919E85 PUSH1 0xE1 SHL DUP2 MSTORE PUSH1 0x4 ADD PUSH1 0x40 MLOAD DUP1 SWAP2 SUB SWAP1 REVERT JUMPDEST DUP4 PUSH2 0x55A JUMPI PUSH1 0x40 MLOAD PUSH3 0x57C037 PUSH1 0xE5 SHL DUP2 MSTORE PUSH1 0x4 ADD PUSH1 0x40 MLOAD DUP1 SWAP2 SUB SWAP1 REVERT JUMPDEST PUSH1 0x3 DUP7 DUP7 PUSH1 0x40 MLOAD PUSH2 0x56C SWAP3 SWAP2 SWAP1 PUSH2 0x15CC JUMP JUMPDEST SWAP1 DUP2 MSTORE PUSH1 0x40 MLOAD SWAP1 DUP2 SWAP1 SUB PUSH1 0x20 ADD SWAP1 KECCAK256 PUSH1 0x4 ADD SLOAD PUSH1 0xFF PUSH2 0x100 SWAP1 SWAP2 DIV AND ISZERO PUSH2 0x5B3 JUMPI DUP6 DUP6 PUSH1 0x40 MLOAD PUSH4 0x25C8F8A9 PUSH1 0xE0 SHL DUP2 MSTORE PUSH1 0x4 ADD PUSH2 0x5AA SWAP3 SWAP2 SWAP1 PUSH2 0x1605 JUMP JUMPDEST PUSH1 0x40 MLOAD DUP1 SWAP2 SUB SWAP1 REVERT JUMPDEST PUSH2 0x5BC DUP2 PUSH2 0xF78 JUMP JUMPDEST PUSH1 0x40 MLOAD DUP1 PUSH1 0xC0 ADD PUSH1 0x40 MSTORE DUP1 DUP6 DUP2 MSTORE PUSH1 0x20 ADD TIMESTAMP DUP2 MSTORE PUSH1 0x20 ADD CALLER PUSH1 0x1 PUSH1 0x1 PUSH1 0xA0 SHL SUB AND DUP2 MSTORE PUSH1 0x20 ADD DUP5 DUP5 DUP1 DUP1 PUSH1 0x1F ADD PUSH1 0x20 DUP1 SWAP2 DIV MUL PUSH1 0x20 ADD PUSH1 0x40 MLOAD SWAP1 DUP2 ADD PUSH1 0x40 MSTORE DUP1 SWAP4 SWAP3 SWAP2 SWAP1 DUP2 DUP2 MSTORE PUSH1 0x20 ADD DUP4 DUP4 DUP1 DUP3 DUP5 CALLDATACOPY PUSH1 0x0 SWAP3 ADD SWAP2 SWAP1 SWAP2 MSTORE POP POP POP SWAP1 DUP3 MSTORE POP PUSH1 0x20 ADD DUP3 PUSH1 0x4 DUP2 GT ISZERO PUSH2 0x630 JUMPI PUSH2 0x630 PUSH2 0x1438 JUMP JUMPDEST DUP2 MSTORE PUSH1 0x1 PUSH1 0x20 SWAP1 SWAP2 ADD MSTORE PUSH1 0x40 MLOAD PUSH1 0x3 SWAP1 PUSH2 0x64D SWAP1 DUP10 SWAP1 DUP10 SWAP1 PUSH2 0x15CC JUMP JUMPDEST SWAP1 DUP2 MSTORE PUSH1 0x40 DUP1 MLOAD PUSH1 0x20 SWAP3 DUP2 SWAP1 SUB DUP4 ADD SWAP1 KECCAK256 DUP4 MLOAD DUP2 SSTORE SWAP2 DUP4 ADD MLOAD PUSH1 0x1 DUP4 ADD SSTORE DUP3 ADD MLOAD PUSH1 0x2 DUP3 ADD DUP1 SLOAD PUSH1 0x1 PUSH1 0x1 PUSH1 0xA0 SHL SUB NOT AND PUSH1 0x1 PUSH1 0x1 PUSH1 0xA0 SHL SUB SWAP1 SWAP3 AND SWAP2 SWAP1 SWAP2 OR SWAP1 SSTORE PUSH1 0x60 DUP3 ADD MLOAD PUSH1 0x3 DUP3 ADD SWAP1 PUSH2 0x6A3 SWAP1 DUP3 PUSH2 0x16B9 JUMP JUMPDEST POP PUSH1 0x80 DUP3 ADD MLOAD DUP2 PUSH1 0x4 ADD PUSH1 0x0 PUSH2 0x100 EXP DUP2 SLOAD DUP2 PUSH1 0xFF MUL NOT AND SWAP1 DUP4 PUSH1 0x4 DUP2 GT ISZERO PUSH2 0x6CE JUMPI PUSH2 0x6CE PUSH2 0x1438 JUMP JUMPDEST MUL OR SWAP1 SSTORE POP PUSH1 0xA0 SWAP2 SWAP1 SWAP2 ADD MLOAD PUSH1 0x4 SWAP2 DUP3 ADD DUP1 SLOAD SWAP2 ISZERO ISZERO PUSH2 0x100 MUL PUSH2 0xFF00 NOT SWAP1 SWAP3 AND SWAP2 SWAP1 SWAP2 OR SWAP1 SSTORE PUSH1 0x40 MLOAD PUSH2 0x705 SWAP1 DUP9 SWAP1 DUP9 SWAP1 PUSH2 0x15CC JUMP JUMPDEST SWAP1 DUP2 MSTORE PUSH1 0x40 MLOAD PUSH1 0x20 SWAP2 DUP2 SWAP1 SUB DUP3 ADD SWAP1 KECCAK256 DUP1 SLOAD PUSH1 0x1 DUP1 DUP3 ADD DUP4 SSTORE PUSH1 0x0 SWAP3 DUP4 MSTORE SWAP3 DUP3 KECCAK256 ADD DUP7 SWAP1 SSTORE PUSH1 0x6 DUP1 SLOAD SWAP3 DUP4 ADD DUP2 SSTORE SWAP1 MSTORE PUSH32 0xF652222313E28459528D920B65115C16C04F3EFC82AAEDC97BE59F3F377C0D3F ADD PUSH2 0x762 DUP7 DUP9 DUP4 PUSH2 0x1779 JUMP JUMPDEST POP PUSH1 0x5 PUSH1 0x0 DUP3 PUSH1 0x4 DUP2 GT ISZERO PUSH2 0x779 JUMPI PUSH2 0x779 PUSH2 0x1438 JUMP JUMPDEST PUSH1 0x4 DUP2 GT ISZERO PUSH2 0x78A JUMPI PUSH2 0x78A PUSH2 0x1438 JUMP JUMPDEST DUP2 MSTORE PUSH1 0x20 ADD SWAP1 DUP2 MSTORE PUSH1 0x20 ADD PUSH1 0x0 KECCAK256 PUSH1 0x0 DUP2 SLOAD DUP1 SWAP3 SWAP2 SWAP1 PUSH2 0x7A9 SWAP1 PUSH2 0x1839 JUMP JUMPDEST SWAP1 SWAP2 SSTORE POP POP PUSH1 0x7 DUP1 SLOAD SWAP1 PUSH1 0x0 PUSH2 0x7BE DUP4 PUSH2 0x1839 JUMP JUMPDEST SWAP1 SWAP2 SSTORE POP POP PUSH1 0x40 MLOAD CALLER SWAP1 PUSH2 0x7D5 SWAP1 DUP9 SWAP1 DUP9 SWAP1 PUSH2 0x15CC JUMP JUMPDEST PUSH1 0x40 MLOAD DUP1 SWAP2 SUB SWAP1 KECCAK256 PUSH32 0xC28198440681FDC04A517125A59AF1BF43B0CE70EAF796A67536746F32566902 DUP7 DUP5 DUP8 DUP8 TIMESTAMP PUSH1 0x40 MLOAD PUSH2 0x814 SWAP6 SWAP5 SWAP4 SWAP3 SWAP2 SWAP1 PUSH2 0x1860 JUMP JUMPDEST PUSH1 0x40 MLOAD DUP1 SWAP2 SUB SWAP1 LOG3 PUSH2 0x826 PUSH1 0x1 PUSH1 0x2 SSTORE JUMP JUMPDEST POP POP POP POP POP POP JUMP JUMPDEST PUSH1 0x60 PUSH1 0x3 DUP4 DUP4 PUSH1 0x40 MLOAD PUSH2 0x842 SWAP3 SWAP2 SWAP1 PUSH2 0x15CC JUMP JUMPDEST SWAP1 DUP2 MSTORE PUSH1 0x40 MLOAD SWAP1 DUP2 SWAP1 SUB PUSH1 0x20 ADD SWAP1 KECCAK256 PUSH1 0x4 ADD SLOAD PUSH1 0xFF PUSH2 0x100 SWAP1 SWAP2 DIV AND PUSH2 0x87F JUMPI DUP3 DUP3 PUSH1 0x40 MLOAD PUSH4 0x7E8D8BB3 PUSH1 0xE0 SHL DUP2 MSTORE PUSH1 0x4 ADD PUSH2 0x5AA SWAP3 SWAP2 SWAP1 PUSH2 0x1605 JUMP JUMPDEST PUSH1 0x4 DUP4 DUP4 PUSH1 0x40 MLOAD PUSH2 0x891 SWAP3 SWAP2 SWAP1 PUSH2 0x15CC JUMP JUMPDEST SWAP1 DUP2 MSTORE PUSH1 0x40 DUP1 MLOAD SWAP2 DUP3 SWAP1 SUB PUSH1 0x20 SWAP1 DUP2 ADD DUP4 KECCAK256 DUP1 SLOAD DUP1 DUP4 MUL DUP6 ADD DUP4 ADD SWAP1 SWAP4 MSTORE DUP3 DUP5 MSTORE SWAP2 SWAP1 DUP4 ADD DUP3 DUP3 DUP1 ISZERO PUSH2 0x8E3 JUMPI PUSH1 0x20 MUL DUP3 ADD SWAP2 SWAP1 PUSH1 0x0 MSTORE PUSH1 0x20 PUSH1 0x0 KECCAK256 SWAP1 JUMPDEST DUP2 SLOAD DUP2 MSTORE PUSH1 0x20 ADD SWAP1 PUSH1 0x1 ADD SWAP1 DUP1 DUP4 GT PUSH2 0x8CF JUMPI JUMPDEST POP POP POP POP POP SWAP1 POP SWAP3 SWAP2 POP POP JUMP JUMPDEST PUSH1 0x0 DUP3 DUP2 MSTORE PUSH1 0x20 DUP2 SWAP1 MSTORE PUSH1 0x40 SWAP1 KECCAK256 PUSH1 0x1 ADD SLOAD PUSH2 0x90B DUP2 PUSH2 0xF20 JUMP JUMPDEST PUSH2 0x915 DUP4 DUP4 PUSH2 0x105C JUMP JUMPDEST POP POP POP POP JUMP JUMPDEST PUSH1 0x1 PUSH1 0x1 PUSH1 0xA0 SHL SUB DUP2 AND CALLER EQ PUSH2 0x944 JUMPI PUSH1 0x40 MLOAD PUSH4 0x334BD919 PUSH1 0xE1 SHL DUP2 MSTORE PUSH1 0x4 ADD PUSH1 0x40 MLOAD DUP1 SWAP2 SUB SWAP1 REVERT JUMPDEST PUSH2 0x94E DUP3 DUP3 PUSH2 0x10EE JUMP JUMPDEST POP POP POP JUMP JUMPDEST PUSH1 0x0 PUSH2 0x95E DUP2 PUSH2 0xF20 JUMP JUMPDEST PUSH2 0x966 PUSH2 0x1159 JUMP JUMPDEST POP JUMP JUMPDEST PUSH1 0x0 PUSH1 0x3 DUP4 DUP4 PUSH1 0x40 MLOAD PUSH2 0x97D SWAP3 SWAP2 SWAP1 PUSH2 0x15CC JUMP JUMPDEST SWAP1 DUP2 MSTORE PUSH1 0x40 MLOAD SWAP1 DUP2 SWAP1 SUB PUSH1 0x20 ADD SWAP1 KECCAK256 PUSH1 0x4 ADD SLOAD PUSH1 0xFF PUSH2 0x100 SWAP1 SWAP2 DIV AND SWAP1 POP SWAP3 SWAP2 POP POP JUMP JUMPDEST PUSH1 0x0 DUP1 PUSH1 0x0 PUSH1 0x60 PUSH1 0x0 PUSH1 0x3 DUP8 DUP8 PUSH1 0x40 MLOAD PUSH2 0x9BC SWAP3 SWAP2 SWAP1 PUSH2 0x15CC JUMP JUMPDEST SWAP1 DUP2 MSTORE PUSH1 0x40 MLOAD SWAP1 DUP2 SWAP1 SUB PUSH1 0x20 ADD SWAP1 KECCAK256 PUSH1 0x4 ADD SLOAD PUSH1 0xFF PUSH2 0x100 SWAP1 SWAP2 DIV AND PUSH2 0x9F9 JUMPI DUP7 DUP7 PUSH1 0x40 MLOAD PUSH4 0x7E8D8BB3 PUSH1 0xE0 SHL DUP2 MSTORE PUSH1 0x4 ADD PUSH2 0x5AA SWAP3 SWAP2 SWAP1 PUSH2 0x1605 JUMP JUMPDEST PUSH1 0x0 PUSH1 0x3 DUP9 DUP9 PUSH1 0x40 MLOAD PUSH2 0xA0D SWAP3 SWAP2 SWAP1 PUSH2 0x15CC JUMP JUMPDEST SWAP1 DUP2 MSTORE PUSH1 0x40 DUP1 MLOAD SWAP2 DUP3 SWAP1 SUB PUSH1 0x20 SWAP1 DUP2 ADD DUP4 KECCAK256 PUSH1 0xC0 DUP5 ADD DUP4 MSTORE DUP1 SLOAD DUP5 MSTORE PUSH1 0x1 DUP2 ADD SLOAD SWAP2 DUP5 ADD SWAP2 SWAP1 SWAP2 MSTORE PUSH1 0x2 DUP2 ADD SLOAD PUSH1 0x1 PUSH1 0x1 PUSH1 0xA0 SHL SUB AND SWAP2 DUP4 ADD SWAP2 SWAP1 SWAP2 MSTORE PUSH1 0x3 DUP2 ADD DUP1 SLOAD PUSH1 0x60 DUP5 ADD SWAP2 SWAP1 PUSH2 0xA5F SWAP1 PUSH2 0x1637 JUMP JUMPDEST DUP1 PUSH1 0x1F ADD PUSH1 0x20 DUP1 SWAP2 DIV MUL PUSH1 0x20 ADD PUSH1 0x40 MLOAD SWAP1 DUP2 ADD PUSH1 0x40 MSTORE DUP1 SWAP3 SWAP2 SWAP1 DUP2 DUP2 MSTORE PUSH1 0x20 ADD DUP3 DUP1 SLOAD PUSH2 0xA8B SWAP1 PUSH2 0x1637 JUMP JUMPDEST DUP1 ISZERO PUSH2 0xAD8 JUMPI DUP1 PUSH1 0x1F LT PUSH2 0xAAD JUMPI PUSH2 0x100 DUP1 DUP4 SLOAD DIV MUL DUP4 MSTORE SWAP2 PUSH1 0x20 ADD SWAP2 PUSH2 0xAD8 JUMP JUMPDEST DUP3 ADD SWAP2 SWAP1 PUSH1 0x0 MSTORE PUSH1 0x20 PUSH1 0x0 KECCAK256 SWAP1 JUMPDEST DUP2 SLOAD DUP2 MSTORE SWAP1 PUSH1 0x1 ADD SWAP1 PUSH1 0x20 ADD DUP1 DUP4 GT PUSH2 0xABB JUMPI DUP3 SWAP1 SUB PUSH1 0x1F AND DUP3 ADD SWAP2 JUMPDEST POP POP POP SWAP2 DUP4 MSTORE POP POP PUSH1 0x4 DUP3 DUP2 ADD SLOAD PUSH1 0x20 SWAP1 SWAP3 ADD SWAP2 PUSH1 0xFF AND SWAP1 DUP2 GT ISZERO PUSH2 0xAFF JUMPI PUSH2 0xAFF PUSH2 0x1438 JUMP JUMPDEST PUSH1 0x4 DUP2 GT ISZERO PUSH2 0xB10 JUMPI PUSH2 0xB10 PUSH2 0x1438 JUMP JUMPDEST DUP2 MSTORE PUSH1 0x4 SWAP2 SWAP1 SWAP2 ADD SLOAD PUSH2 0x100 SWAP1 DIV PUSH1 0xFF AND ISZERO ISZERO PUSH1 0x20 SWAP2 DUP3 ADD MSTORE DUP2 MLOAD SWAP1 DUP3 ADD MLOAD PUSH1 0x40 DUP4 ADD MLOAD PUSH1 0x60 DUP5 ADD MLOAD PUSH1 0x80 SWAP1 SWAP5 ADD MLOAD SWAP3 SWAP13 SWAP2 SWAP12 POP SWAP10 POP SWAP2 SWAP8 POP SWAP6 POP SWAP4 POP POP POP POP JUMP JUMPDEST PUSH1 0x0 PUSH2 0xB5D DUP2 PUSH2 0xF20 JUMP JUMPDEST PUSH2 0x966 PUSH2 0x11AB JUMP JUMPDEST PUSH1 0x0 SWAP2 DUP3 MSTORE PUSH1 0x20 DUP3 DUP2 MSTORE PUSH1 0x40 DUP1 DUP5 KECCAK256 PUSH1 0x1 PUSH1 0x1 PUSH1 0xA0 SHL SUB SWAP4 SWAP1 SWAP4 AND DUP5 MSTORE SWAP2 SWAP1 MSTORE SWAP1 KECCAK256 SLOAD PUSH1 0xFF AND SWAP1 JUMP JUMPDEST PUSH2 0xB96 PUSH2 0xF2A JUMP JUMPDEST PUSH2 0xB9E PUSH2 0xF50 JUMP JUMPDEST PUSH1 0x3 DUP6 DUP6 PUSH1 0x40 MLOAD PUSH2 0xBB0 SWAP3 SWAP2 SWAP1 PUSH2 0x15CC JUMP JUMPDEST SWAP1 DUP2 MSTORE PUSH1 0x40 MLOAD SWAP1 DUP2 SWAP1 SUB PUSH1 0x20 ADD SWAP1 KECCAK256 PUSH1 0x4 ADD SLOAD PUSH1 0xFF PUSH2 0x100 SWAP1 SWAP2 DIV AND PUSH2 0xBED JUMPI DUP5 DUP5 PUSH1 0x40 MLOAD PUSH4 0x7E8D8BB3 PUSH1 0xE0 SHL DUP2 MSTORE PUSH1 0x4 ADD PUSH2 0x5AA SWAP3 SWAP2 SWAP1 PUSH2 0x1605 JUMP JUMPDEST DUP3 PUSH2 0xC0A JUMPI PUSH1 0x40 MLOAD PUSH3 0x57C037 PUSH1 0xE5 SHL DUP2 MSTORE PUSH1 0x4 ADD PUSH1 0x40 MLOAD DUP1 SWAP2 SUB SWAP1 REVERT JUMPDEST PUSH1 0x0 PUSH1 0x3 DUP7 DUP7 PUSH1 0x40 MLOAD PUSH2 0xC1E SWAP3 SWAP2 SWAP1 PUSH2 0x15CC JUMP JUMPDEST SWAP1 DUP2 MSTORE PUSH1 0x40 MLOAD SWAP1 DUP2 SWAP1 SUB PUSH1 0x20 ADD SWAP1 KECCAK256 PUSH1 0x4 ADD SLOAD PUSH1 0xFF AND SWAP1 POP PUSH2 0xC3F DUP2 PUSH2 0xF78 JUMP JUMPDEST PUSH1 0x0 PUSH1 0x3 DUP8 DUP8 PUSH1 0x40 MLOAD PUSH2 0xC53 SWAP3 SWAP2 SWAP1 PUSH2 0x15CC JUMP JUMPDEST SWAP1 DUP2 MSTORE PUSH1 0x40 MLOAD SWAP1 DUP2 SWAP1 SUB PUSH1 0x20 ADD DUP2 KECCAK256 SLOAD SWAP2 POP DUP6 SWAP1 PUSH1 0x3 SWAP1 PUSH2 0xC77 SWAP1 DUP11 SWAP1 DUP11 SWAP1 PUSH2 0x15CC JUMP JUMPDEST SWAP1 DUP2 MSTORE PUSH1 0x40 MLOAD SWAP1 DUP2 SWAP1 SUB PUSH1 0x20 ADD DUP2 KECCAK256 SWAP2 SWAP1 SWAP2 SSTORE TIMESTAMP SWAP1 PUSH1 0x3 SWAP1 PUSH2 0xC9C SWAP1 DUP11 SWAP1 DUP11 SWAP1 PUSH2 0x15CC JUMP JUMPDEST SWAP1 DUP2 MSTORE PUSH1 0x20 ADD PUSH1 0x40 MLOAD DUP1 SWAP2 SUB SWAP1 KECCAK256 PUSH1 0x1 ADD DUP2 SWAP1 SSTORE POP CALLER PUSH1 0x3 DUP9 DUP9 PUSH1 0x40 MLOAD PUSH2 0xCC4 SWAP3 SWAP2 SWAP1 PUSH2 0x15CC JUMP JUMPDEST SWAP1 DUP2 MSTORE PUSH1 0x20 ADD PUSH1 0x40 MLOAD DUP1 SWAP2 SUB SWAP1 KECCAK256 PUSH1 0x2 ADD PUSH1 0x0 PUSH2 0x100 EXP DUP2 SLOAD DUP2 PUSH1 0x1 PUSH1 0x1 PUSH1 0xA0 SHL SUB MUL NOT AND SWAP1 DUP4 PUSH1 0x1 PUSH1 0x1 PUSH1 0xA0 SHL SUB AND MUL OR SWAP1 SSTORE POP DUP4 DUP4 PUSH1 0x3 DUP10 DUP10 PUSH1 0x40 MLOAD PUSH2 0xD0D SWAP3 SWAP2 SWAP1 PUSH2 0x15CC JUMP JUMPDEST SWAP1 DUP2 MSTORE PUSH1 0x20 ADD PUSH1 0x40 MLOAD DUP1 SWAP2 SUB SWAP1 KECCAK256 PUSH1 0x3 ADD SWAP2 DUP3 PUSH2 0xD2B SWAP3 SWAP2 SWAP1 PUSH2 0x1779 JUMP JUMPDEST POP PUSH1 0x4 DUP8 DUP8 PUSH1 0x40 MLOAD PUSH2 0xD3E SWAP3 SWAP2 SWAP1 PUSH2 0x15CC JUMP JUMPDEST SWAP1 DUP2 MSTORE PUSH1 0x40 MLOAD SWAP1 DUP2 SWAP1 SUB PUSH1 0x20 SWAP1 DUP2 ADD DUP3 KECCAK256 DUP1 SLOAD PUSH1 0x1 DUP2 ADD DUP3 SSTORE PUSH1 0x0 SWAP2 DUP3 MSTORE SWAP2 SWAP1 KECCAK256 ADD DUP7 SWAP1 SSTORE CALLER SWAP1 PUSH2 0xD72 SWAP1 DUP10 SWAP1 DUP10 SWAP1 PUSH2 0x15CC JUMP JUMPDEST PUSH1 0x40 MLOAD DUP1 SWAP2 SUB SWAP1 KECCAK256 PUSH32 0xD18FDAA72BFAB2EE0FF5AC52FBA4D4811522F88EF81A78910468C242D0B329FD DUP4 DUP9 DUP7 TIMESTAMP PUSH1 0x40 MLOAD PUSH2 0xDAF SWAP5 SWAP4 SWAP3 SWAP2 SWAP1 PUSH2 0x1899 JUMP JUMPDEST PUSH1 0x40 MLOAD DUP1 SWAP2 SUB SWAP1 LOG3 POP POP PUSH2 0xDC3 PUSH1 0x1 PUSH1 0x2 SSTORE JUMP JUMPDEST POP POP POP POP POP JUMP JUMPDEST PUSH1 0x0 DUP3 DUP2 MSTORE PUSH1 0x20 DUP2 SWAP1 MSTORE PUSH1 0x40 SWAP1 KECCAK256 PUSH1 0x1 ADD SLOAD PUSH2 0xDE5 DUP2 PUSH2 0xF20 JUMP JUMPDEST PUSH2 0x915 DUP4 DUP4 PUSH2 0x10EE JUMP JUMPDEST PUSH1 0x0 PUSH32 0x21702C8AF46127C7FA207F89D0B0A8441BB32959A0AC7DF790E9AB1A25C98926 PUSH2 0xE1B DUP2 PUSH2 0xF20 JUMP JUMPDEST PUSH1 0x3 DUP6 DUP6 PUSH1 0x40 MLOAD PUSH2 0xE2D SWAP3 SWAP2 SWAP1 PUSH2 0x15CC JUMP JUMPDEST SWAP1 DUP2 MSTORE PUSH1 0x40 MLOAD SWAP1 DUP2 SWAP1 SUB PUSH1 0x20 ADD SWAP1 KECCAK256 PUSH1 0x4 ADD SLOAD PUSH1 0xFF PUSH2 0x100 SWAP1 SWAP2 DIV AND PUSH2 0xE6A JUMPI DUP5 DUP5 PUSH1 0x40 MLOAD PUSH4 0x7E8D8BB3 PUSH1 0xE0 SHL DUP2 MSTORE PUSH1 0x4 ADD PUSH2 0x5AA SWAP3 SWAP2 SWAP1 PUSH2 0x1605 JUMP JUMPDEST PUSH1 0x0 PUSH1 0x3 DUP7 DUP7 PUSH1 0x40 MLOAD PUSH2 0xE7E SWAP3 SWAP2 SWAP1 PUSH2 0x15CC JUMP JUMPDEST SWAP1 DUP2 MSTORE PUSH1 0x40 MLOAD SWAP1 DUP2 SWAP1 SUB PUSH1 0x20 ADD DUP2 KECCAK256 SLOAD SWAP2 POP PUSH1 0x0 SWAP1 PUSH1 0x3 SWAP1 PUSH2 0xEA3 SWAP1 DUP10 SWAP1 DUP10 SWAP1 PUSH2 0x15CC JUMP JUMPDEST SWAP1 DUP2 MSTORE PUSH1 0x40 MLOAD SWAP1 DUP2 SWAP1 SUB PUSH1 0x20 ADD DUP2 KECCAK256 PUSH1 0x4 ADD SLOAD DUP4 DUP8 EQ SWAP6 POP PUSH1 0xFF AND SWAP2 POP CALLER SWAP1 PUSH2 0xECF SWAP1 DUP10 SWAP1 DUP10 SWAP1 PUSH2 0x15CC JUMP JUMPDEST PUSH1 0x40 MLOAD DUP1 SWAP2 SUB SWAP1 KECCAK256 PUSH32 0x1C3A0AF2A2E78F808EF89E05939E3C25C11EA86835622BB6F93F17F289F358E6 DUP8 DUP6 DUP6 DUP10 TIMESTAMP PUSH1 0x40 MLOAD PUSH2 0xF0E SWAP6 SWAP5 SWAP4 SWAP3 SWAP2 SWAP1 PUSH2 0x18C3 JUMP JUMPDEST PUSH1 0x40 MLOAD DUP1 SWAP2 SUB SWAP1 LOG3 POP POP POP SWAP4 SWAP3 POP POP POP JUMP JUMPDEST PUSH2 0x966 DUP2 CALLER PUSH2 0x11E6 JUMP JUMPDEST PUSH1 0x1 SLOAD PUSH1 0xFF AND ISZERO PUSH2 0xF4E JUMPI PUSH1 0x40 MLOAD PUSH4 0xD93C0665 PUSH1 0xE0 SHL DUP2 MSTORE PUSH1 0x4 ADD PUSH1 0x40 MLOAD DUP1 SWAP2 SUB SWAP1 REVERT JUMPDEST JUMP JUMPDEST PUSH1 0x2 DUP1 SLOAD SUB PUSH2 0xF72 JUMPI PUSH1 0x40 MLOAD PUSH4 0x3EE5AEB5 PUSH1 0xE0 SHL DUP2 MSTORE PUSH1 0x4 ADD PUSH1 0x40 MLOAD DUP1 SWAP2 SUB SWAP1 REVERT JUMPDEST PUSH1 0x2 DUP1 SSTORE JUMP JUMPDEST PUSH2 0xF83 PUSH1 0x0 CALLER PUSH2 0xB65 JUMP JUMPDEST ISZERO PUSH2 0xF8B JUMPI POP JUMP JUMPDEST PUSH1 0x2 DUP2 PUSH1 0x4 DUP2 GT ISZERO PUSH2 0xF9F JUMPI PUSH2 0xF9F PUSH2 0x1438 JUMP JUMPDEST SUB PUSH2 0xFEF JUMPI PUSH2 0xFCE PUSH32 0xC2D498FA6734073871A6DDE33C56174C52423804118E0D5B66171FAD3494DE68 CALLER PUSH2 0xB65 JUMP JUMPDEST PUSH2 0x966 JUMPI DUP1 CALLER PUSH1 0x40 MLOAD PUSH4 0x26558C45 PUSH1 0xE2 SHL DUP2 MSTORE PUSH1 0x4 ADD PUSH2 0x5AA SWAP3 SWAP2 SWAP1 PUSH2 0x18F1 JUMP JUMPDEST PUSH1 0x3 DUP2 PUSH1 0x4 DUP2 GT ISZERO PUSH2 0x1003 JUMPI PUSH2 0x1003 PUSH2 0x1438 JUMP JUMPDEST SUB PUSH2 0x1032 JUMPI PUSH2 0xFCE PUSH32 0xC7B520D83EE7A61EA89B49F68CB90C31178AA99DD689D663D9C8FA388A862BC2 CALLER PUSH2 0xB65 JUMP JUMPDEST PUSH2 0xFCE PUSH32 0x961D55C77C3196DDB4C0461FF143B345FB217A0E9690C1FD33BD1F2102C4FAA7 CALLER PUSH2 0xB65 JUMP JUMPDEST PUSH1 0x0 PUSH2 0x1068 DUP4 DUP4 PUSH2 0xB65 JUMP JUMPDEST PUSH2 0x10E6 JUMPI PUSH1 0x0 DUP4 DUP2 MSTORE PUSH1 0x20 DUP2 DUP2 MSTORE PUSH1 0x40 DUP1 DUP4 KECCAK256 PUSH1 0x1 PUSH1 0x1 PUSH1 0xA0 SHL SUB DUP7 AND DUP5 MSTORE SWAP1 SWAP2 MSTORE SWAP1 KECCAK256 DUP1 SLOAD PUSH1 0xFF NOT AND PUSH1 0x1 OR SWAP1 SSTORE PUSH2 0x109E CALLER SWAP1 JUMP JUMPDEST PUSH1 0x1 PUSH1 0x1 PUSH1 0xA0 SHL SUB AND DUP3 PUSH1 0x1 PUSH1 0x1 PUSH1 0xA0 SHL SUB AND DUP5 PUSH32 0x2F8788117E7EFF1D82E926EC794901D17C78024A50270940304540A733656F0D PUSH1 0x40 MLOAD PUSH1 0x40 MLOAD DUP1 SWAP2 SUB SWAP1 LOG4 POP PUSH1 0x1 PUSH2 0x409 JUMP JUMPDEST POP PUSH1 0x0 PUSH2 0x409 JUMP JUMPDEST PUSH1 0x0 PUSH2 0x10FA DUP4 DUP4 PUSH2 0xB65 JUMP JUMPDEST ISZERO PUSH2 0x10E6 JUMPI PUSH1 0x0 DUP4 DUP2 MSTORE PUSH1 0x20 DUP2 DUP2 MSTORE PUSH1 0x40 DUP1 DUP4 KECCAK256 PUSH1 0x1 PUSH1 0x1 PUSH1 0xA0 SHL SUB DUP7 AND DUP1 DUP6 MSTORE SWAP3 MSTORE DUP1 DUP4 KECCAK256 DUP1 SLOAD PUSH1 0xFF NOT AND SWAP1 SSTORE MLOAD CALLER SWAP3 DUP7 SWAP2 PUSH32 0xF6391F5C32D9C69D2A47EA670B442974B53935D1EDC7FD64EB21E047A839171B SWAP2 SWAP1 LOG4 POP PUSH1 0x1 PUSH2 0x409 JUMP JUMPDEST PUSH2 0x1161 PUSH2 0x1223 JUMP JUMPDEST PUSH1 0x1 DUP1 SLOAD PUSH1 0xFF NOT AND SWAP1 SSTORE PUSH32 0x5DB9EE0A495BF2E6FF9C91A7834C1BA4FDD244A5E8AA4E537BD38AEAE4B073AA CALLER JUMPDEST PUSH1 0x40 MLOAD PUSH1 0x1 PUSH1 0x1 PUSH1 0xA0 SHL SUB SWAP1 SWAP2 AND DUP2 MSTORE PUSH1 0x20 ADD PUSH1 0x40 MLOAD DUP1 SWAP2 SUB SWAP1 LOG1 JUMP JUMPDEST PUSH2 0x11B3 PUSH2 0xF2A JUMP JUMPDEST PUSH1 0x1 DUP1 SLOAD PUSH1 0xFF NOT AND DUP2 OR SWAP1 SSTORE PUSH32 0x62E78CEA01BEE320CD4E420270B5EA74000D11B0C9F74754EBDBFC544B05A258 CALLER PUSH2 0x118E JUMP JUMPDEST PUSH2 0x11F0 DUP3 DUP3 PUSH2 0xB65 JUMP JUMPDEST PUSH2 0x121F JUMPI PUSH1 0x40 MLOAD PUSH4 0xE2517D3F PUSH1 0xE0 SHL DUP2 MSTORE PUSH1 0x1 PUSH1 0x1 PUSH1 0xA0 SHL SUB DUP3 AND PUSH1 0x4 DUP3 ADD MSTORE PUSH1 0x24 DUP2 ADD DUP4 SWAP1 MSTORE PUSH1 0x44 ADD PUSH2 0x5AA JUMP JUMPDEST POP POP JUMP JUMPDEST PUSH1 0x1 SLOAD PUSH1 0xFF AND PUSH2 0xF4E JUMPI PUSH1 0x40 MLOAD PUSH4 0x8DFC202B PUSH1 0xE0 SHL DUP2 MSTORE PUSH1 0x4 ADD PUSH1 0x40 MLOAD DUP1 SWAP2 SUB SWAP1 REVERT JUMPDEST PUSH1 0x0 PUSH1 0x20 DUP3 DUP5 SUB SLT ISZERO PUSH2 0x1258 JUMPI PUSH1 0x0 DUP1 REVERT JUMPDEST DUP2 CALLDATALOAD PUSH1 0x1 PUSH1 0x1 PUSH1 0xE0 SHL SUB NOT DUP2 AND DUP2 EQ PUSH2 0x1270 JUMPI PUSH1 0x0 DUP1 REVERT JUMPDEST SWAP4 SWAP3 POP POP POP JUMP JUMPDEST PUSH1 0x0 DUP1 DUP4 PUSH1 0x1F DUP5 ADD SLT PUSH2 0x1289 JUMPI PUSH1 0x0 DUP1 REVERT JUMPDEST POP DUP2 CALLDATALOAD PUSH8 0xFFFFFFFFFFFFFFFF DUP2 GT ISZERO PUSH2 0x12A1 JUMPI PUSH1 0x0 DUP1 REVERT JUMPDEST PUSH1 0x20 DUP4 ADD SWAP2 POP DUP4 PUSH1 0x20 DUP3 DUP6 ADD ADD GT ISZERO PUSH2 0x12B9 JUMPI PUSH1 0x0 DUP1 REVERT JUMPDEST SWAP3 POP SWAP3 SWAP1 POP JUMP JUMPDEST DUP1 CALLDATALOAD PUSH1 0x5 DUP2 LT PUSH2 0x12CF JUMPI PUSH1 0x0 DUP1 REVERT JUMPDEST SWAP2 SWAP1 POP JUMP JUMPDEST PUSH1 0x0 DUP1 PUSH1 0x0 DUP1 PUSH1 0x0 DUP1 PUSH1 0x80 DUP8 DUP10 SUB SLT ISZERO PUSH2 0x12ED JUMPI PUSH1 0x0 DUP1 REVERT JUMPDEST DUP7 CALLDATALOAD PUSH8 0xFFFFFFFFFFFFFFFF DUP1 DUP3 GT ISZERO PUSH2 0x1305 JUMPI PUSH1 0x0 DUP1 REVERT JUMPDEST PUSH2 0x1311 DUP11 DUP4 DUP12 ADD PUSH2 0x1277 JUMP JUMPDEST SWAP1 SWAP9 POP SWAP7 POP PUSH1 0x20 DUP10 ADD CALLDATALOAD SWAP6 POP PUSH1 0x40 DUP10 ADD CALLDATALOAD SWAP2 POP DUP1 DUP3 GT ISZERO PUSH2 0x1331 JUMPI PUSH1 0x0 DUP1 REVERT JUMPDEST POP PUSH2 0x133E DUP10 DUP3 DUP11 ADD PUSH2 0x1277 JUMP JUMPDEST SWAP1 SWAP5 POP SWAP3 POP PUSH2 0x1351 SWAP1 POP PUSH1 0x60 DUP9 ADD PUSH2 0x12C0 JUMP JUMPDEST SWAP1 POP SWAP3 SWAP6 POP SWAP3 SWAP6 POP SWAP3 SWAP6 JUMP JUMPDEST PUSH1 0x0 PUSH1 0x20 DUP3 DUP5 SUB SLT ISZERO PUSH2 0x136F JUMPI PUSH1 0x0 DUP1 REVERT JUMPDEST POP CALLDATALOAD SWAP2 SWAP1 POP JUMP JUMPDEST PUSH1 0x0 DUP1 PUSH1 0x20 DUP4 DUP6 SUB SLT ISZERO PUSH2 0x1389 JUMPI PUSH1 0x0 DUP1 REVERT JUMPDEST DUP3 CALLDATALOAD PUSH8 0xFFFFFFFFFFFFFFFF DUP2 GT ISZERO PUSH2 0x13A0 JUMPI PUSH1 0x0 DUP1 REVERT JUMPDEST PUSH2 0x13AC DUP6 DUP3 DUP7 ADD PUSH2 0x1277 JUMP JUMPDEST SWAP1 SWAP7 SWAP1 SWAP6 POP SWAP4 POP POP POP POP JUMP JUMPDEST PUSH1 0x20 DUP1 DUP3 MSTORE DUP3 MLOAD DUP3 DUP3 ADD DUP2 SWAP1 MSTORE PUSH1 0x0 SWAP2 SWAP1 DUP5 DUP3 ADD SWAP1 PUSH1 0x40 DUP6 ADD SWAP1 DUP5 JUMPDEST DUP2 DUP2 LT ISZERO PUSH2 0x13F0 JUMPI DUP4 MLOAD DUP4 MSTORE SWAP3 DUP5 ADD SWAP3 SWAP2 DUP5 ADD SWAP2 PUSH1 0x1 ADD PUSH2 0x13D4 JUMP JUMPDEST POP SWAP1 SWAP7 SWAP6 POP POP POP POP POP POP JUMP JUMPDEST PUSH1 0x0 DUP1 PUSH1 0x40 DUP4 DUP6 SUB SLT ISZERO PUSH2 0x140F JUMPI PUSH1 0x0 DUP1 REVERT JUMPDEST DUP3 CALLDATALOAD SWAP2 POP PUSH1 0x20 DUP4 ADD CALLDATALOAD PUSH1 0x1 PUSH1 0x1 PUSH1 0xA0 SHL SUB DUP2 AND DUP2 EQ PUSH2 0x142D JUMPI PUSH1 0x0 DUP1 REVERT JUMPDEST DUP1 SWAP2 POP POP SWAP3 POP SWAP3 SWAP1 POP JUMP JUMPDEST PUSH4 0x4E487B71 PUSH1 0xE0 SHL PUSH1 0x0 MSTORE PUSH1 0x21 PUSH1 0x4 MSTORE PUSH1 0x24 PUSH1 0x0 REVERT JUMPDEST PUSH1 0x5 DUP2 LT PUSH2 0x146C JUMPI PUSH4 0x4E487B71 PUSH1 0xE0 SHL PUSH1 0x0 MSTORE PUSH1 0x21 PUSH1 0x4 MSTORE PUSH1 0x24 PUSH1 0x0 REVERT JUMPDEST SWAP1 MSTORE JUMP JUMPDEST DUP6 DUP2 MSTORE PUSH1 0x0 PUSH1 0x20 DUP7 PUSH1 0x20 DUP5 ADD MSTORE PUSH1 0x1 DUP1 PUSH1 0xA0 SHL SUB DUP7 AND PUSH1 0x40 DUP5 ADD MSTORE PUSH1 0xA0 PUSH1 0x60 DUP5 ADD MSTORE DUP5 MLOAD DUP1 PUSH1 0xA0 DUP6 ADD MSTORE PUSH1 0x0 JUMPDEST DUP2 DUP2 LT ISZERO PUSH2 0x14B9 JUMPI DUP7 DUP2 ADD DUP4 ADD MLOAD DUP6 DUP3 ADD PUSH1 0xC0 ADD MSTORE DUP3 ADD PUSH2 0x149D JUMP JUMPDEST POP PUSH1 0x0 PUSH1 0xC0 DUP3 DUP7 ADD ADD MSTORE PUSH1 0xC0 PUSH1 0x1F NOT PUSH1 0x1F DUP4 ADD AND DUP6 ADD ADD SWAP3 POP POP POP PUSH2 0x14E1 PUSH1 0x80 DUP4 ADD DUP5 PUSH2 0x144E JUMP JUMPDEST SWAP7 SWAP6 POP POP POP POP POP POP JUMP JUMPDEST PUSH1 0x0 PUSH1 0x20 DUP3 DUP5 SUB SLT ISZERO PUSH2 0x14FD JUMPI PUSH1 0x0 DUP1 REVERT JUMPDEST PUSH2 0x1270 DUP3 PUSH2 0x12C0 JUMP JUMPDEST PUSH1 0x0 DUP1 PUSH1 0x0 DUP1 PUSH1 0x0 PUSH1 0x60 DUP7 DUP9 SUB SLT ISZERO PUSH2 0x151E JUMPI PUSH1 0x0 DUP1 REVERT JUMPDEST DUP6 CALLDATALOAD PUSH8 0xFFFFFFFFFFFFFFFF DUP1 DUP3 GT ISZERO PUSH2 0x1536 JUMPI PUSH1 0x0 DUP1 REVERT JUMPDEST PUSH2 0x1542 DUP10 DUP4 DUP11 ADD PUSH2 0x1277 JUMP JUMPDEST SWAP1 SWAP8 POP SWAP6 POP PUSH1 0x20 DUP9 ADD CALLDATALOAD SWAP5 POP PUSH1 0x40 DUP9 ADD CALLDATALOAD SWAP2 POP DUP1 DUP3 GT ISZERO PUSH2 0x1562 JUMPI PUSH1 0x0 DUP1 REVERT JUMPDEST POP PUSH2 0x156F DUP9 DUP3 DUP10 ADD PUSH2 0x1277 JUMP JUMPDEST SWAP7 SWAP10 SWAP6 SWAP9 POP SWAP4 SWAP7 POP SWAP3 SWAP5 SWAP4 SWAP3 POP POP POP JUMP JUMPDEST PUSH1 0x0 DUP1 PUSH1 0x0 PUSH1 0x40 DUP5 DUP7 SUB SLT ISZERO PUSH2 0x1595 JUMPI PUSH1 0x0 DUP1 REVERT JUMPDEST DUP4 CALLDATALOAD PUSH8 0xFFFFFFFFFFFFFFFF DUP2 GT ISZERO PUSH2 0x15AC JUMPI PUSH1 0x0 DUP1 REVERT JUMPDEST PUSH2 0x15B8 DUP7 DUP3 DUP8 ADD PUSH2 0x1277 JUMP JUMPDEST SWAP1 SWAP8 SWAP1 SWAP7 POP PUSH1 0x20 SWAP6 SWAP1 SWAP6 ADD CALLDATALOAD SWAP5 SWAP4 POP POP POP POP JUMP JUMPDEST DUP2 DUP4 DUP3 CALLDATACOPY PUSH1 0x0 SWAP2 ADD SWAP1 DUP2 MSTORE SWAP2 SWAP1 POP JUMP JUMPDEST DUP2 DUP4 MSTORE DUP2 DUP2 PUSH1 0x20 DUP6 ADD CALLDATACOPY POP PUSH1 0x0 DUP3 DUP3 ADD PUSH1 0x20 SWAP1 DUP2 ADD SWAP2 SWAP1 SWAP2 MSTORE PUSH1 0x1F SWAP1 SWAP2 ADD PUSH1 0x1F NOT AND SWAP1 SWAP2 ADD ADD SWAP1 JUMP JUMPDEST PUSH1 0x20 DUP2 MSTORE PUSH1 0x0 PUSH2 0x1619 PUSH1 0x20 DUP4 ADD DUP5 DUP7 PUSH2 0x15DC JUMP JUMPDEST SWAP5 SWAP4 POP POP POP POP JUMP JUMPDEST PUSH4 0x4E487B71 PUSH1 0xE0 SHL PUSH1 0x0 MSTORE PUSH1 0x41 PUSH1 0x4 MSTORE PUSH1 0x24 PUSH1 0x0 REVERT JUMPDEST PUSH1 0x1 DUP2 DUP2 SHR SWAP1 DUP3 AND DUP1 PUSH2 0x164B JUMPI PUSH1 0x7F DUP3 AND SWAP2 POP JUMPDEST PUSH1 0x20 DUP3 LT DUP2 SUB PUSH2 0x166B JUMPI PUSH4 0x4E487B71 PUSH1 0xE0 SHL PUSH1 0x0 MSTORE PUSH1 0x22 PUSH1 0x4 MSTORE PUSH1 0x24 PUSH1 0x0 REVERT JUMPDEST POP SWAP2 SWAP1 POP JUMP JUMPDEST PUSH1 0x1F DUP3 GT ISZERO PUSH2 0x94E JUMPI PUSH1 0x0 DUP2 PUSH1 0x0 MSTORE PUSH1 0x20 PUSH1 0x0 KECCAK256 PUSH1 0x1F DUP6 ADD PUSH1 0x5 SHR DUP2 ADD PUSH1 0x20 DUP7 LT ISZERO PUSH2 0x169A JUMPI POP DUP1 JUMPDEST PUSH1 0x1F DUP6 ADD PUSH1 0x5 SHR DUP3 ADD SWAP2 POP JUMPDEST DUP2 DUP2 LT ISZERO PUSH2 0x826 JUMPI DUP3 DUP2 SSTORE PUSH1 0x1 ADD PUSH2 0x16A6 JUMP JUMPDEST DUP2 MLOAD PUSH8 0xFFFFFFFFFFFFFFFF DUP2 GT ISZERO PUSH2 0x16D3 JUMPI PUSH2 0x16D3 PUSH2 0x1621 JUMP JUMPDEST PUSH2 0x16E7 DUP2 PUSH2 0x16E1 DUP5 SLOAD PUSH2 0x1637 JUMP JUMPDEST DUP5 PUSH2 0x1671 JUMP JUMPDEST PUSH1 0x20 DUP1 PUSH1 0x1F DUP4 GT PUSH1 0x1 DUP2 EQ PUSH2 0x171C JUMPI PUSH1 0x0 DUP5 ISZERO PUSH2 0x1704 JUMPI POP DUP6 DUP4 ADD MLOAD JUMPDEST PUSH1 0x0 NOT PUSH1 0x3 DUP7 SWAP1 SHL SHR NOT AND PUSH1 0x1 DUP6 SWAP1 SHL OR DUP6 SSTORE PUSH2 0x826 JUMP JUMPDEST PUSH1 0x0 DUP6 DUP2 MSTORE PUSH1 0x20 DUP2 KECCAK256 PUSH1 0x1F NOT DUP7 AND SWAP2 JUMPDEST DUP3 DUP2 LT ISZERO PUSH2 0x174B JUMPI DUP9 DUP7 ADD MLOAD DUP3 SSTORE SWAP5 DUP5 ADD SWAP5 PUSH1 0x1 SWAP1 SWAP2 ADD SWAP1 DUP5 ADD PUSH2 0x172C JUMP JUMPDEST POP DUP6 DUP3 LT ISZERO PUSH2 0x1769 JUMPI DUP8 DUP6 ADD MLOAD PUSH1 0x0 NOT PUSH1 0x3 DUP9 SWAP1 SHL PUSH1 0xF8 AND SHR NOT AND DUP2 SSTORE JUMPDEST POP POP POP POP POP PUSH1 0x1 SWAP1 DUP2 SHL ADD SWAP1 SSTORE POP JUMP JUMPDEST PUSH8 0xFFFFFFFFFFFFFFFF DUP4 GT ISZERO PUSH2 0x1791 JUMPI PUSH2 0x1791 PUSH2 0x1621 JUMP JUMPDEST PUSH2 0x17A5 DUP4 PUSH2 0x179F DUP4 SLOAD PUSH2 0x1637 JUMP JUMPDEST DUP4 PUSH2 0x1671 JUMP JUMPDEST PUSH1 0x0 PUSH1 0x1F DUP5 GT PUSH1 0x1 DUP2 EQ PUSH2 0x17D9 JUMPI PUSH1 0x0 DUP6 ISZERO PUSH2 0x17C1 JUMPI POP DUP4 DUP3 ADD CALLDATALOAD JUMPDEST PUSH1 0x0 NOT PUSH1 0x3 DUP8 SWAP1 SHL SHR NOT AND PUSH1 0x1 DUP7 SWAP1 SHL OR DUP4 SSTORE PUSH2 0xDC3 JUMP JUMPDEST PUSH1 0x0 DUP4 DUP2 MSTORE PUSH1 0x20 SWAP1 KECCAK256 PUSH1 0x1F NOT DUP7 AND SWAP1 DUP4 JUMPDEST DUP3 DUP2 LT ISZERO PUSH2 0x180A JUMPI DUP7 DUP6 ADD CALLDATALOAD DUP3 SSTORE PUSH1 0x20 SWAP5 DUP6 ADD SWAP5 PUSH1 0x1 SWAP1 SWAP3 ADD SWAP2 ADD PUSH2 0x17EA JUMP JUMPDEST POP DUP7 DUP3 LT ISZERO PUSH2 0x1827 JUMPI PUSH1 0x0 NOT PUSH1 0xF8 DUP9 PUSH1 0x3 SHL AND SHR NOT DUP5 DUP8 ADD CALLDATALOAD AND DUP2 SSTORE JUMPDEST POP POP PUSH1 0x1 DUP6 PUSH1 0x1 SHL ADD DUP4 SSTORE POP POP POP POP POP JUMP JUMPDEST PUSH1 0x0 PUSH1 0x1 DUP3 ADD PUSH2 0x1859 JUMPI PUSH4 0x4E487B71 PUSH1 0xE0 SHL PUSH1 0x0 MSTORE PUSH1 0x11 PUSH1 0x4 MSTORE PUSH1 0x24 PUSH1 0x0 REVERT JUMPDEST POP PUSH1 0x1 ADD SWAP1 JUMP JUMPDEST DUP6 DUP2 MSTORE PUSH2 0x1870 PUSH1 0x20 DUP3 ADD DUP7 PUSH2 0x144E JUMP JUMPDEST PUSH1 0x80 PUSH1 0x40 DUP3 ADD MSTORE PUSH1 0x0 PUSH2 0x1887 PUSH1 0x80 DUP4 ADD DUP6 DUP8 PUSH2 0x15DC JUMP JUMPDEST SWAP1 POP DUP3 PUSH1 0x60 DUP4 ADD MSTORE SWAP7 SWAP6 POP POP POP POP POP POP JUMP JUMPDEST DUP5 DUP2 MSTORE PUSH1 0x20 DUP2 ADD DUP5 SWAP1 MSTORE PUSH1 0x80 DUP2 ADD PUSH2 0x18B4 PUSH1 0x40 DUP4 ADD DUP6 PUSH2 0x144E JUMP JUMPDEST DUP3 PUSH1 0x60 DUP4 ADD MSTORE SWAP6 SWAP5 POP POP POP POP POP JUMP JUMPDEST DUP6 DUP2 MSTORE PUSH1 0x20 DUP2 ADD DUP6 SWAP1 MSTORE PUSH1 0xA0 DUP2 ADD PUSH2 0x18DE PUSH1 0x40 DUP4 ADD DUP7 PUSH2 0x144E JUMP JUMPDEST SWAP3 ISZERO ISZERO PUSH1 0x60 DUP3 ADD MSTORE PUSH1 0x80 ADD MSTORE SWAP4 SWAP3 POP POP POP JUMP JUMPDEST PUSH1 0x40 DUP2 ADD PUSH2 0x18FF DUP3 DUP6 PUSH2 0x144E JUMP JUMPDEST PUSH1 0x1 PUSH1 0x1 PUSH1 0xA0 SHL SUB SWAP3 SWAP1 SWAP3 AND PUSH1 0x20 SWAP2 SWAP1 SWAP2 ADD MSTORE SWAP2 SWAP1 POP JUMP INVALID LOG2 PUSH5 0x6970667358 0x22 SLT KECCAK256 0xA9 MLOAD CALLCODE PUSH8 0xCDD32ADE442FC744 PUSH1 0xD0 0xBB MOD 0xCB 0xC1 0x1F DUP10 TSTORE XOR CALLER 0xA9 0xE3 PUSH6 0x60CD0958D172 PUSH5 0x736F6C6343 STOP ADDMOD XOR STOP CALLER "},"methodIdentifiers":{"AUDITOR_ROLE()":"6e1d616e","CONSENT_MANAGER_ROLE()":"cc0ebd98","DEFAULT_ADMIN_ROLE()":"a217fddf","INGESTION_ROLE()":"c80d5837","PHARMACIST_ROLE()":"c532d9fa","VALIDATOR_ROLE()":"c49baebe","countByType(uint8)":"b3eadb2d","datasetExists(string)":"4420f0e5","getAuditSummary()":"06ff74ec","getHash(string)":"5b6beeb9","getHashHistory(string)":"29d4b37d","getRoleAdmin(bytes32)":"248a9ca3","grantRole(bytes32,address)":"2f2ff15d","hasRole(bytes32,address)":"91d14854","pause()":"8456cb59","paused()":"5c975abb","renounceRole(bytes32,address)":"36568abe","revokeRole(bytes32,address)":"d547741f","storeHash(string,bytes32,string,uint8)":"07f5aa99","supportsInterface(bytes4)":"01ffc9a7","totalRecords()":"125f8974","unpause()":"3f4ba83a","updateHash(string,bytes32,string)":"c129ede1","validateHash(string,bytes32)":"dc5fc832"}}}}}