{
  "_format": "hh-sol-artifact-1",
  "contractName": "DataIntegrity",
  "sourceName": "contracts/DataIntegrity.sol",
  "abi": [
    {
      "inputs": [
        {
          "internalType": "address",
          "name": "admin",
          "type": "address"
        }
      ],
      "stateMutability": "nonpayable",
      "type": "constructor"
    },
    {
      "inputs": [],
      "name": "AccessControlBadConfirmation",
      "type": "error"
    },
    {
      "inputs": [
        {
          "internalType": "address",
          "name": "account",
          "type": "address"
        },
        {
          "internalType": "bytes32",
          "name": "neededRole",
          "type": "bytes32"
        }
      ],
      "name": "AccessControlUnauthorizedAccount",
      "type": "error"
    },
    {
      "inputs": [
        {
          "internalType": "string",
          "name": "datasetId",
          "type": "string"
        }
      ],
      "name": "DatasetAlreadyExists",
      "type": "error"
    },
    {
      "inputs": [
        {
          "internalType": "string",
          "name": "datasetId",
          "type": "string"
        }
      ],
      "name": "DatasetNotFound",
      "type": "error"
    },
    {
      "inputs": [],
      "name": "EnforcedPause",
      "type": "error"
    },
    {
      "inputs": [],
      "name": "ExpectedPause",
      "type": "error"
    },
    {
      "inputs": [],
      "name": "InvalidDatasetId",
      "type": "error"
    },
    {
      "inputs": [],
      "name": "InvalidHash",
      "type": "error"
    },
    {
      "inputs": [],
      "name": "ReentrancyGuardReentrantCall",
      "type": "error"
    },
    {
      "inputs": [
        {
          "internalType": "enum DataIntegrity.RecordType",
          "name": "recordType",
          "type": "uint8"
        },
        {
          "internalType": "address",
          "name": "caller",
          "type": "address"
        }
      ],
      "name": "UnauthorizedRecordType",
      "type": "error"
    },
    {
      "anonymous": false,
      "inputs": [
        {
          "indexed": true,
          "internalType": "string",
          "name": "datasetId",
          "type": "string"
        },
        {
          "indexed": false,
          "internalType": "bytes32",
          "name": "datasetHash",
          "type": "bytes32"
        },
        {
          "indexed": false,
          "internalType": "enum DataIntegrity.RecordType",
          "name": "recordType",
          "type": "uint8"
        },
        {
          "indexed": false,
          "internalType": "string",
          "name": "metadataCID",
          "type": "string"
        },
        {
          "indexed": true,
          "internalType": "address",
          "name": "submitter",
          "type": "address"
        },
        {
          "indexed": false,
          "internalType": "uint256",
          "name": "timestamp",
          "type": "uint256"
        }
      ],
      "name": "HashStored",
      "type": "event"
    },
    {
      "anonymous": false,
      "inputs": [
        {
          "indexed": true,
          "internalType": "string",
          "name": "datasetId",
          "type": "string"
        },
        {
          "indexed": false,
          "internalType": "bytes32",
          "name": "oldHash",
          "type": "bytes32"
        },
        {
          "indexed": false,
          "internalType": "bytes32",
          "name": "newHash",
          "type": "bytes32"
        },
        {
          "indexed": false,
          "internalType": "enum DataIntegrity.RecordType",
          "name": "recordType",
          "type": "uint8"
        },
        {
          "indexed": true,
          "internalType": "address",
          "name": "submitter",
          "type": "address"
        },
        {
          "indexed": false,
          "internalType": "uint256",
          "name": "timestamp",
          "type": "uint256"
        }
      ],
      "name": "HashUpdated",
      "type": "event"
    },
    {
      "anonymous": false,
      "inputs": [
        {
          "indexed": true,
          "internalType": "string",
          "name": "datasetId",
          "type": "string"
        },
        {
          "indexed": false,
          "internalType": "bytes32",
          "name": "providedHash",
          "type": "bytes32"
        },
        {
          "indexed": false,
          "internalType": "bytes32",
          "name": "storedHash",
          "type": "bytes32"
        },
        {
          "indexed": false,
          "internalType": "enum DataIntegrity.RecordType",
          "name": "recordType",
          "type": "uint8"
        },
        {
          "indexed": false,
          "internalType": "bool",
          "name": "isValid",
          "type": "bool"
        },
        {
          "indexed": true,
          "internalType": "address",
          "name": "checker",
          "type": "address"
        },
        {
          "indexed": false,
          "internalType": "uint256",
          "name": "timestamp",
          "type": "uint256"
        }
      ],
      "name": "IntegrityChecked",
      "type": "event"
    },
    {
      "anonymous": false,
      "inputs": [
        {
          "indexed": false,
          "internalType": "address",
          "name": "account",
          "type": "address"
        }
      ],
      "name": "Paused",
      "type": "event"
    },
    {
      "anonymous": false,
      "inputs": [
        {
          "indexed": true,
          "internalType": "bytes32",
          "name": "role",
          "type": "bytes32"
        },
        {
          "indexed": true,
          "internalType": "bytes32",
          "name": "previousAdminRole",
          "type": "bytes32"
        },
        {
          "indexed": true,
          "internalType": "bytes32",
          "name": "newAdminRole",
          "type": "bytes32"
        }
      ],
      "name": "RoleAdminChanged",
      "type": "event"
    },
    {
      "anonymous": false,
      "inputs": [
        {
          "indexed": true,
          "internalType": "bytes32",
          "name": "role",
          "type": "bytes32"
        },
        {
          "indexed": true,
          "internalType": "address",
          "name": "account",
          "type": "address"
        },
        {
          "indexed": true,
          "internalType": "address",
          "name": "sender",
          "type": "address"
        }
      ],
      "name": "RoleGranted",
      "type": "event"
    },
    {
      "anonymous": false,
      "inputs": [
        {
          "indexed": true,
          "internalType": "bytes32",
          "name": "role",
          "type": "bytes32"
        },
        {
          "indexed": true,
          "internalType": "address",
          "name": "account",
          "type": "address"
        },
        {
          "indexed": true,
          "internalType": "address",
          "name": "sender",
          "type": "address"
        }
      ],
      "name": "RoleRevoked",
      "type": "event"
    },
    {
      "anonymous": false,
      "inputs": [
        {
          "indexed": false,
          "internalType": "address",
          "name": "account",
          "type": "address"
        }
      ],
      "name": "Unpaused",
      "type": "event"
    },
    {
      "inputs": [],
      "name": "AUDITOR_ROLE",
      "outputs": [
        {
          "internalType": "bytes32",
          "name": "",
          "type": "bytes32"
        }
      ],
      "stateMutability": "view",
      "type": "function"
    },
    {
      "inputs": [],
      "name": "CONSENT_MANAGER_ROLE",
      "outputs": [
        {
          "internalType": "bytes32",
          "name": "",
          "type": "bytes32"
        }
      ],
      "stateMutability": "view",
      "type": "function"
    },
    {
      "inputs": [],
      "name": "DEFAULT_ADMIN_ROLE",
      "outputs": [
        {
          "internalType": "bytes32",
          "name": "",
          "type": "bytes32"
        }
      ],
      "stateMutability": "view",
      "type": "function"
    },
    {
      "inputs": [],
      "name": "INGESTION_ROLE",
      "outputs": [
        {
          "internalType": "bytes32",
          "name": "",
          "type": "bytes32"
        }
      ],
      "stateMutability": "view",
      "type": "function"
    },
    {
      "inputs": [],
      "name": "PHARMACIST_ROLE",
      "outputs": [
        {
          "internalType": "bytes32",
          "name": "",
          "type": "bytes32"
        }
      ],
      "stateMutability": "view",
      "type": "function"
    },
    {
      "inputs": [],
      "name": "VALIDATOR_ROLE",
      "outputs": [
        {
          "internalType": "bytes32",
          "name": "",
          "type": "bytes32"
        }
      ],
      "stateMutability": "view",
      "type": "function"
    },
    {
      "inputs": [
        {
          "internalType": "enum DataIntegrity.RecordType",
          "name": "",
          "type": "uint8"
        }
      ],
      "name": "countByType",
      "outputs": [
        {
          "internalType": "uint256",
          "name": "",
          "type": "uint256"
        }
      ],
      "stateMutability": "view",
      "type": "function"
    },
    {
      "inputs": [
        {
          "internalType": "string",
          "name": "datasetId",
          "type": "string"
        }
      ],
      "name": "datasetExists",
      "outputs": [
        {
          "internalType": "bool",
          "name": "",
          "type": "bool"
        }
      ],
      "stateMutability": "view",
      "type": "function"
    },
    {
      "inputs": [],
      "name": "getAuditSummary",
      "outputs": [
        {
          "internalType": "uint256",
          "name": "labResults",
          "type": "uint256"
        },
        {
          "internalType": "uint256",
          "name": "diagnoses",
          "type": "uint256"
        },
        {
          "internalType": "uint256",
          "name": "prescriptions",
          "type": "uint256"
        },
        {
          "internalType": "uint256",
          "name": "consentForms",
          "type": "uint256"
        },
        {
          "internalType": "uint256",
          "name": "imagingRecords",
          "type": "uint256"
        },
        {
          "internalType": "uint256",
          "name": "total",
          "type": "uint256"
        }
      ],
      "stateMutability": "view",
      "type": "function"
    },
    {
      "inputs": [
        {
          "internalType": "string",
          "name": "datasetId",
          "type": "string"
        }
      ],
      "name": "getHash",
      "outputs": [
        {
          "internalType": "bytes32",
          "name": "datasetHash",
          "type": "bytes32"
        },
        {
          "internalType": "uint256",
          "name": "timestamp",
          "type": "uint256"
        },
        {
          "internalType": "address",
          "name": "submitter",
          "type": "address"
        },
        {
          "internalType": "string",
          "name": "metadataCID",
          "type": "string"
        },
        {
          "internalType": "enum DataIntegrity.RecordType",
          "name": "recordType",
          "type": "uint8"
        }
      ],
      "stateMutability": "view",
      "type": "function"
    },
    {
      "inputs": [
        {
          "internalType": "string",
          "name": "datasetId",
          "type": "string"
        }
      ],
      "name": "getHashHistory",
      "outputs": [
        {
          "internalType": "bytes32[]",
          "name": "",
          "type": "bytes32[]"
        }
      ],
      "stateMutability": "view",
      "type": "function"
    },
    {
      "inputs": [
        {
          "internalType": "bytes32",
          "name": "role",
          "type": "bytes32"
        }
      ],
      "name": "getRoleAdmin",
      "outputs": [
        {
          "internalType": "bytes32",
          "name": "",
          "type": "bytes32"
        }
      ],
      "stateMutability": "view",
      "type": "function"
    },
    {
      "inputs": [
        {
          "internalType": "bytes32",
          "name": "role",
          "type": "bytes32"
        },
        {
          "internalType": "address",
          "name": "account",
          "type": "address"
        }
      ],
      "name": "grantRole",
      "outputs": [],
      "stateMutability": "nonpayable",
      "type": "function"
    },
    {
      "inputs": [
        {
          "internalType": "bytes32",
          "name": "role",
          "type": "bytes32"
        },
        {
          "internalType": "address",
          "name": "account",
          "type": "address"
        }
      ],
      "name": "hasRole",
      "outputs": [
        {
          "internalType": "bool",
          "name": "",
          "type": "bool"
        }
      ],
      "stateMutability": "view",
      "type": "function"
    },
    {
      "inputs": [],
      "name": "pause",
      "outputs": [],
      "stateMutability": "nonpayable",
      "type": "function"
    },
    {
      "inputs": [],
      "name": "paused",
      "outputs": [
        {
          "internalType": "bool",
          "name": "",
          "type": "bool"
        }
      ],
      "stateMutability": "view",
      "type": "function"
    },
    {
      "inputs": [
        {
          "internalType": "bytes32",
          "name": "role",
          "type": "bytes32"
        },
        {
          "internalType": "address",
          "name": "callerConfirmation",
          "type": "address"
        }
      ],
      "name": "renounceRole",
      "outputs": [],
      "stateMutability": "nonpayable",
      "type": "function"
    },
    {
      "inputs": [
        {
          "internalType": "bytes32",
          "name": "role",
          "type": "bytes32"
        },
        {
          "internalType": "address",
          "name": "account",
          "type": "address"
        }
      ],
      "name": "revokeRole",
      "outputs": [],
      "stateMutability": "nonpayable",
      "type": "function"
    },
    {
      "inputs": [
        {
          "internalType": "string",
          "name": "datasetId",
          "type": "string"
        },
        {
          "internalType": "bytes32",
          "name": "datasetHash",
          "type": "bytes32"
        },
        {
          "internalType": "string",
          "name": "metadataCID",
          "type": "string"
        },
        {
          "internalType": "enum DataIntegrity.RecordType",
          "name": "recordType",
          "type": "uint8"
        }
      ],
      "name": "storeHash",
      "outputs": [],
      "stateMutability": "nonpayable",
      "type": "function"
    },
    {
      "inputs": [
        {
          "internalType": "bytes4",
          "name": "interfaceId",
          "type": "bytes4"
        }
      ],
      "name": "supportsInterface",
      "outputs": [
        {
          "internalType": "bool",
          "name": "",
          "type": "bool"
        }
      ],
      "stateMutability": "view",
      "type": "function"
    },
    {
      "inputs": [],
      "name": "totalRecords",
      "outputs": [
        {
          "internalType": "uint256",
          "name": "",
          "type": "uint256"
        }
      ],
      "stateMutability": "view",
      "type": "function"
    },
    {
      "inputs": [],
      "name": "unpause",
      "outputs": [],
      "stateMutability": "nonpayable",
      "type": "function"
    },
    {
      "inputs": [
        {
          "internalType": "string",
          "name": "datasetId",
          "type": "string"
        },
        {
          "internalType": "bytes32",
          "name": "newHash",
          "type": "bytes32"
        },
        {
          "internalType": "string",
          "name": "metadataCID",
          "type": "string"
        }
      ],
      "name": "updateHash",
      "outputs": [],
      "stateMutability": "nonpayable",
      "type": "function"
    },
    {
      "inputs": [
        {
          "internalType": "string",
          "name": "datasetId",
          "type": "string"
        },
        {
          "internalType": "bytes32",
          "name": "hashToValidate",
          "type": "bytes32"
        }
      ],
      "name": "validateHash",
      "outputs": [
        {
          "internalType": "bool",
          "name": "isValid",
          "type": "bool"
        }
      ],
      "stateMutability": "nonpayable",
      "type": "function"
    }
  ],
  "bytecode": "0x60806040523480156200001157600080fd5b5060405162001b6d38038062001b6d8339810160408190526200003491620001de565b6001600255620000466000826200012f565b50620000737f961d55c77c3196ddb4c0461ff143b345fb217a0e9690c1fd33bd1f2102c4faa7826200012f565b50620000a07f21702c8af46127c7fa207f89d0b0a8441bb32959a0ac7df790e9ab1a25c98926826200012f565b50620000cd7fc2d498fa6734073871a6dde33c56174c52423804118e0d5b66171fad3494de68826200012f565b50620000fa7fc7b520d83ee7a61ea89b49f68cb90c31178aa99dd689d663d9c8fa388a862bc2826200012f565b50620001277f59a1c48e5837ad7a7f3dcedcbe129bf3249ec4fbf651fd4f5e2600ead39fe2f5826200012f565b505062000210565b6000828152602081815260408083206001600160a01b038516845290915281205460ff16620001d4576000838152602081815260408083206001600160a01b03861684529091529020805460ff191660011790556200018b3390565b6001600160a01b0316826001600160a01b0316847f2f8788117e7eff1d82e926ec794901d17c78024a50270940304540a733656f0d60405160405180910390a4506001620001d8565b5060005b92915050565b600060208284031215620001f157600080fd5b81516001600160a01b03811681146200020957600080fd5b9392505050565b61194d80620002206000396000f3fe608060405234801561001057600080fd5b50600436106101585760003560e01c80636e1d616e116100c3578063c49baebe1161007c578063c49baebe14610316578063c532d9fa1461033d578063c80d583714610364578063cc0ebd981461038b578063d547741f146103b2578063dc5fc832146103c557600080fd5b80636e1d616e146102995780638456cb59146102c057806391d14854146102c8578063a217fddf146102db578063b3eadb2d146102e3578063c129ede11461030357600080fd5b80632f2ff15d116101155780632f2ff15d1461022957806336568abe1461023c5780633f4ba83a1461024f5780634420f0e5146102575780635b6beeb91461026a5780635c975abb1461028e57600080fd5b806301ffc9a71461015d57806306ff74ec1461018557806307f5aa99146101ba578063125f8974146101cf578063248a9ca3146101e657806329d4b37d14610209575b600080fd5b61017061016b366004611246565b6103d8565b60405190151581526020015b60405180910390f35b61018d61040f565b604080519687526020870195909552938501929092526060840152608083015260a082015260c00161017c565b6101cd6101c83660046112d4565b61050b565b005b6101d860075481565b60405190815260200161017c565b6101d86101f436600461135d565b60009081526020819052604090206001015490565b61021c610217366004611376565b61082e565b60405161017c91906113b8565b6101cd6102373660046113fc565b6108f0565b6101cd61024a3660046113fc565b61091b565b6101cd610953565b610170610265366004611376565b610969565b61027d610278366004611376565b6109a1565b60405161017c959493929190611470565b60015460ff16610170565b6101d87f59a1c48e5837ad7a7f3dcedcbe129bf3249ec4fbf651fd4f5e2600ead39fe2f581565b6101cd610b52565b6101706102d63660046113fc565b610b65565b6101d8600081565b6101d86102f13660046114eb565b60056020526000908152604090205481565b6101cd610311366004611506565b610b8e565b6101d87f21702c8af46127c7fa207f89d0b0a8441bb32959a0ac7df790e9ab1a25c9892681565b6101d87fc2d498fa6734073871a6dde33c56174c52423804118e0d5b66171fad3494de6881565b6101d87f961d55c77c3196ddb4c0461ff143b345fb217a0e9690c1fd33bd1f2102c4faa781565b6101d87fc7b520d83ee7a61ea89b49f68cb90c31178aa99dd689d663d9c8fa388a862bc281565b6101cd6103c03660046113fc565b610dca565b6101706103d3366004611580565b610def565b60006001600160e01b03198216637965db0b60e01b148061040957506301ffc9a760e01b6001600160e01b03198316145b92915050565b6000806000806000807f59a1c48e5837ad7a7f3dcedcbe129bf3249ec4fbf651fd4f5e2600ead39fe2f561044281610f20565b5050600560205250507f05b8ccbb9d4d8fb16ea74ce3c29a41f1b461fbdaff4714a0d9a8eb05499746bc547f1471eb6eb2c5e789fc3de43f8ce62938c7d1836ec861730447e2ada8fd81017b547f89832631fb3c3307a103ba2c84ab569c64d6182a18893dcd163f0f1c2090733a547fa9bc9a3a348c357ba16b37005d7e6b3236198c0e939f4af8c5f19b8deeb8ebc05460046000527f3eec716f11ba9e820c81ca75eb978ffb45831ef8b7a53e5e422c26008e1ca6d554600754949893975091955093509190565b610513610f2a565b61051b610f50565b600085900361053d576040516374919e8560e11b815260040160405180910390fd5b8361055a576040516257c03760e51b815260040160405180910390fd5b6003868660405161056c9291906115cc565b9081526040519081900360200190206004015460ff61010090910416156105b35785856040516325c8f8a960e01b81526004016105aa929190611605565b60405180910390fd5b6105bc81610f78565b6040518060c00160405280858152602001428152602001336001600160a01b0316815260200184848080601f01602080910402602001604051908101604052809392919081815260200183838082843760009201919091525050509082525060200182600481111561063057610630611438565b8152600160209091015260405160039061064d90899089906115cc565b9081526040805160209281900383019020835181559183015160018301558201516002820180546001600160a01b0319166001600160a01b03909216919091179055606082015160038201906106a390826116b9565b5060808201518160040160006101000a81548160ff021916908360048111156106ce576106ce611438565b021790555060a09190910151600491820180549115156101000261ff001990921691909117905560405161070590889088906115cc565b9081526040516020918190038201902080546001808201835560009283529282200186905560068054928301815590527ff652222313e28459528d920b65115c16c04f3efc82aaedc97be59f3f377c0d3f01610762868883611779565b506005600082600481111561077957610779611438565b600481111561078a5761078a611438565b815260200190815260200160002060008154809291906107a990611839565b9091555050600780549060006107be83611839565b909155505060405133906107d590889088906115cc565b60405180910390207fc28198440681fdc04a517125a59af1bf43b0ce70eaf796a67536746f325669028684878742604051610814959493929190611860565b60405180910390a36108266001600255565b505050505050565b6060600383836040516108429291906115cc565b9081526040519081900360200190206004015460ff6101009091041661087f578282604051637e8d8bb360e01b81526004016105aa929190611605565b600483836040516108919291906115cc565b90815260408051918290036020908101832080548083028501830190935282845291908301828280156108e357602002820191906000526020600020905b8154815260200190600101908083116108cf575b5050505050905092915050565b60008281526020819052604090206001015461090b81610f20565b610915838361105c565b50505050565b6001600160a01b03811633146109445760405163334bd91960e11b815260040160405180910390fd5b61094e82826110ee565b505050565b600061095e81610f20565b610966611159565b50565b60006003838360405161097d9291906115cc565b9081526040519081900360200190206004015460ff61010090910416905092915050565b600080600060606000600387876040516109bc9291906115cc565b9081526040519081900360200190206004015460ff610100909104166109f9578686604051637e8d8bb360e01b81526004016105aa929190611605565b600060038888604051610a0d9291906115cc565b90815260408051918290036020908101832060c0840183528054845260018101549184019190915260028101546001600160a01b031691830191909152600381018054606084019190610a5f90611637565b80601f0160208091040260200160405190810160405280929190818152602001828054610a8b90611637565b8015610ad85780601f10610aad57610100808354040283529160200191610ad8565b820191906000526020600020905b815481529060010190602001808311610abb57829003601f168201915b505050918352505060048281015460209092019160ff1690811115610aff57610aff611438565b6004811115610b1057610b10611438565b815260049190910154610100900460ff16151560209182015281519082015160408301516060840151608090940151929c919b50995091975095509350505050565b6000610b5d81610f20565b6109666111ab565b6000918252602082815260408084206001600160a01b0393909316845291905290205460ff1690565b610b96610f2a565b610b9e610f50565b60038585604051610bb09291906115cc565b9081526040519081900360200190206004015460ff61010090910416610bed578484604051637e8d8bb360e01b81526004016105aa929190611605565b82610c0a576040516257c03760e51b815260040160405180910390fd5b600060038686604051610c1e9291906115cc565b9081526040519081900360200190206004015460ff169050610c3f81610f78565b600060038787604051610c539291906115cc565b9081526040519081900360200181205491508590600390610c77908a908a906115cc565b908152604051908190036020018120919091554290600390610c9c908a908a906115cc565b9081526020016040518091039020600101819055503360038888604051610cc49291906115cc565b908152602001604051809103902060020160006101000a8154816001600160a01b0302191690836001600160a01b03160217905550838360038989604051610d0d9291906115cc565b90815260200160405180910390206003019182610d2b929190611779565b5060048787604051610d3e9291906115cc565b908152604051908190036020908101822080546001810182556000918252919020018690553390610d7290899089906115cc565b60405180910390207fd18fdaa72bfab2ee0ff5ac52fba4d4811522f88ef81a78910468c242d0b329fd83888642604051610daf9493929190611899565b60405180910390a35050610dc36001600255565b5050505050565b600082815260208190526040902060010154610de581610f20565b61091583836110ee565b60007f21702c8af46127c7fa207f89d0b0a8441bb32959a0ac7df790e9ab1a25c98926610e1b81610f20565b60038585604051610e2d9291906115cc565b9081526040519081900360200190206004015460ff61010090910416610e6a578484604051637e8d8bb360e01b81526004016105aa929190611605565b600060038686604051610e7e9291906115cc565b908152604051908190036020018120549150600090600390610ea390899089906115cc565b90815260405190819003602001812060040154838714955060ff1691503390610ecf90899089906115cc565b60405180910390207f1c3a0af2a2e78f808ef89e05939e3c25c11ea86835622bb6f93f17f289f358e68785858942604051610f0e9594939291906118c3565b60405180910390a35050509392505050565b61096681336111e6565b60015460ff1615610f4e5760405163d93c066560e01b815260040160405180910390fd5b565b6002805403610f7257604051633ee5aeb560e01b815260040160405180910390fd5b60028055565b610f83600033610b65565b15610f8b5750565b6002816004811115610f9f57610f9f611438565b03610fef57610fce7fc2d498fa6734073871a6dde33c56174c52423804118e0d5b66171fad3494de6833610b65565b6109665780336040516326558c4560e21b81526004016105aa9291906118f1565b600381600481111561100357611003611438565b0361103257610fce7fc7b520d83ee7a61ea89b49f68cb90c31178aa99dd689d663d9c8fa388a862bc233610b65565b610fce7f961d55c77c3196ddb4c0461ff143b345fb217a0e9690c1fd33bd1f2102c4faa733610b65565b60006110688383610b65565b6110e6576000838152602081815260408083206001600160a01b03861684529091529020805460ff1916600117905561109e3390565b6001600160a01b0316826001600160a01b0316847f2f8788117e7eff1d82e926ec794901d17c78024a50270940304540a733656f0d60405160405180910390a4506001610409565b506000610409565b60006110fa8383610b65565b156110e6576000838152602081815260408083206001600160a01b0386168085529252808320805460ff1916905551339286917ff6391f5c32d9c69d2a47ea670b442974b53935d1edc7fd64eb21e047a839171b9190a4506001610409565b611161611223565b6001805460ff191690557f5db9ee0a495bf2e6ff9c91a7834c1ba4fdd244a5e8aa4e537bd38aeae4b073aa335b6040516001600160a01b03909116815260200160405180910390a1565b6111b3610f2a565b6001805460ff1916811790557f62e78cea01bee320cd4e420270b5ea74000d11b0c9f74754ebdbfc544b05a2583361118e565b6111f08282610b65565b61121f5760405163e2517d3f60e01b81526001600160a01b0382166004820152602481018390526044016105aa565b5050565b60015460ff16610f4e57604051638dfc202b60e01b815260040160405180910390fd5b60006020828403121561125857600080fd5b81356001600160e01b03198116811461127057600080fd5b9392505050565b60008083601f84011261128957600080fd5b50813567ffffffffffffffff8111156112a157600080fd5b6020830191508360208285010111156112b957600080fd5b9250929050565b8035600581106112cf57600080fd5b919050565b600080600080600080608087890312156112ed57600080fd5b863567ffffffffffffffff8082111561130557600080fd5b6113118a838b01611277565b909850965060208901359550604089013591508082111561133157600080fd5b5061133e89828a01611277565b90945092506113519050606088016112c0565b90509295509295509295565b60006020828403121561136f57600080fd5b5035919050565b6000806020838503121561138957600080fd5b823567ffffffffffffffff8111156113a057600080fd5b6113ac85828601611277565b90969095509350505050565b6020808252825182820181905260009190848201906040850190845b818110156113f0578351835292840192918401916001016113d4565b50909695505050505050565b6000806040838503121561140f57600080fd5b8235915060208301356001600160a01b038116811461142d57600080fd5b809150509250929050565b634e487b7160e01b600052602160045260246000fd5b6005811061146c57634e487b7160e01b600052602160045260246000fd5b9052565b8581526000602086602084015260018060a01b038616604084015260a0606084015284518060a085015260005b818110156114b95786810183015185820160c00152820161149d565b50600060c0828601015260c0601f19601f830116850101925050506114e1608083018461144e565b9695505050505050565b6000602082840312156114fd57600080fd5b611270826112c0565b60008060008060006060868803121561151e57600080fd5b853567ffffffffffffffff8082111561153657600080fd5b61154289838a01611277565b909750955060208801359450604088013591508082111561156257600080fd5b5061156f88828901611277565b969995985093965092949392505050565b60008060006040848603121561159557600080fd5b833567ffffffffffffffff8111156115ac57600080fd5b6115b886828701611277565b909790965060209590950135949350505050565b8183823760009101908152919050565b81835281816020850137506000828201602090810191909152601f909101601f19169091010190565b6020815260006116196020830184866115dc565b949350505050565b634e487b7160e01b600052604160045260246000fd5b600181811c9082168061164b57607f821691505b60208210810361166b57634e487b7160e01b600052602260045260246000fd5b50919050565b601f82111561094e576000816000526020600020601f850160051c8101602086101561169a5750805b601f850160051c820191505b81811015610826578281556001016116a6565b815167ffffffffffffffff8111156116d3576116d3611621565b6116e7816116e18454611637565b84611671565b602080601f83116001811461171c57600084156117045750858301515b600019600386901b1c1916600185901b178555610826565b600085815260208120601f198616915b8281101561174b5788860151825594840194600190910190840161172c565b50858210156117695787850151600019600388901b60f8161c191681555b5050505050600190811b01905550565b67ffffffffffffffff83111561179157611791611621565b6117a58361179f8354611637565b83611671565b6000601f8411600181146117d957600085156117c15750838201355b600019600387901b1c1916600186901b178355610dc3565b600083815260209020601f19861690835b8281101561180a57868501358255602094850194600190920191016117ea565b50868210156118275760001960f88860031b161c19848701351681555b505060018560011b0183555050505050565b60006001820161185957634e487b7160e01b600052601160045260246000fd5b5060010190565b858152611870602082018661144e565b6080604082015260006118876080830185876115dc565b90508260608301529695505050505050565b84815260208101849052608081016118b4604083018561144e565b82606083015295945050505050565b8581526020810185905260a081016118de604083018661144e565b9215156060820152608001529392505050565b604081016118ff828561144e565b6001600160a01b03929092166020919091015291905056fea2646970667358221220a951f267cdd32ade442fc74460d0bb06cbc11f895d1833a9e36560cd0958d17264736f6c63430008180033",
  "linkReferences": {},
  "deployedLinkReferences": {}
}